:020000040800F2
:1000000080040020C1010008CD010008CF010008D4
:10001000D1010008D3010008D5010008000000004C
:10002000000000000000000000000000D7010008F0
:10003000D901000800000000DB010008491B00088E
:10004000DF010008DF010008DF010008DF01000810
:10005000DF010008DF010008A10D0008DF01000832
:10006000DF010008DF010008DF010008DF010008F0
:10007000DF010008DF010008DF010008DF010008E0
:10008000DF010008DF010008DF010008DF010008D0
:10009000DF010008DF010008DF010008DF010008C0
:1000A000DF010008151D0008DF010008DF0100085E
:1000B000DF010008DF010008DF010008DF010008A0
:1000C000DF010008DF010008DF010008DF01000890
:1000D000DF010008DF010008DF010008DF01000880
:1000E000DF010008DF010008DF010008DF01000870
:1000F000991E0008DF010008DF010008DF01000889
:10010000DF010008DF010008DF010008DF0100084F
:10011000DF010008DF010008DF010008DF0100083F
:10012000CD0B0008DF010008DF010008DF01000837
:10013000DF010008DF010008DF010008DF0100081F
:10014000DF010008DF010008DF010008DF0100080F
:10015000DF010008DF010008DF010008DF010008FF
:10016000DF010008DF010008DF010008DF010008EF
:10017000DF010008DF010008DF010008DF010008DF
:10018000DF010008DF010008DF010008DF010008CF
:10019000DF010008DF010008DF010008DF010008BF
:1001A000DF010008DF010008DF010008DFF80CD0E4
:1001B00000F02EFB00480047D541000880040020D5
:1001C000074880470748804707480047FEE7FEE7A3
:1001D000FEE7FEE7FEE7FEE7FEE7FEE7FEE7FEE7F7
:1001E000B91B0008B1180008AD010008D2B201E047
:1001F00000F8012B491EFBD270470022F6E710B52C
:1002000013460A4604461946FFF7F0FF204610BD84
:100210002DE9FE4F804681EA0300C00F0C46009096
:1002200021F0004123F00045B8EB0200A94105D2BE
:100230004046214690461C460B46024623F00040AD
:10024000104347D0270DC7F30A00C3F30A510290A9
:10025000401A019040286BDAC3F3130040F4801B6E
:100260000098924620B10023D2EB030A63EB0B0BFC
:1002700001985946C0F14002504600F00CFA06467B
:100280000D4650465946019A00F024FA10EB08003A
:100290006141002487EA115284EAE7731A4340D08F
:1002A000009A62B3019A012A4FEA075215DC001B3B
:1002B00061EB02014FF0004202EA0752CDE9004231
:1002C000001C41F5801132462B4600F024FA03B0A1
:1002D000BDE8F08F40462146F9E7001B61EB0201C3
:1002E000001C41F5801300185B412018A2F500178F
:1002F00047EB030140EAD570B6196D4111E06D0876
:100300004FEA360645EAC0754FEA0752001B61EB1B
:100310000201001C41F5801149084FEA3000001924
:10032000514132462B4603B0BDE8F04F00F0E4B92E
:100330000098012240000023D0EB020263EBE0733F
:10034000009821464FEAE074B8EB000061EB04012D
:10035000E9E783F000435BE781F0004158E72DE9CE
:10036000FE4F81EA030404F0004421F000410094B0
:100370004FF0000B23F0004350EA01045ED052EA34
:1003800003045BD0C3F30A54C1F30A552C44A4F20E
:10039000F3340194A0FB0254C1F3130141F4801122
:1003A000C3F3130343F4801301FB024400FB034E29
:1003B000840A970A44EA815447EA8357A4FB0768F2
:1003C00002958D0A05FB07854FEA932C04FB0C541C
:1003D0002705029D4FEA065847EA1637B5EB080590
:1003E0006EEB070C870E920E47EA811742EA8312E2
:1003F000A7FB0201B6EB0B0164EB00042B0D43EAF3
:100400000C335E1844EB1C50DA465146E7FB020100
:10041000C5F313044FEA0B3343EA14534FEA043293
:10042000019C43EA0603A4F10C040294009CCDE96C
:1004300000B400F070F903B0BDE8F08F0020014671
:10044000F9E72DE9F04D81EA030404F0004B21F0B7
:10045000004514464FF0000A23F0004150EA05021F
:1004600020D054EA01021DD0C5F30A570246C5F355
:100470001303C1F31300C1F30A5640F4801543F48B
:100480008013A7EB0608101BD64608F2FD3873EB65
:10049000050002D308F1010801E092185B41B8F1B0
:1004A000000F03DA00200146BDE8F08D00204FF474
:1004B0008011064684460EE0171B73EB050705D333
:1004C000121B63EB050306434CEA010C49084FEA93
:1004D000300092185B4150EA0107EDD152EA030067
:1004E00012D082EA040083EA0501084305D0101BFC
:1004F000AB4106D20122002306E000224FF0004368
:1005000002E06FF0010253101AEB06004CEB0851A9
:1005100010EB0A0041EB0B01BDE8F04D00F0ECB828
:100520000EB5C10F80EAE0700844CA07002140F20E
:1005300033438DE80E000A460B4600F0ECF803B09A
:1005400000BD70B5C1F30A5201F000450024C1F3AB
:10055000130140F2FF3341F480119A4201DA002086
:1005600070BD40F233439A42A2F2334203DC52425E
:1005700000F0A0F800E090402C43F1D0404270BD64
:1005800000F0004230F000400AD0C10D01F560716A
:10059000C0F3160042EA0151C208400711437047F8
:1005A000002001467047000030B5041E71F10004C0
:1005B00004DB4FF00044404264EB0101141E73F170
:1005C000000405DB1C464FF00043524263EB04037A
:1005D0008B4208BF824230BD30B5041E71F1000469
:1005E00004DB4FF00044404264EB0101141E73F140
:1005F000000405DB1C464FF00043524263EB04034A
:10060000994208BF904230BD30B50B4601460020EC
:100610002022012409E021FA02F59D4205D303FAC4
:1006200002F5491B04FA02F52844151EA2F1010245
:10063000F1DC30BD2DE9F05F0546002092469B4677
:1006400088460646814640241BE0284641464746E8
:10065000224600F02FF853465A46C01A914110D353
:1006600011461846224600F016F82D1A67EB0108CD
:100670004F4622460120002100F00DF817EB00093B
:100680004E41201EA4F10104DFDC484631462A46D3
:100690004346BDE8F09F202A04DB203A00FA02F12D
:1006A000002070479140C2F1200320FA03F3194360
:1006B00090407047202A04DB203A21FA02F0002102
:1006C000704721FA02F3D040C2F120029140084362
:1006D00019467047202A06DBCB17203A41FA02F070
:1006E00043EAE07306E041FA02F3D040C2F120028F
:1006F000914008431946704710B5141E73F1000469
:1007000008DA401C41F1000192185B411A4301D103
:1007100020F0010010BD2DE9F04D92469B4611B12D
:10072000B1FA81F202E0B0FA80F220329046FFF78F
:10073000B2FF04460F4640EA0A0041EA0B01534665
:100740005A46084313D0114653EA010019D0C8F1A4
:1007500040025046FFF7AEFF05460E46504659464A
:100760004246FFF798FF084305D0012004E02046E9
:100770003946BDE8F08D0020054346EAE0762C437B
:1007800037430A986305E40AA0EB08000022FD0A3B
:1007900044EA47540A3002D500200146E9E7010542
:1007A00010196941DDE9084500196941BDE8F04DBE
:1007B000A2E770B521F0004303430CD0C1F30A5502
:1007C0000024D5EB040564EB0403D617AD1AB3413E
:1007D00002DB0020014670BD201841EB025170BDC4
:1007E000C1F30A52C1F3130140F2FF3341F4801107
:1007F0009A4202DA00200146704740F233439A429F
:10080000A2F2334202DC5242FFF754BFFFF743BF6C
:10081000064C074D06E0E06840F0010394E807004D
:1008200098471034AC42F6D3FFF7C4FC28470008C1
:10083000584700082DE9F04D00231A461B1A8A413B
:1008400003DB00200146BDE8F08DC1F30A52C1F37D
:10085000130141F480154FF0000BD10702D10018AD
:100860006D41521E0027044640F2FF11384601EB4D
:10087000620A3E468046024600204FF48011FFF790
:1008800019FFC2197141BB1846EB0100B4EB030C10
:1008900075EB000C04D3E41A65EB000517460E4611
:1008A000241908F101006D4180463428E3DDF9196F
:1008B00046EB0600091BA84103D24FF0FF32134656
:1008C00001E0002213461BEB070046EB0A51BDE88E
:1008D000F04DFFF711BF10B5044600F073FD204640
:1008E00000F084FD10BD21B1826842F001028260F7
:1008F00003E0826822F00102826070470021084A0A
:100900001168084A1140D0E900231A4383681A434A
:10091000C3681A431143044AC2F804137047000025
:1009200004230140E030FCFF0020014021B1826837
:1009300042F48072826003E0826822F480728260F6
:10094000704721B1826842F40072826003E08268DD
:1009500022F400728260704730B502460020002306
:100960005068104C20400D790C6844EA052420435F
:10097000506090680C4C2040D1E903542C438D68A2
:100980002C434D7944EA450420439060D06A20F41A
:1009900070000C7D641EE4B2234340EA0350D06231
:1009A00030BD0000FFFEFFFCFDF7FFC0F0B50446C0
:1009B0000D4600200021092D11DDE068A5F10A0691
:1009C00006EB4607072606FA07F18843A5F10A0653
:1009D00006EB460603FA06F10843E0600CE02069E6
:1009E00005EB4507072606FA07F1884305EB4506A0
:1009F00003FA06F108432061072A0FDA606B561EDE
:100A000006EB86071F2606FA07F18843561E06EBFB
:100A1000860605FA06F10843606322E00D2A0FDA24
:100A2000206BD61F06EB86071F2606FA07F18843C0
:100A3000D61F06EB860605FA06F10843206310E090
:100A4000E06AA2F10D0606EB86071F2606FA07F1FB
:100A50008843A2F10D0606EB860605FA06F1084367
:100A6000E062F0BD00210160017141718160C160EF
:100A7000016101210175704700B587B00121084669
:100A800000F0ECFB0121102000F018FC00208DF894
:100A90001A0001208DF81B0002208DF819008DF836
:100AA00018000002059005A91D4800F0F1FA022087
:100AB0008DF818004002059005A9194800F0E8FAE1
:100AC00007220A21164800F02BFB072209211448AF
:100AD00000F026FB4FF4E13001900020ADF8080053
:100AE000ADF80A00ADF80C00ADF810000C20ADF820
:100AF0000E0001A90B4801F045FB012240F2244100
:100B0000084801F01AFB012240F22551054801F086
:100B100014FB0121034801F0F7FA07B000BD000003
:100B2000000002400010014000B587B001210846D6
:100B300000F094FB0121480400F0B0FB00208DF888
:100B40001A0001208DF81B0002208DF819008DF885
:100B500018000420059005A91A4800F099FA02200F
:100B60008DF818000820059005A9164800F090FAA5
:100B700007220321134800F0D3FA0722022111486B
:100B800000F0CEFA4FF4E13001900020ADF80800FB
:100B9000ADF80A00ADF80C00ADF810000C20ADF86F
:100BA0000E0001A9084801F0EDFA012240F225519A
:100BB000054801F0C2FA0121034801F0A5FA07B087
:100BC00000BD0000000002400044004010B508498C
:100BD000084800F055F850B10749064800F02AF8D7
:100BE0000021044800F040F802200449086010BDCC
:100BF0002080001010640240200000104C000020F3
:100C00000246094B9A4201D2084801E006481038D2
:100C100001F000531BB1064B0B40C36002E0044BD4
:100C20000B40836070470000106402400060024087
:100C30007D0F7D0F0246094B9A4201D2084801E020
:100C40000648103801F000531BB1064B0B40C3603F
:100C500002E0044B0B4083607047000010640240C8
:100C6000006002407D0F7D0F21B1026842F0010259
:100C7000026003E0026822F0010202607047000097
:100C800070B50246002000240025124EB24201D267
:100C9000114B01E00F4B103B104E0E4036B11E269B
:100CA00006EAD124166806EA040502E0566906F051
:100CB000800501F000560EB15C6800E01C68084E2B
:100CC000344004EA010616B10DB1012000E0002015
:100CD00070BD000010640240006002403C0F3C0FF9
:100CE0007D0F7D0F10B501F080034BB122B1436938
:100CF00043F08003436103E0436923F080034361D1
:100D000080290BD02AB1036801F01E04234303603D
:100D100004E0036801F01E04A343036010BD00005B
:100D200010B500220268134B1A40CC680B682343AD
:100D30004C6923438C692343CC6923430C6A2343C6
:100D40004C6A23438C6A23434C6B23438C6B2343B1
:100D50001A430260426922F00702D1E90B342343AF
:100D60001A4342610B6943604B6883608B68C360C0
:100D700010BD00003F801CF010B500F0F4F9FFF743
:100D80007BFEFFF7D1FE10BD01B504490098086055
:100D900000BF024800680028FBD108BD68000020A1
:100DA00010B5012000F010F828B1002002490860B9
:100DB000012000F003F810BD4C000020014908603C
:100DC00070470000143C014001460020034A1268AD
:100DD0000A400AB1012000E000207047143C0140A5
:100DE000002123498279002A3AD00A461268036812
:100DF0009A430B461A600A1D126803689A430B1D3A
:100E00001A60027911440A6803681A430A60184A92
:100E10000832126803689A43154B08331A601A1D8A
:100E2000126803689A43124B0C331A604279102AF5
:100E30000ED11A1F126803681A430D4B08331A604B
:100E40001A1D126803681A43094B0C331A600DE02F
:100E50000749427911440A6803681A430A6005E0A9
:100E6000027911440A6803689A430A6070470000D7
:100E7000003C01401FB50121084600F0EFF90121B7
:100E8000880300F01BFA00F090F901200290002086
:100E90008DF80C008DF80F0002A90B4800F0F8F84F
:100EA0000021084600F0A0FD0120009000208DF8F0
:100EB000040008208DF8050001208DF80600684622
:100EC000FFF78EFF1FBD00000000024010B5024674
:100ED00000200023102A03D14FF02044636E0FE05E
:100EE000B2F5807F02D10A4C236809E0B2F5805F39
:100EF00003D1074C2034236802E0054CD434236826
:100F000003EA01048C4201D0002000E0012010BD62
:100F1000840000A00021D0E900231A4383685B1EEF
:100F200042EA4312C36842EA4321014A1160704712
:100F3000500100A070B500220021002300240568A4
:100F4000AD00A5F1C045D5F840216FF30E02D0E900
:100F500001563543C668354306693543466935430E
:100F600086693543C6693543066A3543466A354363
:100F70002A43056835B90568AD00A5F1C045C5F837
:100F8000402111E03B4D2B686FF30E03D0E907566B
:100F90003543466A35432B43364D2B600568AD001B
:100FA000A5F1C045C5F84021056875BB314D083530
:100FB000066855F8261001F07041856A2D686D1E8F
:100FC000866A7668761E45EA0616856AAD686D1EE5
:100FD00046EA0526856AED686D1E46EA0536856A8D
:100FE0002D8A6D1E46EA0546856AAD8A6D1E46EA63
:100FF0000556856A2D7E6D1E46EA056529431D4D01
:101000000835066845F8261032E0FFE7194D083527
:10101000066855F8261001F07041856A2D686D1E2E
:10102000866A7668761E45EA0616856AAD686D1E84
:1010300046EA0526856A2D8A6D1E46EA054529433E
:101040000C4D08352C6804F07044856AED686D1EFF
:101050002E03856AAD8A6D1E46EA05552C434FF076
:101060002045C5F84841034D0835066845F8261067
:1010700070BD0000400100A00449096841EA400138
:101080004FF02042C2F8541170470000540100A0F4
:10109000F0B50A4600210023002400BF3DE00125F1
:1010A00005FA01F3156805EA03049C4234D105688A
:1010B0004F000326BE40B543056015794E00B5408C
:1010C0000668354305601579012D02D01579022D8A
:1010D00016D185684F000326BE40B543856055791B
:1010E0004E00B540866835438560456801268E40D0
:1010F000B5434560456896798E40B6B23543456044
:10110000C5684F000326BE40B543C560D5794E0083
:10111000B540C6683543C560491C1029BFD3F0BD32
:10112000F0B5002300244D07ED0E02FA05F3CE10B2
:1011300000F1200555F826504E07F70E0F26BE4049
:10114000B543CF1000F1200646F82750CE1000F12D
:10115000200555F8265045EA0304CE1000F120057D
:1011600045F82640F0BD08B54FF4A06000F06CF8DB
:1011700025208DF8000001208DF801008DF8020077
:101180008DF80300684600F023F826208DF8000053
:1011900001208DF8010002208DF8020001208DF859
:1011A0000300684600F014F808BD08B54FF4C060AD
:1011B00000F04AF806208DF8000001208DF80100AB
:1011C0008DF802008DF80300684600F001F808BDB4
:1011D00070B5002100230F22C4781CB3174C24687B
:1011E00004F4E064C4F5E064C4F30721C1F104042D
:1011F000E3B20A4144789C40E1B284781440214330
:101200000C07210E0E4C05786155047804F01F057B
:101210000124AC4005786D11AD0005F1E025C5F85D
:10122000004109E0047804F01F050124AC40054D9D
:101230000678761145F8264070BD00000CED00E000
:1012400000E400E080E100E002490143024A11604D
:10125000704700000000FA050CED00E029B1064AD5
:1012600012680243044B1A6004E0034A1268824386
:10127000014B1A60704700003038024029B1064A1D
:1012800012680243044B1A6004E0034A1268824366
:10129000014B1A60704700003838024029B1064AF5
:1012A00012680243044B1A6004E0034A1268824346
:1012B000014B1A60704700004038024029B1064ACD
:1012C00012680243044B1A6004E0034A1268824326
:1012D000014B1A607047000044380240F0B500210D
:1012E00000220024022500260223324F3F6807F027
:1012F0000C0121B1042905D0082937D105E02E4F72
:10130000076036E02D4F076033E02A4F3F1F3F68EC
:10131000C7F38056274F3F1F3F6807F03F036EB16A
:10132000264FB7FBF3F7DFF88CC0ACF1040CDCF808
:1013300000C0CCF3881C07FB0CF40CE01E4FB7FB7D
:10134000F3F7DFF870C0ACF1040CDCF800C0CCF3AC
:10135000881C07FB0CF4174F3F1F3F68C7F301477A
:101360007F1C7D00B4FBF5F7076002E0124F0760B9
:1013700000BF00BF0F4F3F6807F0F0010909104F91
:101380007A5C0768D74047600A4F3F6807F4E0512E
:10139000890A0B4F7A5C4768D7408760054F3F68E2
:1013A00007F46041490B064F7A5C4768D740C76035
:1013B000F0BD0000083802400024F40040787D01B0
:1013C000140000201CB501210420FFF747FF08206E
:1013D000009003208DF8040000208DF80700694676
:1013E0000148FFF755FE1CBD0008024010B59AB039
:1013F000044601218805FFF731FF40480C90404822
:1014000000680D9000200E900F9410904FF48060B3
:10141000119040001290C0001390002014904FF4DF
:101420000030159000201690012017900020189091
:1014300019900B900BA93348FFF772FC012131483A
:10144000FFF712FC01210802FFF738FF002001908E
:10145000029003904FF43060049001A8FFF74EFA19
:1014600005A8FFF7FFFA002005908DF818008DF809
:1014700019004FF0805007904FF0606008900020F6
:10148000099001208DF8280005A91C484C38FFF769
:1014900063FA062301220D2118484C38FFF786FA1B
:1014A000012116484C38FFF74CFA17491548FFF749
:1014B000A7FB154910391348FFF7A2FB01221021A1
:1014C0001048FFF70FFC38208DF8000000208DF841
:1014D000010003208DF8020001208DF8030068460A
:1014E000FFF776FE012105484C38FFF71FFA01216E
:1014F00002484C38FFF7F7F91AB010BD4C200140F4
:101500006400002010640240200000101CB501217E
:10151000FC20FFF7A3FE02208DF804008DF80500E3
:1015200000208DF806008DF8070001200090694624
:10153000D948FFF7ADFD0C220021D748FFF7F0FD99
:10154000022000906946D448FFF7A2FD0C22012139
:10155000D148FFF7E5FD042000906946CE48FFF72B
:1015600097FD0C220221CC48FFF7DAFD08200090FD
:101570006946C948FFF78CFD0C220321C648FFF7D6
:10158000CFFD102000906946C348FFF781FD0C2273
:101590000421C148FFF7C4FD202000906946BE48E1
:1015A000FFF776FD0C220521BB48FFF7B9FD4FF48C
:1015B000805000906946B848FFF76AFD0C2211463A
:1015C000B548FFF7ADFD4FF4005000906946B248B2
:1015D000FFF75EFD0C220D21AF48FFF7A1FD4FF490
:1015E000804000906946AC48FFF752FD0C220E2166
:1015F000A948FFF795FD4FF4004000906946A648C2
:10160000FFF746FD0C220F21A348FFF789FD0120BB
:1016100000906946A148FFF73BFD0C2200219F483E
:10162000FFF77EFD0220009069469C48FFF730FDE1
:101630000C2201219948FFF773FD102000906946A4
:101640009648FFF725FD0C2204219448FFF768FD1A
:101650002020009069469148FFF71AFD0C220521D1
:101660008E48FFF75DFD4FF48040009069468C483E
:10167000FFF70EFD0C220E218948FFF751FD4FF4B4
:101680000040009069468648FFF702FD0C220F21BA
:101690008348FFF745FD0120009069468048FFF729
:1016A000F7FC0C2200217E48FFF73AFD0220009053
:1016B00069467B48FFF7ECFC0C2201217848FFF7D4
:1016C0002FFD8020009069467648FFF7E1FC0C2250
:1016D00007217448FFF724FD4FF48070009069469D
:1016E0007048FFF7D5FC0C2208216E48FFF718FD63
:1016F0004FF40070009069466A48FFF7C9FC0C225D
:1017000009216848FFF70CFD4FF48060009069469E
:101710006448FFF7BDFC0C220A216248FFF700FD78
:101720004FF40060009069465E48FFF7B1FC0C2260
:101730000B215C48FFF7F4FC4FF4805000906946A1
:101740005848FFF7A5FC0C2211465648FFF7E8FC65
:101750004FF40050009069465248FFF799FC0C2264
:101760000D215048FFF7DCFC4FF4804000906946A3
:101770004C48FFF78DFC0C220E214A48FFF7D0FCA5
:101780004FF40040009069464648FFF781FC0C2268
:101790000F214448FFF7C4FC4FF480700090694665
:1017A0003F48FFF775FC0C2208213D48FFF7B8FCC5
:1017B0004FF40070009069463948FFF769FC0C222D
:1017C00009213748FFF7ACFC4FF480600090694670
:1017D0003348FFF75DFC0C220A213148FFF7A0FCDB
:1017E0004020009069463048FFF752FC0C22062149
:1017F0002D48FFF795FC0120009069462B48FFF724
:1018000047FC0C2200212948FFF78AFC4FF40060B6
:10181000009069462048FFF73BFC0C220B211E4834
:10182000FFF77EFC4FF40040009069461B48FFF72D
:101830002FFC0C220F211948FFF772FC4FF4807027
:10184000009069461548FFF723FC0C220821134835
:10185000FFF766FC8020009069461348FFF718FCEC
:101860000C2207211048FFF75BFC0220009069461C
:101870000C48FFF70DFC0C2201210A48FFF750FC31
:101880000120009069460748FFF702FC0C22002166
:101890000448FFF745FC1CBD00140240001802403C
:1018A000000C024000100240001C024000080240F0
:1018B00000B593B0FFF72AFE01210846FFF7DEFCD2
:1018C000022001900720029004200390072004903A
:1018D00002200590069007900120089002200990B0
:1018E00008200A9010200B9040200C9080000D9052
:1018F00000200E904FF400600F90400010900020E8
:10190000119001A8129008A8FFF714FB00F002F84C
:1019100013B000BD1FB500240120009008200190E5
:1019200000200290039000BF20210120FFF7CEFA93
:101930000028F9D16846FFF7EDFA0A2000F042F8D6
:10194000022000900820019000200290039000BF28
:1019500020210120FFF7BAFA0028F9D16846FFF7E5
:10196000D9FA032000900820019002200290002064
:10197000039000BF20210120FFF7A8FA0028F9D129
:101980006846FFF7C7FA40F222240420009008209E
:10199000019001200290039400BF20210120FFF755
:1019A00095FA0028F9D16846FFF7B4FA40F26A5078
:1019B000FFF762FB00BF20210120FFF787FA002814
:1019C000F9D11FBD01B581B00020009005490198F3
:1019D0004843009002E00098401E009000980028C4
:1019E000F9D10CBDA086010030B500228B071C0F79
:1019F0000F2303FA04F20B4B8C1053F8243093435B
:101A0000084C8D1044F8253023468C1053F82430B0
:101A10008C07240F00FA04F42343024C8D1044F881
:101A2000253030BD083801400CB5002001900090F1
:101A30004148006840F480303F49086000BF3E489C
:101A4000006800F4003000900198401C019000985C
:101A500018B90198B0F5A04FF1D13748006800F4EB
:101A6000003010B10120009001E0002000900098AB
:101A7000012860D130484030006840F080502E4945
:101A8000403108602D48006840F440402B49086010
:101A9000294808300068284908310860084600686D
:101AA00040F4004008600846006840F4A050086018
:101AB0002348091F0860081F006840F08070091F54
:101AC000086000BF1C48006800F000700028F9D0D2
:101AD0001A48006840F480301849086000BF174871
:101AE000406800F480300028F9D01448006840F4C1
:101AF00000301249086000BF1048406800F4003010
:101B00000028F9D040F205700E4908600A480830F4
:101B1000006820F0030008490831086008460068A2
:101B200040F00200086000BF03480830006800F081
:101B30000C000828F8D10CBD0038024000700040AD
:101B4000195A4007003C024010B500F0D1FA10BD10
:101B500030B515480068154AB0FBF2F1481EB0F1E7
:101B6000807F01D301201BE0481E4FF0E02250612E
:101B700050170F22002807DA13071D0E0C4B00F038
:101B80000F04241F1D5503E013071C0E094B1C54A2
:101B900000BF00204FF0E02290610720106100207C
:101BA00008B100BFFEE730BD00000020A0860100A4
:101BB00018ED00E000E400E010B51548006840F4BE
:101BC0007000134908601348006840F00100114993
:101BD000086000200F49083108600E4800680E496F
:101BE00008400C4908600D48091D0860081F00687E
:101BF00020F48020091F0860002006490C3108608D
:101C0000FFF712FF4FF0006001498039086010BDF6
:101C100088ED00E000380240FFFFF6FE103000249F
:101C200070B58CB006460C46154601210846FFF7F4
:101C300015FB01210420FFF711FB01220821324886
:101C4000FFF76EFA012209213048FFF769FA4FF4D5
:101C500080700A9002208DF82C0000208DF82E0054
:101C60008DF82F0003208DF82D000AA92648FFF7D4
:101C70000FFA4FF400700A900AA92448FFF708FAF7
:101C800001210846FFF71AFB0896ADF81C4000201A
:101C9000ADF82400ADF81E0007A91D4800F0E6F9D4
:101CA0007020ADF808000120ADF80A00049500206E
:101CB000ADF8140002A9164800F06CF90122114693
:101CC000134800F05EF90121114800F01FF90121CD
:101CD0000F4800F01EF919208DF8040000208DF83F
:101CE000050001208DF806008DF8070001A8FFF718
:101CF0006FFA0821064800F08BF90121044800F032
:101D000017F90CB070BD000000000240000802404E
:101D10000000014010B50121194800F021F970B30D
:101D20000121174800F0F5F81648006816490968BF
:101D3000405C012803D100201149486302E0C8201B
:101D40000F4948631048006810490968884202D169
:101D5000C8200B4948630C4801680C480068401CC7
:101D6000814207D1C8200649486300220121044866
:101D700000F007F904480068401C0349086010BDE2
:101D80000000014040000020500000203C000020E6
:101D900070B58CB006460C46154601210420FFF7AD
:101DA0005DFA032206213948FFF7BAF940200A906C
:101DB00002208DF82C0000208DF82E008DF82F00C9
:101DC00003208DF82D000AA93048FFF761F90121A1
:101DD0000220FFF773FA0796ADF818400020ADF81F
:101DE0002000ADF81A008DF8220006A9284800F05E
:101DF0003DF94021264800F026F97020ADF8040096
:101E00000120ADF8060003950020ADF8100001A9EF
:101E10001F4800F0BFF808211D4800F0F9F8012222
:101E200011021B4800F093F801221146184800F0F7
:101E3000A8F80121164800F069F80121144800F0C3
:101E400068F82C208DF8240000208DF82500022051
:101E50008DF8260001208DF8270009A8FFF7B8F9B2
:101E600001210B4800F064F880210A4800F0E2F8F4
:101E70001021084800F0E7F80621054800F0ECF8CA
:101E80000021034800F0CDF80CB070BD00080240FE
:101E9000000401400000014010B50121164800F087
:101EA0005FF838B30121144800F033F81348006894
:101EB0001149343108601248016812480068401C1A
:101EC000814212D110480068401C0B49343108602F
:101ED0000121094800F01AF80121074800F019F81B
:101EE00000220121044800F04CF805480068401C1D
:101EF0000349086010BD00000004014030000020CC
:101F0000580000203C0000202C000020CA43028220
:101F10007047CA430282704721B1028842F0010231
:101F2000028004E002884FF6FE731A400280704778
:101F300031B1B0F8442042F40042A0F8442005E05A
:101F4000B0F84420C2F30E02A0F8442070471AB142
:101F500083890B43838102E083898B4383817047AC
:101F600030B50246002000230024158A05EA01034B
:101F7000958905EA010413B10CB1012000E00020AD
:101F800030BD1AB183890B43838102E083898B437F
:101F90008381704770B5002400220023058C4FF622
:101FA000FE7635400584028C8388048B4FF68F754E
:101FB0002C40B51E2C400D882C43751E2A408D895F
:101FC0002A434D882A43104DA84202D00F4DA84203
:101FD00013D14FF6F7752A40CD892A434FF6FB758A
:101FE0002A408D882A434FF6FF652B404FF6FF5558
:101FF0002B400D8A2B434D8A2B43838004838D68AD
:102000004563028470BD00000000014000040140EF
:102010000A460021018B4FF6F773194011430183E3
:1020200070470A46002101894FF68F73194011430A
:102030000181704702894FF67F731A40028102893D
:102040000A430281704782884FF68F731A4082805C
:1020500082880A438280704702894FF6F8731A40DB
:10206000028102890A43028170470000002202882F
:10207000184B98420ED0184B98420BD0B0F1804FBD
:1020800008D0164B984205D0154B984202D0154BFC
:10209000984204D14FF68F731A404B881A43124B63
:1020A000984207D0114B984204D04FF6FF431A4094
:1020B0000B891A4302804B68C3620B880385054B6A
:1020C000984202D0044B984201D18B7A03860123B7
:1020D000838270470000014000040140000400407A
:1020E00000080040000C00400010004000140040B8
:1020F0000448006820B103480068401E0149086098
:10210000704700006800002021B1828942F400522B
:10211000828104E082894DF6FF731A408281704704
:1021200002460020B1F5007F00D100BF13880B40AC
:102130000BB1012000E000207047F0B503460024F9
:1021400000260025002040F66A17B94200D100BFE2
:102150001846C1F3421401F01F06012707FA06F5DD
:10216000012C01D10C3004E0022C01D1103000E030
:1021700014301AB107682F43076002E00768AF43C5
:102180000760F0BD2DE9FF4705460E460024A14635
:1021900000BFA046B08900B100BF2C8A24F440548F
:1021A000F08804432C82AC8941F20C608443B088EF
:1021B00031890843718908430443AC81AC8A24F413
:1021C0004074B0890443AC826846FFF787F8204822
:1021D000854202D01F48854202D1DDF80C9001E013
:1021E000DDF80890A88900F4004040B109EBC9006F
:1021F00000EB091031684900B0FBF1F707E009EB8B
:10220000C90000EB091031688900B0FBF1F76420C8
:10221000B7FBF0F004012009642101FB1078A889C4
:1022200000F4004040B1322000EBC800B0FBF1F0F8
:1022300000F00700044308E0322000EB081064219E
:10224000B0FBF1F000F00F0004432C81BDE8FF87E4
:102250000010014000140140C1F308028280704761
:102260000FB4054B10B503A9044A029800F0F0FF23
:1022700010BC5DF814FB0000013F00086C0000205A
:1022800003B401984100009850EAC12018BF04200F
:102290004A0D18BF40F0010040F2FF72B2EB515FEF
:1022A00008BF40F00200012808BF052002B07047B7
:1022B0002DE9F04D2DED040B2DED0E8B96B0DDE9E3
:1022C0002550279CDDF890A025F0004624F000481A
:1022D000BAF1000F14BF0121002101EB4502FC49B6
:1022E00053184A1093422AD3002814BF0123002315
:1022F00003EB44030B44F7498B4220D358EA000117
:102300009FEDF59B76D0DFF8D8B35D4503D1BAF1E8
:10231000000F05D188E0BAF1000F08BF002100D0FE
:10232000012101EB450111F5001F08D8002814BF59
:102330000121002101EB440111F5001F0BD99DED96
:10234000261B9DED240B16B0BDEC0E8B04B0BDE832
:10235000F04D00F069BE0027002DBCBFE149884563
:1023600021DAE1498845A8BF02271CDAC3451ADCF7
:10237000DE4901EB2851142908DDC1F1340220FAAD
:1023800002F101FA02F282420DD108E058B9C1F11E
:10239000140228FA02F101FA02F2424503D101F0D7
:1023A0000101C1F1020756EA0A0124D1002C22DA08
:1023B000002D18BF022F01D0012F0AD0022000F0FB
:1023C0007FFE16B0BDEC0E8B04B0BDE8F04D00F002
:1023D00013BE022000F074FE00F00EFE51EC100B54
:1023E00081F0004141EC100B16B0BDEC0E8B04B037
:1023F000BDE8F08D18E09FEDBEAB9FEDBF8B0028D0
:1024000071D1B848804522D105F1804010F5801087
:1024100008BFBAF1000F07D0B3450ADC002CA8BFF3
:102420009DED260BE0DA0DE0B0EE490AF0EE690A08
:10243000DAE7002C06DA9DED260B51EC100B81F04B
:1024400000416FE0AE48784490ED000BCCE7D845F2
:102450004DD1002C48DA2EB186423AD1BAF1000FA4
:1024600042D126E0BAF1000F13D0022000F028FE7E
:1024700000F0F6FD8DED020B9DED240B8DED000BB4
:1024800010EE900A039961F31E0003909DED020B7C
:10249000AAE78DED02AB9DED240B1AEE901A10EE1B
:1024A000900A8DED000B61F31E0003909DED020B71
:1024B0009AE78DED028B9DED240B18EE901A10EE2D
:1024C000900A8DED000B61F31E0003909DED020B51
:1024D0008AE709DA9DED240B51EC190B53EC102B14
:1024E000FDF7AFFF1EE020E09DED240B7CE7864268
:1024F0001BDAB4F1804F0DD0A4F10050B0F1FF50C1
:1025000013D1002D11DB9DED240B51EC100B02F0CB
:102510008BF807E09DED240B53EC102B51EC100BC6
:1025200000F0C2BC41EC100B5EE79DED240B51ECBA
:10253000100B01F0D9FCBAF1000FCDE90E0142D128
:102540009FED710B46B3A6F1E040B0F17F600CD077
:102550005E4538D1002D00DAA7B3022F0CBF012051
:102560004FF0FF30FDF7DCFFDCE7002D01DD002C34
:102570000DDA002D01DD002C1FDB002D16DA002CFA
:1025800014DB012F08BF9FED620B3FF42DAFB0EEBF
:102590004A0AF0EE6A0A27E7022F18BF002D0CD076
:1025A000012F0AD1002DFFF61FAF06E0002DB8BFA6
:1025B000002C08DA012F3FF417AFB0EE480AF0EE16
:1025C000680A11E71BE0012000EBE57050EA070103
:1025D00015D0791EB0EE498AF0EE698A084308BF2B
:1025E0009FED4D8B4E480025804570DD4D494E488E
:1025F000884514DDB0420DDB002C19DB2FE00120F3
:1026000000F05EFD16B0BDEC0E8B04B0BDE8F04DE1
:1026100000F016BDB34502DC002C09DC1FE0864249
:1026200002DA002C1BDA03E05E452BDD002C16DD00
:10263000022000F045FD00F013FD8DED020B53EC80
:102640001A2B51EC180BFDF78AFECDE90001039916
:10265000019861F31E0003909DED020BC4E6022079
:1026600000F02EFD00F00CFD10EE901A18EE900A0E
:102670008DED020B8DED008B61F31E0003909DED3F
:10268000020BB1E69DED0E0B53EC192B51EC100B28
:10269000FDF75FFE9FED260BCDE9080153EC102BF3
:1026A0009DED080B51EC100BFDF759FE9FED221B21
:1026B00053EC112BFDF750FE9DED081B53EC112B35
:1026C000FDF74DFE9FED1E1B53EC112B3CE08CE003
:1026D000FFFF1F00FFFF0F00000000000000F03FA1
:1026E0000000F03F0000F07F0000404301FCFFFFCE
:1026F000000000000000F07F00000000000000006B
:10270000D622000000000000000000000000008051
:10271000000000000000F0FF000000000000F0BF1B
:102720000000E0410000F043FFFFEF3F0000000029
:10273000000000000000D03F555555555555D53F78
:10274000000000000000E03FFDF706FE9DED080BD5
:1027500041EC1A0B53EC102B51EC100BFDF7FFFD65
:1027600053EC1A2BFDF7FBFD41EC1A0B9FEDFE0B12
:1027700053EC102B9DED080B51EC100BFDF7EFFD0A
:1027800041EC1B0B9FEDFA0B51EC1A0B53EC102B89
:10279000FDF7E5FD41EC1A0B9FEDF70B53EC102B09
:1027A0009DED080B51EC100BFDF7D9FD53EC1A2BE6
:1027B000FDF7CFFD41EC1A0B51EC1B0B53EC1A2B20
:1027C000FDF726FD0690CDE906519DED060B53EC75
:1027D0001B2B51EC100BFDF7BCFD53EC1A2BFDF736
:1027E000BBFD41EC100B00F0A1B90020B6F5801F35
:1027F0000EDA9FEDE30B53EC102B9DED0E0B51EC1D
:10280000100BFDF7ACFDCDE90E016FF034000E4664
:1028100000EB2650A0F2FF37C6F31300DA4940F070
:102820007F6646F040568842D8BF002408DDD7496D
:102830008142C8BF012403DC0024A6F580167F1C5A
:10284000D348784400EBC4000F9690ED00CB9DED8B
:102850000E0B53EC1C2B51EC100BFDF77AFD9DED8C
:102860000E0B41EC1B0B53EC1C2B51EC100BFDF72A
:10287000CFFC41EC100B51EC190B53EC102BFDF776
:10288000E0FD41EC1D0B51EC1B0B53EC1D2BFDF738
:1028900066FD41EC1A0BBF488DED10AB78441095E6
:1028A00090ED000B4FF0005040EA660000EB8440D2
:1028B0008DED080B00F5002009909DED080B53EC01
:1028C0001C2B51EC100BFDF744FD9DED0E1B53EC42
:1028D000112BFDF741FD41EC100B53EC102B9DED3E
:1028E000100B51EC100BFDF73AFD9DED080B41EC80
:1028F0001C0B53EC102B9DED100B51EC100BFDF746
:102900002EFD53EC1B2BFDF727FD53EC1C2BFDF785
:1029100020FD53EC1D2BFDF722FD41EC1C0B53EC6D
:102920001A2B51EC1A0BFDF71AFD41EC1B0B9A48C0
:102930000621B0EE4B0AF0EE6B0A784400F0E0FAA4
:10294000B0EE401AF0EE601AB0EE41DAF0EE61DA65
:1029500053EC1B2B51EC1B0BFDF701FD53EC1D2B16
:10296000FDF7FDFC9DED100B41EC1B0B53EC1A2BFE
:1029700051EC100BFDF74CFC53EC1C2BFDF7EFFC5E
:1029800053EC1B2BFDF744FC9DED100B41EC1B0B96
:1029900053EC102B51EC100BFDF7E1FC41EC1D0B3F
:1029A0009FED7FEB53EC1E2BFDF732FC53EC1B2B02
:1029B000FDF72EFC0890CDE908519DED080B53EC76
:1029C0001E2B51EC100BFDF7C4FC53EC1D2BFDF737
:1029D000C0FC53EC1B2BFDF7BFFC9DED080B41EC3D
:1029E0001D0B53EC102B9DED100B51EC100BFDF754
:1029F000B6FC41EC1B0B53EC1A2B51EC1D0BFDF7F5
:102A0000AEFC9DED080B41EC1A0B53EC102B51EC76
:102A10001C0BFDF7A4FC53EC1A2BFDF7F9FB41EC62
:102A20001A0B51EC1B0B53EC1A2BFDF7F1FB0C901E
:102A3000CDE90C519DED0C0B53EC1B2B51EC100B05
:102A4000FDF787FC53EC1A2BFDF786FC41EC1B0BC2
:102A50009FED550B53EC102B9DED0C0B51EC100B17
:102A6000FDF77DFC41EC1A0B9FED510B51EC1B0B5C
:102A700053EC102BFDF773FC41EC1B0B9FED4E0B41
:102A800053EC102B9DED0C0B51EC100BFDF767FC7C
:102A900053EC1B2BFDF7BCFB41EC100B4848784472
:102AA00000EBC40090ED001B51EC100B53EC112B0C
:102AB000FDF7AEFB41EC1B0B3846FDF731FDCDE9D0
:102AC000080153EC1B2B51EC1A0BFDF7A1FB41EC59
:102AD000100B3C48784400EBC40090ED00CB51EC67
:102AE000100B53EC1C2BFDF793FB9DED081B53ECD7
:102AF000112BFDF78DFB0690CDE906519DED080BDE
:102B000053EC102B9DED060B51EC100BFDF721FC47
:102B100053EC1C2BFDF71DFC53EC1A2BFDF719FC95
:102B200053EC1B2BFDF718FC41EC100B9DED261B05
:102B300053EC102B8DED001B00959DED260B51ECF9
:102B4000100BFDF70CFC9DED000B41EC1A0B53EC48
:102B5000102B9DED260B51EC100BFDF7FAFB9DEDB4
:102B6000061B53EC112B2FE0000000604715F73FC8
:102B7000FE822B654715F73F44DF5DF80BAE543EF0
:102B800000000000000040438E9803007AB60B005E
:102B9000521E0000801E00008A1D00000000000080
:102BA0000000000000000840000000E009C7EE3F00
:102BB000FD033ADC09C7EE3FF5015B14E02F3EBE92
:102BC000161C0000D01B0000FDF7C9FB53EC1A2BAC
:102BD000FDF71EFB9DED060B41EC1A0B53EC102B81
:102BE0009DED000B51EC100BFDF7B9FBCDE90C018D
:102BF0009DED0C0B51EC1A0B53EC102BFDF708FB61
:102C0000CDE902010C46AA498C422FDB611A084328
:102C100018D19DED0C0B53EC102B9DED020B51ECDC
:102C2000100BFDF796FB41EC1B0B9FEDA30B51EC3A
:102C30001A0B53EC102BFDF7EBFA53EC1B2BFDF7A3
:102C4000CBFC2DD2022000F03BFA00F009FA10EE86
:102C5000901A18EE900A8DED020B8DED008B61F34A
:102C60001E0003909DED020BFFF7BEBB944A24F0BB
:102C70000041914214D39349214408437FF4EFACBF
:102C80009DED0C0B53EC102B9DED020B51EC100B3A
:102C9000FDF75FFB53EC1A2BFDF79EFC7FF6DFACD4
:102CA00024F000408849894A002601EB20518242E5
:102CB0002BDA481C4FF4801121FA00F02044844A9A
:102CC000C0F30A517A44A1F2FF3192ED000B814A20
:102CD0008DED080BCA4020EA0202C0F3130040F455
:102CE0008010C1F1140120FA01F60992002CB8BF3E
:102CF00076429DED080B53EC102B9DED0C0B51EC27
:102D0000100BFDF726FBCDE90C019DED0C0B51ECF2
:102D10001A0B53EC102BFDF77BFA9FED6F0B08900D
:102D2000CDE9085153EC102B9DED080B51EC100B25
:102D3000FDF715FB41EC1B0B9FED690B53EC102BC2
:102D40009DED080B51EC100BFDF709FB9DED0C0BF5
:102D500041EC1C0B53EC102B9DED080B51EC100BB0
:102D6000FDF7F7FA53EC1A2BFDF7F6FA9FED5E1B11
:102D700053EC112BFDF7F3FA53EC1C2BFDF748FA3B
:102D800041EC1A0B51EC1B0B53EC1A2BFDF740FADC
:102D9000CDE902019DED020B53EC1B2B51EC100B06
:102DA000FDF7D7FA53EC1A2BFDF7D6FA9DED020B7F
:102DB00041EC1A0B53EC102B51EC100BFDF7CFFA32
:102DC000CDE908014A489DED080B0521784400F043
:102DD00097F89DED081B51EC100B53EC112BFDF7F0
:102DE000BEFA9DED021B53EC112BFDF7B5FACDE9B0
:102DF00006019DED020B53EC1A2B51EC100BFDF765
:102E0000AEFA53EC1A2BFDF703FA9FED3B0B41ECA6
:102E10001A0B53EC102B9DED060B51EC100BFDF72C
:102E200098FA9DED060B41EC1B0B53EC102B9DED1E
:102E3000020B51EC100BFDF792FA53EC1B2BFDF734
:102E400000FB53EC1A2BFDF784FA9DED021B53ECAB
:102E5000112BFDF77EFA53EC192BFDF77DFACDE926
:102E6000020101EB065001150029C8BF039015DCD3
:102E70009DED020B324651EC100BFDF79AFCFFF76B
:102E8000FFF9042808BF00F0FBF832469DED020B65
:102E900051EC100BFDF78DFCCDE902019DED020B0D
:102EA00051EC180B53EC102BFDF759FAFFF73ABB16
:102EB0000000904000000000FE822B654715973C03
:102EC00000CC904000346F3F01FCFFFF0000E03F6A
:102ED000581A0000FFFF0F0000000000432EE63FDD
:102EE000396CA80C615C20BEEF39FAFE422EE63F39
:102EF0002819000000000000000000000000004051
:102F000070B504462DED028B4D1E00EBC500B0EEF2
:102F1000408AF0EE608A90ED000B35F0060017D085
:102F200053EC182B51EC100BFDF719FA41EC100B78
:102F30006D1E04EBC50090ED001B51EC100B53EC23
:102F4000112BFDF765F941EC100B35F00600E7D1C8
:102F5000022D36D0042D1CD0062D1CBFBDEC028BDB
:102F600070BD53EC182B51EC100BFDF7F8F994EDF4
:102F70000A1B53EC112BFDF74BF953EC182BFDF703
:102F8000EEF994ED081B53EC112BFDF741F941ECE0
:102F9000100B53EC182B51EC100BFDF7E0F994EDEE
:102FA000061B53EC112BFDF733F953EC182BFDF7EF
:102FB000D6F994ED040B53EC102BFDF729F941ECF5
:102FC000100B53EC182B51EC100BFDF7C8F994EDD6
:102FD000021B53EC112BFDF71BF953EC182BFDF7DB
:102FE000BEF994ED001B53EC112BFDF711F9BDEC6C
:102FF000028B41EC100B70BD9FED070B10B553EC2D
:10300000102B9FED070B51EC100BFDF71AFA41EC5A
:10301000100B10BD000000000000000000000000C8
:10302000000000000000F03F10B553EC112B51ECF4
:10303000100BFDF7EDF841EC100B10BD0000000087
:103040009FED050B10B553EC102B51EC100BFDF759
:10305000F8F941EC100B10BD00000000000000006A
:103060009FED050B10B553EC102B51EC100BFDF739
:1030700076F941EC100B10BD00000000000000705C
:103080009FED050B10B553EC102B51EC100BFDF719
:1030900066F941EC100B10BD0000000000000010AC
:1030A00002E008C8121F08C1002AFAD17047704711
:1030B000002001E001C1121F002AFBD1704700006F
:1030C0000149086070470000780000202DE9FF5F8B
:1030D00082B00021DDE90430020DDDF840B0034389
:1030E00018D044F61050A2F2FF3242431514119842
:1030F00001281FD0A5EB0B00401C5FEA000A4FF02F
:1031000000064E4FDFF83891B046504615D5CAF14B
:10311000000413E0119801244AA3012801D16FEAA9
:103120000B010298119AC0E90031C0E9024206B0D1
:10313000BDE8F09FCBF10000DFE704460021404AE4
:10314000491842EB0450CDE9001012E0E00707D027
:1031500032463B4640464946FDF701F980468946DE
:1031600032463B4610461946FDF7F9F806460F462B
:103170006410002CEAD1DDE90401DDE90023BAF195
:10318000000F06DAFDF7EBF842464B46FDF7E7F88D
:1031900005E0FDF756F942464B46FDF752F9044665
:1031A0000E460022284BFDF717FA03D84FF0FF30E8
:1031B000014607E00022254B20463146FDF728F85E
:1031C000FDF70EFB102409E0002C0ADB0A22002385
:1031D000FDF730FA039B30321A55641E50EA0102A3
:1031E000F2D1641C039AC4F111031444119A012A08
:1031F00003D0012208430DD10AE0084304D0002087
:103200004FF0110B119072E7A3EB0B056D1E0DE053
:103210005B4504DD4FF0000205F1010504E003DA2F
:103220004FF00002A5F10105002AECD00298119997
:10323000C0E90231C0E9004579E700000000144010
:103240000000F03F300000000000F0430000E03FCD
:103250002DE9FF4F95B09B468946064600250FE2B3
:10326000252877D100242746F84A0121059400E05B
:10327000044316F8013F203B01FA03F01042F7D156
:1032800030782A2811D06FF02F033078A0F1300267
:10329000092A16D8059A44F0020402EB820203EBD5
:1032A00042021044761C0590EFE759F8042B059272
:1032B000002A03DA504244F40054059044F002041A
:1032C000761C30782E2816D116F8010F44F004042D
:1032D0002A280DD06FF02F023078A0F13003092B8F
:1032E00009D807EB870302EB4303C718761CF3E703
:1032F00059F8047B761C30786C280FD006DC4C28FB
:1033000017D068280DD06A2814D104E0742810D092
:103310007A280FD10DE044F400140AE044F480143C
:1033200001E044F440147278824202D104F5801422
:10333000761C761C307866280BD013DC582877D0A2
:1033400009DC002875D04528F6D04628F4D0472857
:103350001AD19DE118E0632835D0642879D065281A
:1033600012D195E1702873D008DC6728F1D0692864
:103370006FD06E280DD06F2806D1B5E073282CD001
:10338000752875D0782874D05A46179990476D1CC7
:1033900075E1C4F30250022809D003280DD0D9F8F2
:1033A000001004280DD00D6009F1040967E1D9F877
:1033B0000010EA17C1E90052F6E7D9F800100D80B5
:1033C000F2E70D70F0E719F8041B8DF800100020EB
:1033D0008DF80100EA46012003E059F804AB4FF0F4
:1033E000FF3061074FF0000102D40DE008F1010148
:1033F0008846B9420FDA8045F8DB1AF80810002930
:10340000F4D108E008F1010188468142FADB1AF89C
:1034100008100029F6D105985B46A0EB0807214665
:103420003846179A00F094FA284400EB080507E0A4
:103430004DE029E10DE01AF8010B5A461799904723
:10344000B8F10108F7D25B4621463846179A13E1D6
:1034500042E00A220092C4F302524FF0000A022A0C
:1034600008D059F804CB032A4FEAEC710AD00DE0DA
:1034700029E02AE009F1070121F00702F2E802C180
:10348000914609E00FFA8CFC4FEAEC71042A03D153
:103490004FFA8CFC4FEAEC71002907DA0A4600214A
:1034A000DCF1000C61EB02012D2202E0220504D5C3
:1034B0002B228DF80420012203E0E20701D0202214
:1034C000F7E7904659E00A2102E010220DE01021B2
:1034D0004FF0000A00910BE010224FF0000A44F078
:1034E00004040827009203E008224FF0000A00922B
:1034F000C4F30252022A05D059F804CB0021032A52
:1035000008D009E009F1070121F00702F2E802C141
:10351000914605E01FFA8CFC042A01D10CF0FF0C47
:103520004FF00008220728D5702806D0009B83F0B2
:10353000100353EA0A0305D00EE040228DF8042060
:10354000012208E05CEA010206D030228DF8042056
:103550008DF8050002229046009B83F0080353EA91
:103560000A030AD15CEA010201D1620705D53022C3
:103570008DF804204FF001087F1E582804D034A095
:1035800003900EA802900DE036A0F9E7534660467E
:10359000009AFDF74FF884460398825C0298401E1B
:1035A000029002705CEA0100F0D1029806A9081AA4
:1035B00000F1200A600702D524F4803400E00127DE
:1035C000574502DDA7EB0A0000E0002000EB0A01EE
:1035D000009005984144401A0590E00306D45B46EC
:1035E0002146179A059800F0B3F90544002706E034
:1035F00001A85A46C05D179990476D1C7F1C47452E
:10360000F6DBE0030CD55B462146179A059800F0DF
:103610009FF9054404E030205A46179990476D1CE5
:103620000099481E00900029F5DC08E002980299F4
:103630005A460078491C0291179990476D1CBAF1BF
:103640000001AAF1010AF1DC65E10000092801008E
:103650003031323334353637383961626364656608
:1036600000000000303132333435363738394142CA
:10367000434445460000000000F058F90544761C1C
:10368000307800287FF4ECAD19B02846BDE8F08F03
:10369000620700D4062709F1070222F0070CFCE8B4
:1036A0000223E14603F000485FEA080C02D00FF263
:1036B000702C0DE05FEA045C02D50FF2682C07E085
:1036C0005FEAC47C02D00FF2602C01E0AFF2700C14
:1036D0004FF0FF3823F00043CDF850C065280CD0E0
:1036E00006DC452809D046281DD047283DD13DE0BD
:1036F000662818D067287ED138E00021112F01DB21
:10370000112000E0781CCDE9000106A90EA8FFF702
:10371000DDFCDDE90F010E9A03910021009207F113
:10372000010A04914DE04FF000400097CDE90110EF
:1037300006A90EA8FFF7CAFCDDE90F0203920E9B53
:1037400011990022DDF80CA00093049211B9791CA4
:1037500000EB010AB7EB0A0004D4C0F1FF3007F117
:10376000010A0490AAEB0700019044E0012F00DA5F
:1037700001270021112F01DD112000E03846CDE99D
:10378000000106A90EA8FFF7A1FCDDE90F010E9AC2
:103790000391002104910092BA4621070CD40399A9
:1037A000514500DA8A46BAF1010F05DD009AAAF107
:1037B0000101515C302908D0B84202DA10F1040F3F
:1037C00006DA0121CDE9011015E0AAF10101E9E7CE
:1037D000002805DC049901440491AAEB000102E0F1
:1037E000411C514500DD8A460499401A401C019055
:1037F0004FF000400290200704D40198504501DBAF
:10380000CDF8048000208DF84F0002980DF14F078D
:10381000B0F1004F25D02B200E9002984FF00208F7
:1038200000280CDA404202902D200E9007E00A2179
:103830000298FCF7E9FE3031029007F8011DB8F15B
:103840000001A8F10108F2DC02980028EFD1791EEE
:103850000E980870307800F0200040F0450007F81E
:10386000020D12A8C01B00F107081498007800B1DF
:10387000012000EB0A01019801EBE0710598414439
:10388000401A401E0590E00306D45B462146179A75
:10389000059800F05DF805441498007818B15A4670
:1038A000179990476D1CE00324D55B462146179A73
:1038B000059800F04DF805441CE00498002807DB4B
:1038C000DDE90301884203DD0098405C179901E0BF
:1038D000179930205A469047049805F10105401C7D
:1038E00004900198401E019004D12E205A46179949
:1038F00090476D1CBAF10001AAF1010ADDDC05E078
:1039000017F8010B5A46179990476D1CB8F1000142
:10391000A8F10108F4DC5B462146179A0598ABE64E
:103920002D0000002B000000200000002DE9F041D8
:10393000044600251E461746880404D405E039468F
:103940002020B0476D1C641EF9D52846BDE8F081E3
:103950002DE9F041044600251E469046C80301D5D6
:10396000302700E02027880404D505E0414638468A
:10397000B0476D1C641EF9D52846BDE8F081018072
:1039800042804360704700002DE9F34F88B08146C4
:10399000D9F804800998D0F804A0B9F800C0B9F8A3
:1039A00002209FEDBC2AB0EE420A0020039056464A
:1039B000E64619E0ACEB0E0304E09FEDB62AA6EC58
:1039C000012A5B1E002BF8D1B7EE002AA6EC012AD3
:1039D000AEF1010304E09FEDAF2AA6EC012A5B1EC5
:1039E000002BF8D1AEF1010EBEF1000FE2D1029230
:1039F000002424E104FB02F008EB800104FB02F048
:103A00000AEB800691ED002AB0EE420A9FEDA12A52
:103A1000F0EE420A274628E091ED002AB5EEC02AD2
:103A2000F1EE10FA0CDD91ED002AB4EEE02AF1EE91
:103A300010FA02DD91ED002A12E0B0EE602A0FE0EC
:103A400091ED002AB1EE422AB4EEE02AF1EE10FA2E
:103A500004DD91ED002AB1EE422A01E0B0EE602AC9
:103A6000F0EE420A01EB82017F1C6745D4D3F5EEEC
:103A7000C00AF1EE10FA04D16FF004000AB0BDE8FC
:103A8000F08F414601200190B5EEC00AF1EE10FA28
:103A900002DDB0EE402A01E0B1EE402AB4EE602A29
:103AA000F1EE10FA4CD0601CACEB000745E002FBD5
:103AB00004F001EB80050198504306EB800007906D
:103AC00095ED002AB5EEC02AF1EE10FA02DD95ED73
:103AD000002A03E095ED002AB1EE422AB4EE602AF6
:103AE000F1EE10FA25D1131B0AE095ED002AF0EE55
:103AF000421A91ED002AA5EC012AE1EC011A5B1EA5
:103B0000002BF2D113460FE0079890ED002AF0EE5B
:103B1000421A96ED002A079880ED002A0798001DAA
:103B20000790E6EC011A5B1E002BEDD101200390FB
:103B300005E00198401C01907F1E002FB7D100BF07
:103B40000398012807D0B5EEC00AF1EE10FA02D1B1
:103B50006FF0040092E704FB02F008EB800B04FB1B
:103B600002F00AEB800005905946059D9BED002A66
:103B7000B0EE420A131B08E091ED002AB0EE421AA3
:103B800081EE002AA1EC012A5B1E002BF4D1134622
:103B900008E095ED002AB0EE421A81EE002AA5EC6D
:103BA000012A5B1E002BF4D1414655460027CDF873
:103BB00004C03BE0A74205D1101B01EB800105EBDF
:103BC00082052DE091ED002AB0EE420ACDF818B042
:103BD00005980490131B0EE091ED002AB0EE421AF6
:103BE0000698F0EC012AB0EE412A00EE622A069017
:103BF000A1EC012A5B1E002BEED113460EE095EDE1
:103C0000002AB0EE421A0498F0EC012AB0EE412AE4
:103C100000EE622A0490A5EC012A5B1E002BEED177
:103C200001EB84010198401E01907F1C019800283F
:103C3000C0D108F104080298401E0290641C02984A
:103C400000287FF4D7AE0090039801281FD0B5EE6E
:103C5000C00AF1EE10FA1AD1D9F8048000270AE060
:103C600008EB870090ED002AB5EEC02AF1EE10FABD
:103C700000D004E07F1C0CFB02F0B842F0D800BF7B
:103C80000CFB02F0B84202D16FF0040000900098E3
:103C9000F4E60000000000002DE9F74F83B0044671
:103CA0000D4662686968D4F804C0059840680290BF
:103CB000208801906B8867884FF0000ADDF804E0E7
:103CC00000BF029800EB8A08994669684FF0000B24
:103CD00000BFDFED412AB0EE620A6246BE1042E04C
:103CE000D1ED002AF0EE621A01EB8301D2ED002A39
:103CF000F0EE620AD2ED012AB0EE621AF0EE402A2E
:103D000040EEA12AB0EE620AD1ED002AB0EE622A9E
:103D100001EB8301F0EE402A41EE022AB0EE620A86
:103D2000D1ED002AF0EE621A01EB8301D2ED022AF6
:103D3000F0EE620AD2ED032AB0EE621AF0EE402AEB
:103D400040EEA12AB0EE620AD1ED002AB0EE622A5E
:103D500001EB8301F0EE402A41EE022AB0EE620A46
:103D60001032701E86B2002EBAD107F003060DE0A5
:103D7000B2EC013AD1ED003AF0EE402A43EE232AAC
:103D8000B0EE620A01EB8301701E86B2002EEFD105
:103D9000A8EC010A0BF101001FFA80FB686800EB38
:103DA0008B01A9F101001FFA80F9B9F1000F90D140
:103DB0000AEB03001FFA80FA0CEB870CAEF101004E
:103DC0001FFA80FEBEF1000F7FF47BAF0020009051
:103DD000009806B0BDE8F08F0000000030B50B463B
:103DE000002419E0D0ED000ABDEEE00A002109E050
:103DF0004D1C00EB8505D5ED000A00EB8105C5EDF6
:103E0000000A491C9942F3DBF8EEC00A5D1E00EB84
:103E10008505C5ED000A641C9442E3DB30BD00005B
:103E200010B5044600202649086026490860264847
:103E30000068B0B92046FCF74EFD24490988491CAA
:103E40008AB22249098888B2B321FDF7E9FE2049E8
:103E500009888AB21F49098888B2B321FDF798FF03
:103E600029E001211C48FEF751F801211A48FEF70C
:103E700050F801211948FEF749F801211748FEF7CB
:103E800048F8174804600121001FFCF7EDFE1548B3
:103E9000006820F020001349086001211148FCF758
:103EA00045FD012211460C48FEF76BF80122114630
:103EB0000A48FEF766F801210848FEF72DF810BD04
:103EC000500000205800002048000020340000204E
:103ED000300000202C0000200004014000000140C0
:103EE000146402400020014082B0CDE9000121F0BD
:103EF000004001909DED000B02B051EC100B70479B
:103F000070B504460D46E1B20548FEF7A5F900BFBD
:103F100080210348FEF704F90028F9D0204670BD3F
:103F2000001001402DE9F04180460D4614461E4622
:103F3000002708E004FB07F108EB81003A46214620
:103F4000FFF74CFF7F1CB742F4DB002015E0002197
:103F500010E005EB800292ED000A04FB010208EB81
:103F60008202D2ED000A30EE200A05EB800282EDDB
:103F7000000A491CB142ECDB401CA042E7DB0020F8
:103F80000EE005EB8001D1ED000A00EE106AB8EEFC
:103F9000C00A80EE801A05EB800181ED001A401CFA
:103FA000A042EEDBBDE8F08170B50446981E00FB30
:103FB00002F500200CE0461C34F8166000EE106A92
:103FC000B8EE400A461901EB860686ED000A401C51
:103FD0009042F0DB70BD00002DE9F0472DED068B1F
:103FE000064600241FE03046FCF79AFA41EC180B15
:103FF0002046FCF795FA41EC1A0BB0EE4A1AF0EEA7
:104000006A1A9FED720BFEF753F9B0EE409AF0EE8C
:10401000609A53EC182B51EC190BFCF7C5FA01D13F
:10402000A04602E0641C0A2CDDDB00BFB00000F0FB
:104030000BFA0546002405E0B00000F005FA45F84B
:104040002400641CB442F7DBB7EE000A286880ED58
:10405000000AB7EE000A286880ED010AB7EE000AF0
:10406000686880ED000ABFEE000A686880ED010A0A
:104070004FF0000982E009F10200FCF751FA41EC2F
:10408000190BB0EE491AF0EE691A9FED500BFEF7CE
:104090000FF9B0EE408AF0EE608A51EC180BFCF795
:1040A00050FA0446002019E0224604EBD27359105E
:1040B00011E0224604EBD273A1EB630355F820C054
:1040C0000CEB830393ED000A55F8203003EB8103DA
:1040D00083ED000A491CA142EBDB401C04EBD472C7
:1040E000B0EB620FE0DB214604EBD172501019E017
:1040F000002111E0224604EBD273A0EB630355F8D4
:10410000233003EB810393ED000A55F8203003EBD5
:10411000810383ED000A491C04EBD473B1EB630FF8
:10412000E8DB401CA042E3DB214604EBD1725010D7
:1041300020E0224604EBD273591018E0224604EB2B
:10414000D27CA0EB6C0C55F82CC0234604EBD37A40
:10415000A1EB6A0A0CEB8A0C9CED000AB1EE400A56
:1041600055F820C00CEB810C8CED000A491CA142D3
:10417000E4DB401CA042DCDB09F10109A8F10100ED
:1041800048453FF778AF06FB06F1880000F05CF980
:104190000746002010E090FBF6F155F8211090FB47
:1041A000F6F206FB120201EB820191ED000A07EB29
:1041B000800181ED000A401C06FB06F18142EADC29
:1041C0003846BDEC068BBDE8F0870000000000001B
:1041D0000000004090B0FDF7BBFCFCF74BFEFCF785
:1041E000CBFD00BF91480068401C91490860002049
:1041F0000F908E490968891C480000F025F98D4907
:104200000860002500240026884909684943880081
:1042100000F01AF98246854909684943880000F090
:1042200013F98346814909684943880000F00CF975
:1042300007467E4909684943880000F005F9804631
:104240007A490968880000F0FFF8814677490968D3
:104250004943880000F0F8F800907449086800F0BD
:10426000F3F8754908607148006881004846FBF71B
:10427000C4FF6E480068801C41006E480068FBF770
:10428000BCFF8020FFF7A8FE05468021284600F0ED
:1042900011F906468021284600F00CF904466348CF
:1042A000008882B26148008881B223460DA8FFF7DA
:1042B00066FB5E48008882B25C48008881B2334663
:1042C0000BA8FFF75CFB5948008882B2574800886A
:1042D00081B2534609A8FFF752FB5448008882B2C6
:1042E0005248008881B201A8009BFFF748FB4F4865
:1042F000008882B24D48008881B25B4605A8FFF76E
:104300003EFB4A48008882B24848008881B2434652
:1043100007A8FFF734FB4548008882B2434800886D
:1043200081B23B4603A8FFF72AFB09A90BA8FFF7B8
:104330002BFB3E48012203683F480168204600F0FD
:104340001DF93B480068FFF76BFD6EE03B480068D5
:1043500020B1012812D0022866D110E00A20374986
:10436000086032480122036833480168204600F0A3
:1043700005F92F480068FFF753FD55E054E00A2087
:104380002E4908602E480068401C2D4908600846E8
:10439000006801281FDD0846006824490968884232
:1043A00019DC27480368214839460268214800681B
:1043B000FFF7FAFD4FF4FA70FCF7E6FC1B480368C0
:1043C0001F4802681C480168204600F0D7F81848CA
:1043D0000068FFF725FD1A48016814480068401C72
:1043E000814220D1164803681048394602681148B6
:1043F0000068FFF7D9FD07AA03A909A8FFF74CFC3D
:10440000104803680948494602684046FFF78AFD9C
:1044100006480168484600F0E3F8012008490860B2
:1044200000200649086000BF00BF8FE73C00002065
:104430006000002064000020400000204C000020AC
:104440004800002028000020F0B50B30154D20F06A
:1044500007010024144A0FE003688B420BD38B4200
:1044600005D95E1A43184768C3E9006700E043684E
:10447000136002C004E0021D10680028ECD1204641
:10448000002802D1286808B10020F0BD064A07487C
:104490001060074A121A22F00702C0E90024012026
:1044A0002860D7E77400002070000020040000D0CE
:1044B000000000D42DE9F0412DED028B07460C469B
:1044C000611E49438800FFF7BFFF8046012544E095
:1044D00001263FE005FB046007EB800090ED000A39
:1044E00010EE101A0846FCF74BF841EC180B9FED44
:1044F0001E0B53EC102BFCF76FF80BD29FED1C0A30
:10450000701E691E621E01FB020008EB800080ED38
:10451000000A1EE005FB046007EB800090ED000A36
:1045200010EE101A0846FCF72BF841EC180B9FED23
:10453000110B53EC102BFCF737F80AD2B7EE000A38
:10454000701E691E621E01FB020008EB800080EDF8
:10455000000A761CA642BDDB6D1CA542B8DB4046B6
:10456000BDEC028BBDE8F081000000000000E03FE0
:1045700000000000000000000000E0BF2DE9F0474F
:104580002DED028B07460D4690461E46A8F1010010
:1045900000FB06F9002419E004EB090007EB80009A
:1045A00090ED000A10EE101A0846FBF7E9FF41EC07
:1045B000180B9FED090B53EC102BFCF70DF802D2F2
:1045C0000120285501E000202855641CB442E3DB9B
:1045D000BDEC028BBDE8F087000000000000E03F6A
:1045E0002DE9F0412DED028B05460E46374600249D
:1045F00010E005EB840090ED000A10EE101A08465A
:10460000FBF7BEFF41EC180B53EC182B04A0FDF791
:1046100027FE641CBC42ECDBBDEC028BBDE8F081E4
:10462000252E32660D0A000000B52DED048B83B0F7
:1046300041EC190BFCF7FEF841EC180B18EE100AD0
:1046400018EE901A8DED008B002818BF012008434A
:1046500020F00040C0F17F6000F1E040C00F14D0B6
:1046600019EE101A19EE900A8DED009B002918BF63
:104670000121084320F00040C0F17F6000F1E040DC
:10468000C00F04BF0120FEF71BFD51EC180B03B057
:10469000BDEC048B00BD0000000000000000F03FF6
:1046A000000000000000F83F0000000000000000D3
:1046B0000000004003B8E23F0000000000000000DE
:1046C00006D0CF43EBFD4C3E033333333333E33F6C
:1046D000FFAB6FDBB66DDB3F4D268F515555D53F98
:1046E00001411DA96074D13F65DBC9934A86CD3F66
:1046F000EF4E454A287ECA3F3E5555555555C53F54
:1047000093BDBE166CC166BF2CDE25AF6A56113F45
:10471000F16BD2C541BDBBBED0A4BE726937663E47
:1047200000000000000000005847000800000020C2
:104730007C000000A0300008D44700087C00002066
:1047400004040000B0300008D4470008000000D086
:1047500000020000B03000080095BA0A0000000016
:104760000000000001020304060708090000000021
:104770000102030401020304060708090000000007
:1047800028000000C700000064000000C70000000F
:10479000C80000007F0000000000000001000000D1
:1047A000000000000A0000000000000000000000FF
:1047B00000000000030000000000000000000000F6
:1047C00000000000000000000000000000000000E9
:0447D00000000000E5
:04000005080001AD41
:00000001FF
