:020000040800F2
:1000000038E20020C1010008C9010008CB01000846
:10001000CD010008CF010008D10100080000000058
:10002000000000000000000000000000D3010008F4
:10003000D501000800000000D7010008691200087F
:10004000DB010008DB010008DB010008DB01000820
:10005000DB010008DB010008A90B0008DB01000838
:10006000DB010008DB010008DB010008DB01000800
:10007000DB010008DB010008DB010008DB010008F0
:10008000DB010008DB010008DB010008DB010008E0
:10009000DB010008DB010008DB010008DB010008D0
:1000A000DB0100082D140008DB010008DB0100085B
:1000B000DB010008DB010008DB010008DB010008B0
:1000C000DB010008DB010008DB010008DB010008A0
:1000D000DB01000879180008DB010008DB010008DB
:1000E000DB010008DB010008DB010008DB01000880
:1000F000C9150008DB010008DB010008DB0100086E
:10010000DB010008DB010008DB010008DB0100085F
:10011000DB010008DB010008DB010008DB0100084F
:1001200055090008DB010008DB010008DB010008BD
:10013000DB010008DB010008DB010008DB0100082F
:10014000DB010008DB010008DB010008DB0100081F
:10015000DB010008DB010008DB010008DB0100080F
:10016000DB010008DB010008DB010008DB010008FF
:10017000DB010008DB010008DB010008DB010008EF
:10018000DB010008DB010008DB010008DB010008DF
:10019000DB010008DB010008DB010008DB010008CF
:1001A000DB010008DB010008DB010008DFF80CD0F0
:1001B00000F0A4FA004800476D2A000838E2002049
:1001C0000648804706480047FEE7FEE7FEE7FEE7F1
:1001D000FEE7FEE7FEE7FEE7FEE7FEE7D9120008CE
:1001E000AD0100082DE9FE4F804681EA0300C00FF3
:1001F0000C46009021F0004123F00045B8EB0200CE
:10020000A94105D24046214690461C460B4602466F
:1002100023F00040104347D0270DC7F30A00C3F373
:100220000A510290401A019040286BDAC3F3130080
:1002300040F4801B0098924620B10023D2EB030AC1
:1002400063EB0B0B01985946C0F14002504600F099
:10025000A5F806460D4650465946019A00F0BDF8ED
:1002600010EB08006141002487EA115284EAE77329
:100270001A4340D0009A62B3019A012A4FEA07520A
:1002800015DC001B61EB02014FF0004202EA07524D
:10029000CDE90042001C41F5801132462B4600F0AA
:1002A000BDF803B0BDE8F08F40462146F9E7001BDA
:1002B00061EB0201001C41F5801300185B4120181E
:1002C000A2F5001747EB030140EAD570B6196D415E
:1002D00011E06D084FEA360645EAC0754FEA07524D
:1002E000001B61EB0201001C41F5801149084FEA37
:1002F00030000019514132462B4603B0BDE8F04FA3
:1003000000F07DB80098012240000023D0EB0202EB
:1003100063EBE073009821464FEAE074B8EB00000D
:1003200061EB0401E9E783F000435BE781F0004102
:1003300058E770B5C1F30A5201F000450024C1F33B
:10034000130140F2FF3341F480119A4201DA002098
:1003500070BD40F233439A42A2F2334203DC524270
:1003600000F02BF800E090402C43F1D0404270BDEB
:1003700030B50B46014600202022012409E021FA75
:1003800002F59D4205D303FA02F5491B04FA02F572
:100390002844151EA2F10102F1DC30BD202A04DB45
:1003A000203A00FA02F1002070479140C2F1200388
:1003B00020FA03F3194390407047202A04DB203AC7
:1003C00021FA02F00021704721FA02F3D040C2F175
:1003D00020029140084319467047202A06DBCB17BC
:1003E000203A41FA02F043EAE07306E041FA02F3F0
:1003F000D040C2F12002914008431946704710B521
:10040000141E73F1000408DA401C41F10001921837
:100410005B411A4301D120F0010010BD2DE9F04DE0
:1004200092469B4611B1B1FA81F202E0B0FA80F235
:1004300020329046FFF7B2FF04460F4640EA0A001A
:1004400041EA0B0153465A46084313D0114653EA7A
:10045000010019D0C8F140025046FFF7AEFF054633
:100460000E46504659464246FFF798FF084305D0CE
:10047000012004E020463946BDE8F08D0020054308
:1004800046EAE0762C4337430A986305E40AA0EB7A
:1004900008000022FD0A44EA47540A3002D5002031
:1004A0000146E9E7010510196941DDE90845001930
:1004B0006941BDE8F04DA2E72DE9FE4F81EA030452
:1004C00004F0004421F0004100944FF0000B23F0B1
:1004D000004350EA01045ED052EA03045BD0C3F348
:1004E0000A54C1F30A552C44A4F2F3340194A0FB3E
:1004F0000254C1F3130141F48011C3F3130343F415
:10050000801301FB024400FB034E840A970A44EA6D
:10051000815447EA8357A4FB076802958D0A05FBBF
:1005200007854FEA932C04FB0C542705029D4FEAE4
:10053000065847EA1637B5EB08056EEB070C870E31
:10054000920E47EA811742EA8312A7FB0201B6EB3B
:100550000B0164EB00042B0D43EA0C335E1844EBF3
:100560001C50DA465146E7FB0201C5F313044FEA7B
:100570000B3343EA14534FEA0432019C43EA060367
:10058000A4F10C040294009CCDE900B4FFF746FFEF
:1005900003B0BDE8F08F00200146F9E72DE9F04DEA
:1005A00081EA030404F0004B21F0004514464FF0AB
:1005B000000A23F0004150EA050220D054EA01026B
:1005C0001DD0C5F30A570246C5F31303C1F3130048
:1005D000C1F30A5640F4801543F48013A7EB0608D4
:1005E000101BD64608F2FD3873EB050002D308F164
:1005F000010801E092185B41B8F1000F03DA002016
:100600000146BDE8F08D00204FF480110646844677
:100610000EE0171B73EB050705D3121B63EB0503F5
:1006200006434CEA010C49084FEA300092185B413E
:1006300050EA0107EDD152EA030012D082EA040029
:1006400083EA0501084305D0101BAB4106D2012205
:10065000002306E000224FF0004302E06FF00102A9
:1006600053101AEB06004CEB085110EB0A0041EB5B
:100670000B01BDE8F04DFFF7C2BE70B521F000439D
:1006800003430CD0C1F30A550024D5EB040564EBF9
:100690000403D617AD1AB34102DB0020014670BD3A
:1006A000201841EB025170BD0EB5C10F80EAE07019
:1006B0000844CA07002140F233438DE80E000A4681
:1006C0000B46FFF7ABFE03B000BD000030B5041EC3
:1006D00071F1000404DB4FF00044404264EB01017F
:1006E000141E73F1000405DB1C464FF00043524218
:1006F00063EB0403994208BF904230BD064C074D9E
:1007000006E0E06840F0010394E8070098471034E1
:10071000AC42F6D3FFF74EFD302C0008502C0008F9
:100720002DE9F04D00231A461B1A8A4103DB0020F5
:100730000146BDE8F08DC1F30A52C1F3130141F443
:1007400080154FF0000BD10702D100186D41521EE9
:100750000027044640F2FF11384601EB620A3E468C
:100760008046024600204FF48011FFF726FEC21992
:100770007141BB1846EB0100B4EB030C75EB000CA8
:1007800004D3E41A65EB000517460E46241908F158
:1007900001006D4180463428E3DDF91946EB06007F
:1007A000091BA84103D24FF0FF32134601E000229B
:1007B00013461BEB070046EB0A51BDE8F04DFFF76F
:1007C0001EBE21B1826842F00102826003E08268AD
:1007D00022F00102826070470021084A1168084A2D
:1007E0001140D0E900231A4383681A43C3681A43AF
:1007F0001143044AC2F80413704700000423014067
:10080000E030FCFF0020014021B1826842F4807298
:10081000826003E0826822F480728260704721B1B6
:10082000826842F40072826003E0826822F40072FF
:100830008260704730B50246002000235068104C9B
:1008400020400D790C6844EA0524204350609068EC
:100850000C4C2040D1E903542C438D682C434D7936
:1008600044EA450420439060D06A20F470000C7D77
:10087000641EE4B2234340EA0350D06230BD00005E
:10088000FFFEFFFCFDF7FFC0F0B504460D4600205B
:100890000021092D11DDE068A5F10A0606EB4607E7
:1008A000072606FA07F18843A5F10A0606EB460675
:1008B00003FA06F10843E0600CE0206905EB450708
:1008C000072606FA07F1884305EB450603FA06F109
:1008D00008432061072A0FDA606B561E06EB860775
:1008E0001F2606FA07F18843561E06EB860605FA10
:1008F00006F10843606322E00D2A0FDA206BD61F51
:1009000006EB86071F2606FA07F18843D61F06EB7B
:10091000860605FA06F10843206310E0E06AA2F1BA
:100920000D0606EB86071F2606FA07F18843A2F19B
:100930000D0606EB860605FA06F10843E062F0BDF7
:1009400000210160017141718160C160016101217B
:100950000175704710B50849084800F055F850B1C6
:100960000021064800F044F80120054908700549B7
:10097000024800F023F810BD2080001010640240EF
:1009800024000020200000100246094B9A4201D2A8
:10099000084801E00648103801F000531BB1064B2F
:1009A0000B40C36002E0044B0B40836070470000C3
:1009B00010640240006002407D0F7D0F0246094B2B
:1009C0009A4201D2084801E00648103801F000536D
:1009D0001BB1064B0B40C36002E0044B0B4083602D
:1009E0007047000010640240006002407D0F7D0FE0
:1009F00021B1026842F00102026003E0026822F0C5
:100A0000010202607047000070B502460020002419
:100A10000025124EB24201D2114B01E00F4B103BA8
:100A2000104E0E4036B11E2606EAD124166806EA9C
:100A3000040502E0566906F0800501F000560EB18B
:100A40005C6800E01C68084E344004EA010616B1F8
:100A50000DB1012000E0002070BD000010640240D4
:100A6000006002403C0F3C0F7D0F7D0F10B501F080
:100A700080034BB122B1436943F08003436103E03B
:100A8000436923F08003436180290BD02AB10368B6
:100A900001F01E042343036004E0036801F01E0418
:100AA000A343036010BD000010B500220268134B81
:100AB0001A40CC680B6823434C6923438C69234359
:100AC000CC6923430C6A23434C6A23438C6A234337
:100AD0004C6B23438C6B23431A430260426922F020
:100AE0000702D1E90B3423431A4342610B69436087
:100AF0004B6883608B68C36010BD00003F801CF0B2
:100B000000B587B00121084600F0BEF90121102090
:100B100000F0CAF900208DF81A0001208DF81B00A2
:100B200002208DF819008DF818000002059005A923
:100B30001B4800F0D1F802208DF818004002059003
:100B400005A9174800F0C8F807220A21144800F048
:100B50000BF907220921124800F006F94FF4E130A1
:100B600001900020ADF80800ADF80A00ADF80C00C7
:100B7000ADF810000C20ADF80E0001A9094800F0F6
:100B800009FF00F014F9012240F22551054800F058
:100B9000DBFE0121034800F094FE07B000BD000019
:100BA000000002400010014010B5012000F012F8D2
:100BB00030B10121034800F015FD012000F004F8D8
:100BC00010BD0000000001400149086070470000AE
:100BD000143C014001460020034A12680A400AB151
:100BE000012000E000207047143C0140002123490F
:100BF0008279002A3AD00A46126803689A430B4663
:100C00001A600A1D126803689A430B1D1A60027964
:100C100011440A6803681A430A60184A08321268C5
:100C200003689A43154B08331A601A1D126803684B
:100C30009A43124B0C331A604279102A0ED11A1FB4
:100C4000126803681A430D4B08331A601A1D1268A4
:100C500003681A43094B0C331A600DE007494279C7
:100C600011440A6803681A430A6005E002791144D6
:100C70000A6803689A430A6070470000003C01401C
:100C80001FB50121084600F0FFF80121880300F09C
:100C90000BF900F09FF80120029000208DF80C0065
:100CA0008DF80F0002A90B4800F016F80021084645
:100CB00000F02AFA0120009000208DF8040008209E
:100CC0008DF8050001208DF806006846FFF78EFFBD
:100CD0001FBD000000000240F0B50A4600210023BD
:100CE000002400BF3DE0012505FA01F3156805EA7F
:100CF00003049C4234D105684F000326BE40B5432F
:100D0000056015794E00B5400668354305601579D4
:100D1000012D02D01579022D16D185684F000326CA
:100D2000BE40B543856055794E00B5408668354371
:100D30008560456801268E40B543456045689679D3
:100D40008E40B6B235434560C5684F000326BE40AD
:100D5000B543C560D5794E00B540C6683543C5601A
:100D6000491C1029BFD3F0BDF0B5002300244D0766
:100D7000ED0E02FA05F3CE1000F1200555F82650CD
:100D80004E07F70E0F26BE40B543CF1000F12006E8
:100D900046F82750CE1000F1200555F8265045EAB8
:100DA0000304CE1000F1200545F82640F0BD08B53B
:100DB0004FF4A06000F05EF825208DF800000120BF
:100DC0008DF801008DF802008DF80300684600F0F0
:100DD00015F808BD08B54FF4C06000F04BF80620C8
:100DE0008DF8000001208DF801008DF802008DF8CB
:100DF0000300684600F002F808BD000070B500214D
:100E000000230F22C4781CB3174C246804F4E06458
:100E1000C4F5E064C4F30721C1F10404E3B20A415C
:100E200044789C40E1B28478144021430C07210EA1
:100E30000E4C05786155047804F01F050124AC4080
:100E400005786D11AD0005F1E025C5F8004109E018
:100E5000047804F01F050124AC40054D0678761196
:100E600045F8264070BD00000CED00E000E400E015
:100E700080E100E002490143024A1160704700002E
:100E80000000FA050CED00E029B1064A12680243A1
:100E9000044B1A6004E0034A12688243014B1A6053
:100EA000704700003038024029B1064A12680243F8
:100EB000044B1A6004E0034A12688243014B1A6033
:100EC0007047000044380240F0B5002100220024A1
:100ED000022500260223324F3F6807F00C0121B1A2
:100EE000042905D0082937D105E02E4F076036E0E8
:100EF0002D4F076033E02A4F3F1F3F68C7F38056EE
:100F0000274F3F1F3F6807F03F036EB1264FB7FBE7
:100F1000F3F7DFF88CC0ACF1040CDCF800C0CCF3C4
:100F2000881C07FB0CF40CE01E4FB7FBF3F7DFF84F
:100F300070C0ACF1040CDCF800C0CCF3881C07FBDB
:100F40000CF4174F3F1F3F68C7F301477F1C7D001C
:100F5000B4FBF5F7076002E0124F076000BF00BF67
:100F60000F4F3F6807F0F0010909104F7A5C0768DE
:100F7000D74047600A4F3F6807F4E051890A0B4F9A
:100F80007A5C4768D7408760054F3F6807F4604147
:100F9000490B064F7A5C4768D740C760F0BD000038
:100FA000083802400024F40040787D01140000203D
:100FB0001CB501210420FFF767FF082000900320E3
:100FC0008DF8040000208DF8070069460148FFF7FE
:100FD00083FE1CBD0008024000B59BB001218805BE
:100FE000FFF752FF41480D9041480E9000200F90AE
:100FF00040F202401090002011904FF48060129057
:101000004000139080001490002015904FF40030A1
:1010100016900020179001201890002019901A9027
:101020000C900CA93348FFF73FFD01213148FFF731
:10103000DFFC01210802FFF737FF00200290039038
:1010400004904FF47060059002A8FFF7C5FB06A856
:10105000FFF776FC002006908DF81C008DF81D002F
:101060004FF0805008904FF06060099000200A9087
:1010700001208DF82C0006A91C484C38FFF7DAFB3C
:10108000072301220D2119484C38FFF7FDFB0121F0
:1010900016484C38FFF7C3FB38208DF804000020B9
:1010A0008DF8050003208DF8060001208DF807005B
:1010B00001A8FFF7A3FE10490E48FFF765FC0E4993
:1010C00010390C48FFF760FC012210210948FFF796
:1010D000CDFC012105484C38FFF796FB0121034860
:1010E0004C38FFF76EFB1BB000BD00004C200140E8
:1010F00030D60020106402402000001010B5FFF729
:1011000057FFFFF769FF10BD30B500228B071C0F9A
:101110000F2303FA04F20B4B8C1053F82430934343
:10112000084C8D1044F8253023468C1053F8243099
:101130008C07240F00FA04F42343024C8D1044F86A
:10114000253030BD083801400CB5002001900090DA
:101150004148006840F480303F49086000BF3E4885
:10116000006800F4003000900198401C0190009845
:1011700018B90198B0F5A04FF1D13748006800F4D4
:10118000003010B10120009001E000200090009894
:10119000012860D130484030006840F080502E492E
:1011A000403108602D48006840F440402B490860F9
:1011B0002948083000682849083108600846006856
:1011C00040F4004008600846006840F4A050086001
:1011D0002348091F0860081F006840F08070091F3D
:1011E000086000BF1C48006800F000700028F9D0BB
:1011F0001A48006840F480301849086000BF17485A
:10120000406800F480300028F9D01448006840F4A9
:1012100000301249086000BF1048406800F40030F8
:101220000028F9D040F205700E4908600A480830DD
:10123000006820F00300084908310860084600688B
:1012400040F00200086000BF03480830006800F06A
:101250000C000828F8D10CBD003802400070004096
:10126000195A4007003C024010B500F0F9FA10BDD1
:1012700030B5164800684FF47A72B0FBF2F1481EA0
:10128000B0F1807F01D301201BE0481E4FF0E02227
:10129000506150170F22002807DA13071D0E0C4B60
:1012A00000F00F04241F1D5503E013071C0E094B0B
:1012B0001C5400BF00204FF0E02290610720106115
:1012C000002008B100BFFEE730BD00000000002094
:1012D00018ED00E000E400E010B51548006840F4A7
:1012E0007000134908601348006840F0010011497C
:1012F000086000200F49083108600E4800680E4958
:1013000008400C4908600D48091D0860081F006866
:1013100020F48020091F0860002006490C31086075
:10132000FFF712FF4FF0006001498039086010BDDF
:1013300088ED00E000380240FFFFF6FE1030002488
:1013400070B58CB006460C46154601210846FFF7DD
:101350009BFD01210420FFF797FD01220821304861
:10136000FFF702FD012209212E48FFF7FDFC4FF493
:1013700080700A9002208DF82C0000208DF82E003D
:101380008DF82F0003208DF82D000AA92448FFF7BF
:10139000A3FC4FF400700A900AA92248FFF79CFCB6
:1013A00001210846FFF780FD0896ADF81C4000209B
:1013B000ADF82400ADF81E0007A91B4800F0BCF9E9
:1013C0007020ADF808000120ADF80A000495002057
:1013D000ADF8140002A9144800F042F919208DF864
:1013E000040000208DF8050003208DF80600012080
:1013F0008DF8070001A8FFF701FD01210A4800F060
:10140000EBF801221146084800F021F908210648AE
:1014100000F064F90121044800F0F0F80CB070BD50
:1014200000000240000802400000014010B5012108
:10143000234800F0FBF8002841D022480068001D36
:101440002149098850F82100012803D100201C49B6
:1014500048630AE01B480068001D1B49098850F8D2
:10146000210010B9C820164948631748008840F287
:10147000FF31884203D1C8201149486316E0124861
:101480000088B0F5806F11D1104800884FF6FE71CA
:1014900008400E4908800A4800884FF6FE7108404F
:1014A000074908804FF6FF70074908800648008802
:1014B000401C054908800121014800F090F810BD4A
:1014C00000000140380000202600002000040140F8
:1014D00070B58CB006460C46154601210420FFF776
:1014E000D3FC032206213548FFF73EFC40200A903A
:1014F00002208DF82C0000208DF82E008DF82F0092
:1015000003208DF82D000AA92C48FFF7E5FB0121E7
:101510000220FFF7C9FC0796ADF818400020ADF88F
:101520002000ADF81A008DF8220006A9244800F02A
:1015300003F94021224800F0ECF87020ADF80400D7
:101540000120ADF8060003950020ADF8100001A9B8
:101550001B4800F085F80821194800F0BFF82C203E
:101560008DF8240000208DF8250003208DF826003A
:1015700001208DF8270009A8FFF740FC0122110285
:101580000F4800F04AF801210D4800F025F801212C
:101590000B4800F033F880210A4800F0B1F8102120
:1015A000084800F0B6F80621054800F0BBF8002115
:1015B000034800F09CF80CB070BD00000008024029
:1015C000000401400000014010B50121014800F075
:1015D0002DF810BD00000140CA4302827047CA4383
:1015E0000282704721B1028842F00102028004E0C9
:1015F00002884FF6FE731A400280704731B1B0F88E
:10160000442042F40042A0F8442005E0B0F8442011
:10161000C2F30E02A0F8442070471AB183890B432D
:10162000838102E083898B438381704730B5024612
:10163000002000230024158A05EA0103958905EAA4
:10164000010413B10CB1012000E0002030BD1AB13B
:1016500083890B43838102E083898B4383817047B5
:1016600070B5002400220023058C4FF6FE7635402D
:101670000584028C8388048B4FF68F752C40B51E31
:101680002C400D882C43751E2A408D892A434D8895
:101690002A43104DA84202D00F4DA84213D14FF655
:1016A000F7752A40CD892A434FF6FB752A408D886D
:1016B0002A434FF6FF652B404FF6FF552B400D8A0E
:1016C0002B434D8A2B43838004838D6845630284BA
:1016D00070BD000000000140000401400A460021E6
:1016E000018B4FF6F77319401143018370470A4687
:1016F000002101894FF68F73194011430181704712
:1017000002894FF67F731A40028102890A430281DF
:10171000704782884FF68F731A40828082880A430E
:101720008280704702894FF6F8731A40028102895D
:101730000A4302817047000000220288184B984239
:101740000ED0184B98420BD0B0F1804F08D0164BFA
:10175000984205D0154B984202D0154B984204D1BF
:101760004FF68F731A404B881A43124B984207D09A
:10177000114B984204D04FF6FF431A400B891A438D
:1017800002804B68C3620B880385054B984202D0E8
:10179000044B984201D18B7A0386012383827047E0
:1017A0000000014000040140000400400008004027
:1017B000000C004000100040001400402DE9F047EC
:1017C0002DED048B04460D469FED1F1B9FED200B56
:1017D00000F076F9B0EE409AF0EE609A9FED1E0BA5
:1017E00053EC102B51EC190BFEF79DFD41EC180B3F
:1017F000FEF79FFD07464FF0000800BF17E0281DC9
:10180000616A40F82810D4F80090616AA0694840E5
:101810002060092605E0701E54F8200044F82600D8
:10182000761E012EF7DCC4F8049008F10108B845D3
:10183000E5DB781C2860002044F827002846BDEC32
:10184000048BBDE8F0870000000000000000244089
:101850000000000000000040000000000000F03F19
:101860000448006820B103480068401E0149086030
:1018700070470000E000002010B540F225510748F5
:1018800000F038F840B140F22551044800F00AF861
:1018900001210348FFF7A6FE10BD00000010014023
:1018A0000000014010B50022002340F66A14A14256
:1018B00000D100BF0A1201249440A3B2DC4304808B
:1018C00010BD21B1828942F40052828104E08289F4
:1018D0004DF6FF731A408281704702460020B1F531
:1018E000007F00D100BF13880B400BB1012000E046
:1018F0000020704770B50246002400230025002018
:1019000040F66A16B14200D100BFC1F3421501F0A2
:101910001F03012606FA03F3012D02D196893340F5
:1019200006E0022D02D1168A334001E0968A334048
:101930000C12012606FA04F41688344013B10CB1D7
:10194000012000E0002070BDF0B503460024002611
:101950000025002040F66A17B94200D100BF1846A2
:10196000C1F3421401F01F06012707FA06F5012C06
:1019700001D10C3004E0022C01D1103000E0143011
:101980001AB107682F43076002E00768AF4307609A
:10199000F0BD00002DE9FF4705460E460024A14694
:1019A00000BFA046B08900B100BF2C8A24F4405487
:1019B000F08804432C82AC8941F20C608443B088E7
:1019C00031890843718908430443AC81AC8A24F40B
:1019D0004074B0890443AC826846FFF775FA20482A
:1019E000854202D01F48854202D1DDF80C9001E00B
:1019F000DDF80890A88900F4004040B109EBC90067
:101A000000EB091031684900B0FBF1F707E009EB82
:101A1000C90000EB091031688900B0FBF1F76420C0
:101A2000B7FBF0F004012009642101FB1078A889BC
:101A300000F4004040B1322000EBC800B0FBF1F0F0
:101A400000F00700044308E0322000EB0810642196
:101A5000B0FBF1F000F00F0004432C81BDE8FF87DC
:101A60000010014000140140C1F308028280704759
:101A70000FB4054B10B503A9044A029800F02EFFDD
:101A800010BC5DF814FB0000492A0008E4000020A7
:101A900003B401984100009850EAC12018BF042007
:101AA0004A0D18BF40F0010040F2FF72B2EB515FE7
:101AB00008BF40F00200012808BF052002B07047AF
:101AC0002DE9F04D2DED040B2DED0E8B96B0DDE9DB
:101AD0002550279CDDF890A025F0004624F0004812
:101AE000BAF1000F14BF0121002101EB4502FC49AE
:101AF00053184A1093422AD3002814BF012300230D
:101B000003EB44030B44F7498B4220D358EA00010E
:101B10009FEDF59B76D0DFF8D8B35D4503D1BAF1E0
:101B2000000F05D188E0BAF1000F08BF002100D0F6
:101B3000012101EB450111F5001F08D8002814BF51
:101B40000121002101EB440111F5001F0BD99DED8E
:101B5000261B9DED240B16B0BDEC0E8B04B0BDE82A
:101B6000F04D00F069BE0027002DBCBFE14988455B
:101B700021DAE1498845A8BF02271CDAC3451ADCEF
:101B8000DE4901EB2851142908DDC1F1340220FAA5
:101B900002F101FA02F282420DD108E058B9C1F116
:101BA000140228FA02F101FA02F2424503D101F0CF
:101BB0000101C1F1020756EA0A0124D1002C22DA00
:101BC000002D18BF022F01D0012F0AD0022000F0F3
:101BD0007FFE16B0BDEC0E8B04B0BDE8F04D00F0FA
:101BE00013BE022000F074FE00F00EFE51EC100B4C
:101BF00081F0004141EC100B16B0BDEC0E8B04B02F
:101C0000BDE8F08D18E09FEDBEAB9FEDBF8B0028C7
:101C100071D1B848804522D105F1804010F580107F
:101C200008BFBAF1000F07D0B3450ADC002CA8BFEB
:101C30009DED260BE0DA0DE0B0EE490AF0EE690A00
:101C4000DAE7002C06DA9DED260B51EC100B81F043
:101C500000416FE0AE48784490ED000BCCE7D845EA
:101C60004DD1002C48DA2EB186423AD1BAF1000F9C
:101C700042D126E0BAF1000F13D0022000F028FE76
:101C800000F0F6FD8DED020B9DED240B8DED000BAC
:101C900010EE900A039961F31E0003909DED020B74
:101CA000AAE78DED02AB9DED240B1AEE901A10EE13
:101CB000900A8DED000B61F31E0003909DED020B69
:101CC0009AE78DED028B9DED240B18EE901A10EE25
:101CD000900A8DED000B61F31E0003909DED020B49
:101CE0008AE709DA9DED240B51EC190B53EC102B0C
:101CF000FEF754FC1EE020E09DED240B7CE78642BD
:101D00001BDAB4F1804F0DD0A4F10050B0F1FF50B8
:101D100013D1002D11DB9DED240B51EC100B00F0C5
:101D200007FF07E09DED240B53EC102B51EC100B3B
:101D300000F0C2BC41EC100B5EE79DED240B51ECB2
:101D4000100B00F075FEBAF1000FCDE90E0142D183
:101D50009FED710B46B3A6F1E040B0F17F600CD06F
:101D60005E4538D1002D00DAA7B3022F0CBF012049
:101D70004FF0FF30FEF798FCDCE7002D01DD002C72
:101D80000DDA002D01DD002C1FDB002D16DA002CF2
:101D900014DB012F08BF9FED620B3FF42DAFB0EEB7
:101DA0004A0AF0EE6A0A27E7022F18BF002D0CD06E
:101DB000012F0AD1002DFFF61FAF06E0002DB8BF9E
:101DC000002C08DA012F3FF417AFB0EE480AF0EE0E
:101DD000680A11E71BE0012000EBE57050EA0701FB
:101DE00015D0791EB0EE498AF0EE698A084308BF23
:101DF0009FED4D8B4E480025804570DD4D494E4886
:101E0000884514DDB0420DDB002C19DB2FE00120EA
:101E100000F05EFD16B0BDEC0E8B04B0BDE8F04DD9
:101E200000F016BDB34502DC002C09DC1FE0864241
:101E300002DA002C1BDA03E05E452BDD002C16DDF8
:101E4000022000F045FD00F013FD8DED020B53EC78
:101E50001A2B51EC180BFEF72FFBCDE9000103996B
:101E6000019861F31E0003909DED020BC4E6022071
:101E700000F02EFD00F00CFD10EE901A18EE900A06
:101E80008DED020B8DED008B61F31E0003909DED37
:101E9000020BB1E69DED0E0B53EC192B51EC100B20
:101EA000FEF741FA9FED260BCDE9080153EC102B0C
:101EB0009DED080B51EC100BFEF7FEFA9FED221B77
:101EC00053EC112BFEF732FA9DED081B53EC112B4E
:101ED000FEF7F2FA9FED1E1B53EC112B3CE08CE059
:101EE000FFFF1F00FFFF0F00000000000000F03F99
:101EF0000000F03F0000F07F0000404301FCFFFFC6
:101F0000000000000000F07F000000000000000062
:101F1000CE0F000000000000000000000000008064
:101F2000000000000000F0FF000000000000F0BF13
:101F30000000E0410000F043FFFFEF3F0000000021
:101F4000000000000000D03F555555555555D53F70
:101F5000000000000000E03FFEF7E8F99DED080BEF
:101F600041EC1A0B53EC102B51EC100BFEF7A4FABA
:101F700053EC1A2BFEF7A0FA41EC1A0B9FEDFE0B67
:101F800053EC102B9DED080B51EC100BFEF794FA5F
:101F900041EC1B0B9FEDFA0B51EC1A0B53EC102B81
:101FA000FEF78AFA41EC1A0B9FEDF70B53EC102B5E
:101FB0009DED080B51EC100BFEF77EFA53EC1A2B3B
:101FC000FEF7B1F941EC1A0B51EC1B0B53EC1A2B39
:101FD000FEF708F90690CDE906519DED060B53EC8E
:101FE0001B2B51EC100BFEF79EF953EC1A2BFEF74E
:101FF0009DF941EC100B00F0A1B90020B6F5801F4F
:102000000EDA9FEDE30B53EC102B9DED0E0B51EC14
:10201000100BFEF751FACDE90E016FF034000E46B9
:1020200000EB2650A0F2FF37C6F31300DA4940F068
:102030007F6646F040568842D8BF002408DDD74965
:102040008142C8BF012403DC0024A6F580167F1C52
:10205000D348784400EBC4000F9690ED00CB9DED83
:102060000E0B53EC1C2B51EC100BFEF75CF99DEDA5
:102070000E0B41EC1B0B53EC1C2B51EC100BFEF721
:10208000B1F841EC100B51EC190B53EC102BFEF78F
:1020900085FA41EC1D0B51EC1B0B53EC1D2BFEF78D
:1020A0000BFA41EC1A0BBF488DED10AB784410953C
:1020B00090ED000B4FF0005040EA660000EB8440CA
:1020C0008DED080B00F5002009909DED080B53ECF9
:1020D0001C2B51EC100BFEF726F99DED0E1B53EC5B
:1020E000112BFEF723F941EC100B53EC102B9DED57
:1020F000100B51EC100BFEF7DFF99DED080B41ECD6
:102100001C0B53EC102B9DED100B51EC100BFEF73C
:10211000D3F953EC1B2BFEF709F953EC1C2BFEF7FC
:1021200002F953EC1D2BFEF7C7F941EC1C0B53ECE5
:102130001A2B51EC1A0BFEF7BFF941EC1B0B9A4816
:102140000621B0EE4B0AF0EE6B0A784400F0E0FA9C
:10215000B0EE401AF0EE601AB0EE41DAF0EE61DA5D
:1021600053EC1B2B51EC1B0BFEF7A6F953EC1D2B6C
:10217000FEF7A2F99DED100B41EC1B0B53EC1A2B53
:1021800051EC100BFEF72EF853EC1C2BFEF794F9D4
:1021900053EC1B2BFEF726F89DED100B41EC1B0BAF
:1021A00053EC102B51EC100BFEF786F941EC1D0B94
:1021B0009FED7FEB53EC1E2BFEF714F853EC1B2B1B
:1021C000FEF710F80890CDE908519DED080B53EC8F
:1021D0001E2B51EC100BFEF7A6F853EC1D2BFEF74F
:1021E000A2F853EC1B2BFEF7A1F89DED080B41EC78
:1021F0001D0B53EC102B9DED100B51EC100BFEF74B
:102200005BF941EC1B0B53EC1A2B51EC1D0BFEF749
:1022100053F99DED080B41EC1A0B53EC102B51ECCC
:102220001C0BFEF749F953EC1A2BFDF7DBFF41ECD1
:102230001A0B51EC1B0B53EC1A2BFDF7D3FF0C9030
:10224000CDE90C519DED0C0B53EC1B2B51EC100BFD
:10225000FEF769F853EC1A2BFEF768F841EC1B0BFC
:102260009FED550B53EC102B9DED0C0B51EC100B0F
:10227000FEF722F941EC1A0B9FED510B51EC1B0BB1
:1022800053EC102BFEF718F941EC1B0B9FED4E0B96
:1022900053EC102B9DED0C0B51EC100BFEF70CF9D1
:1022A00053EC1B2BFDF79EFF41EC100B4848784484
:1022B00000EBC40090ED001B51EC100B53EC112B04
:1022C000FDF790FF41EC1B0B3846FEF7EDF9CDE929
:1022D000080153EC1B2B51EC1A0BFDF783FF41EC6B
:1022E000100B3C48784400EBC40090ED00CB51EC5F
:1022F000100B53EC1C2BFDF775FF9DED081B53ECE9
:10230000112BFDF76FFF0690CDE906519DED080BEF
:1023100053EC102B9DED060B51EC100BFEF703F860
:1023200053EC1C2BFDF7FFFF53EC1A2BFDF7FBFFC3
:1023300053EC1B2BFDF7FAFF41EC100B9DED261B18
:1023400053EC102B8DED001B00959DED260B51ECF1
:10235000100BFEF7B1F89DED000B41EC1A0B53EC9E
:10236000102B9DED260B51EC100BFDF7DCFF9DEDC6
:10237000061B53EC112B2FE0000000604715F73FC0
:10238000FE822B654715F73F44DF5DF80BAE543EE8
:1023900000000000000040438E9803007AB60B0056
:1023A0004A0B0000780B0000820A000000000000C9
:1023B0000000000000000840000000E009C7EE3FF8
:1023C000FD033ADC09C7EE3FF5015B14E02F3EBE8A
:1023D0000E090000C8080000FEF76EF853EC1A2B37
:1023E000FDF700FF9DED060B41EC1A0B53EC102B93
:1023F0009DED000B51EC100BFEF75EF8CDE90C01E2
:102400009DED0C0B51EC1A0B53EC102BFDF7EAFE73
:10241000CDE902010C46AA498C422FDB611A084320
:1024200018D19DED0C0B53EC102B9DED020B51ECD4
:10243000100BFDF778FF41EC1B0B9FEDA30B51EC4C
:102440001A0B53EC102BFDF7CDFE53EC1B2BFEF7B4
:102450003DF92DD2022000F03BFA00F009FA10EE0F
:10246000901A18EE900A8DED020B8DED008B61F342
:102470001E0003909DED020BFFF7BEBB944A24F0B3
:102480000041914214D39349214408437FF4EFACB7
:102490009DED0C0B53EC102B9DED020B51EC100B32
:1024A000FDF741FF53EC1A2BFEF710F97FF6DFAC76
:1024B00024F000408849894A002601EB20518242DD
:1024C0002BDA481C4FF4801121FA00F02044844A92
:1024D000C0F30A517A44A1F2FF3192ED000B814A18
:1024E0008DED080BCA4020EA0202C0F3130040F44D
:1024F0008010C1F1140120FA01F60992002CB8BF36
:1025000076429DED080B53EC102B9DED0C0B51EC1E
:10251000100BFDF708FFCDE90C019DED0C0B51EC04
:102520001A0B53EC102BFDF75DFE9FED6F0B08901F
:10253000CDE9085153EC102B9DED080B51EC100B1D
:10254000FDF7BAFF41EC1B0B9FED690B53EC102B11
:102550009DED080B51EC100BFDF7AEFF9DED0C0B44
:1025600041EC1C0B53EC102B9DED080B51EC100BA8
:10257000FDF7D9FE53EC1A2BFDF7D8FE9FED5E1B3D
:1025800053EC112BFDF798FF53EC1C2BFDF72AFEA3
:1025900041EC1A0B51EC1B0B53EC1A2BFDF722FEEE
:1025A000CDE902019DED020B53EC1B2B51EC100BFE
:1025B000FDF7B9FE53EC1A2BFDF7B8FE9DED020BAB
:1025C00041EC1A0B53EC102B51EC100BFDF774FF80
:1025D000CDE908014A489DED080B0521784400F03B
:1025E00097F89DED081B51EC100B53EC112BFDF7E8
:1025F00063FF9DED021B53EC112BFDF797FECDE918
:1026000006019DED020B53EC1A2B51EC100BFDF75C
:1026100053FF53EC1A2BFDF7E5FD9FED3B0B41EC0F
:102620001A0B53EC102B9DED060B51EC100BFDF724
:102630007AFE9DED060B41EC1B0B53EC102B9DED30
:10264000020B51EC100BFDF737FF53EC1B2BFDF782
:10265000A5FF53EC1A2BFDF766FE9DED021B53EC14
:10266000112BFDF760FE53EC192BFDF75FFECDE952
:10267000020101EB065001150029C8BF039015DCCB
:102680009DED020B324651EC100BFDF7F6FFFFF704
:10269000FFF9042808BF00F0FBF832469DED020B5D
:1026A00051EC100BFDF7E9FFCDE902019DED020BA6
:1026B00051EC180B53EC102BFDF7FEFEFFF73ABB65
:1026C0000000904000000000FE822B654715973CFB
:1026D00000CC904000346F3F01FCFFFF0000E03F62
:1026E00050070000FFFF0F0000000000432EE63FF0
:1026F000396CA80C615C20BEEF39FAFE422EE63F31
:102700002006000000000000000000000000004063
:1027100070B504462DED028B4D1E00EBC500B0EEEA
:10272000408AF0EE608A90ED000B35F0060017D07D
:1027300053EC182B51EC100BFDF7BEFE41EC100BC7
:102740006D1E04EBC50090ED001B51EC100B53EC1B
:10275000112BFDF747FD41EC100B35F00600E7D1DA
:10276000022D36D0042D1CD0062D1CBFBDEC028BD3
:1027700070BD53EC182B51EC100BFDF79DFE94ED42
:102780000A1B53EC112BFDF72DFD53EC182BFDF715
:1027900093FE94ED081B53EC112BFDF723FD41EC48
:1027A000100B53EC182B51EC100BFDF785FE94ED3C
:1027B000061B53EC112BFDF715FD53EC182BFDF701
:1027C0007BFE94ED040B53EC102BFDF70BFD41EC5D
:1027D000100B53EC182B51EC100BFDF76DFE94ED24
:1027E000021B53EC112BFDF7FDFC53EC182BFDF7EE
:1027F00063FE94ED001B53EC112BFDF7F3FCBDECD5
:10280000028B41EC100B70BD9FED070B10B553EC24
:10281000102B9FED070B51EC100BFDF7BFFE41ECA9
:10282000100B10BD000000000000000000000000C0
:10283000000000000000F03F10B553EC112B51ECEC
:10284000100BFDF7CFFC41EC100B10BD0000000099
:102850009FED050B10B553EC102B51EC100BFDF751
:102860009DFE41EC100B10BD0000000000000000B8
:102870009FED050B10B553EC102B51EC100BFDF731
:102880001BFE41EC100B10BD0000000000000070AA
:102890009FED050B10B553EC102B51EC100BFDF711
:1028A0000BFE41EC100B10BD0000000000000010FA
:1028B00002E008C8121F08C1002AFAD17047704709
:1028C000002001E001C1121F002AFBD17047000067
:1028D0000149086070470000E80000202DE9FF4F23
:1028E00089B09B460446002506E025280BD05A46B1
:1028F0000B999047641C6D1C20780028F5D10DB011
:102900002846BDE8F08F0027B8460122474900E07D
:10291000074314F8013F203B02FA03F00842F7D1C5
:1029200020782E2819D114F8010F47F004072A281F
:102930000ED06FF02F022078A0F1300109290CD8B9
:1029400008EB880102EB410100EB0108641CF2E78F
:102950000A98641C50F8048B0A9020780028CED086
:10296000642808D0692806D075281ED05A460B99CD
:1029700090476D1C58E00A994FF00A0901C90A9165
:10298000002802DA40422D2102E0390504D52B212E
:102990008DF82010012103E0F90704D02021F7E78A
:1029A0008A4608AE0DE00021FAE70A994FF00A09BD
:1029B00001C90A91F7E74946FDF7DAFC303106F81C
:1029C000011D0028F7D1ADEB060000F120097807C2
:1029D00001D44FF00108C84502DDA8EB090000E072
:1029E00000208046002706E008A85A46C05D0B99E3
:1029F00090476D1C7F1C5745F6DB04E030205A469B
:102A00000B9990476D1CB8F10001A8F10108F5DCA5
:102A100005E016F8010B5A460B9990476D1CB9F169
:102A20000001A9F10109F4DC641C65E70928010033
:102A300082B0CDE9000121F0004001909DED000B36
:102A400002B051EC100B704770B504460D46E1B270
:102A50000548FFF709F800BF80210348FEF73DFF56
:102A60000028F9D0204670BD0010014027480168B9
:102A70002748FEF7A3FE25490860FEF7F9FBFEF79D
:102A8000FFF8FEF73DF8FEF739FBC822B321C72057
:102A9000FEF756FC6422B321C720FEF719FD33E090
:102AA0001C48007801282FD100240AE01A4830F889
:102AB00014101AA0FEF7DCFF0020174921F81400BB
:102AC000641C40F202408442F0DB16490860012198
:102AD0001448001FFDF78CFF1348006820F0200009
:102AE00011490860C822B321C720FEF729FC6422DF
:102AF000B321C720FEF7ECFC0020064908700B4804
:102B00000088401C09490880CAE7000038000020FE
:102B1000540000202400002030D6002025640D0A37
:102B20000000000014640240002001402800002042
:102B300000B52DED048B83B041EC190BFDF7F0FDD2
:102B400041EC180B18EE100A18EE901A8DED008B60
:102B5000002818BF0120084320F00040C0F17F602A
:102B600000F1E040C00F14D019EE101A19EE900ACF
:102B70008DED009B002918BF0121084320F0004083
:102B8000C0F17F6000F1E040C00F04BF0120FFF7FB
:102B90009FFE51EC180B03B0BDEC048B00BD000090
:102BA000000000000000F03F000000000000F83FBF
:102BB00000000000000000000000004003B8E23FF9
:102BC000000000000000000006D0CF43EBFD4C3EAB
:102BD000033333333333E33FFFAB6FDBB66DDB3FA0
:102BE0004D268F515555D53F01411DA96074D13FE8
:102BF00065DBC9934A86CD3FEF4E454A287ECA3FE2
:102C00003E5555555555C53F93BDBE166CC166BF63
:102C10002CDE25AF6A56113FF16BD2C541BDBBBE5C
:102C2000D0A4BE726937663E0000000000000000BC
:102C3000502C000800000020EC000000B028000824
:102C40003C2D0008EC0000204CE10000C0280008EA
:102C50000095BA0A00000000000000000102030411
:102C60000607080900000000010203040102030432
:102C7000060708090000000001000000EC00002029
:102C80002C0100202C0200202C06002030160020F1
:102C9000305600200100000000000000000000008D
:102CA0000100000001000000000000000000000022
:102CB0000000000000000000000000000000000014
:102CC0000000000000000000010000000100000002
:102CD00000000000000000000000000000000000F4
:102CE00000000000000000000000000000000000E4
:102CF00000000000000000000100000001000000D2
:102D000000000000000000000000000000000000C3
:102D100000000000000000000000000000000000B3
:102D200000000000000000000000000001000000A2
:0C2D300000000000000000000000000097
:04000005080001AD41
:00000001FF
