:020000040800F2
:1000000018E20020C1010008C9010008CB01000866
:10001000CD010008CF010008D10100080000000058
:10002000000000000000000000000000D3010008F4
:10003000D501000800000000D7010008D901000820
:10004000DB010008DB010008DB010008DB01000820
:10005000DB010008DB010008910B0008DB01000850
:10006000DB010008DB010008DB010008DB01000800
:10007000DB010008DB010008DB010008DB010008F0
:10008000DB010008DB010008DB010008DB010008E0
:10009000DB010008DB010008DB010008DB010008D0
:1000A000DB0100087D130008DB010008DB0100080C
:1000B000DB010008DB010008DB010008DB010008B0
:1000C000DB010008DB010008DB010008DB010008A0
:1000D000DB010008DB010008DB010008DB01000890
:1000E000DB010008DB010008DB010008DB01000880
:1000F0001D150008DB010008DB010008DB0100081A
:10010000DB010008DB010008DB010008DB0100085F
:10011000DB010008DB010008DB010008DB0100084F
:1001200055090008DB010008DB010008DB010008BD
:10013000DB010008DB010008DB010008DB0100082F
:10014000DB010008DB010008DB010008DB0100081F
:10015000DB010008DB010008DB010008DB0100080F
:10016000DB010008DB010008DB010008DB010008FF
:10017000DB010008DB010008DB010008DB010008EF
:10018000DB010008DB010008DB010008DB010008DF
:10019000DB010008DB010008DB010008DB010008CF
:1001A000DB010008DB010008DB010008DFF80CD0F0
:1001B00000F0A4FA00480047E528000818E20020F3
:1001C0000648804706480047FEE7FEE7FEE7FEE7F1
:1001D000FEE7FEE7FEE7FEE7FEE7FEE7291200087E
:1001E000AD0100082DE9FE4F804681EA0300C00FF3
:1001F0000C46009021F0004123F00045B8EB0200CE
:10020000A94105D24046214690461C460B4602466F
:1002100023F00040104347D0270DC7F30A00C3F373
:100220000A510290401A019040286BDAC3F3130080
:1002300040F4801B0098924620B10023D2EB030AC1
:1002400063EB0B0B01985946C0F14002504600F099
:10025000A5F806460D4650465946019A00F0BDF8ED
:1002600010EB08006141002487EA115284EAE77329
:100270001A4340D0009A62B3019A012A4FEA07520A
:1002800015DC001B61EB02014FF0004202EA07524D
:10029000CDE90042001C41F5801132462B4600F0AA
:1002A000BDF803B0BDE8F08F40462146F9E7001BDA
:1002B00061EB0201001C41F5801300185B4120181E
:1002C000A2F5001747EB030140EAD570B6196D415E
:1002D00011E06D084FEA360645EAC0754FEA07524D
:1002E000001B61EB0201001C41F5801149084FEA37
:1002F00030000019514132462B4603B0BDE8F04FA3
:1003000000F07DB80098012240000023D0EB0202EB
:1003100063EBE073009821464FEAE074B8EB00000D
:1003200061EB0401E9E783F000435BE781F0004102
:1003300058E770B5C1F30A5201F000450024C1F33B
:10034000130140F2FF3341F480119A4201DA002098
:1003500070BD40F233439A42A2F2334203DC524270
:1003600000F02BF800E090402C43F1D0404270BDEB
:1003700030B50B46014600202022012409E021FA75
:1003800002F59D4205D303FA02F5491B04FA02F572
:100390002844151EA2F10102F1DC30BD202A04DB45
:1003A000203A00FA02F1002070479140C2F1200388
:1003B00020FA03F3194390407047202A04DB203AC7
:1003C00021FA02F00021704721FA02F3D040C2F175
:1003D00020029140084319467047202A06DBCB17BC
:1003E000203A41FA02F043EAE07306E041FA02F3F0
:1003F000D040C2F12002914008431946704710B521
:10040000141E73F1000408DA401C41F10001921837
:100410005B411A4301D120F0010010BD2DE9F04DE0
:1004200092469B4611B1B1FA81F202E0B0FA80F235
:1004300020329046FFF7B2FF04460F4640EA0A001A
:1004400041EA0B0153465A46084313D0114653EA7A
:10045000010019D0C8F140025046FFF7AEFF054633
:100460000E46504659464246FFF798FF084305D0CE
:10047000012004E020463946BDE8F08D0020054308
:1004800046EAE0762C4337430A986305E40AA0EB7A
:1004900008000022FD0A44EA47540A3002D5002031
:1004A0000146E9E7010510196941DDE90845001930
:1004B0006941BDE8F04DA2E72DE9FE4F81EA030452
:1004C00004F0004421F0004100944FF0000B23F0B1
:1004D000004350EA01045ED052EA03045BD0C3F348
:1004E0000A54C1F30A552C44A4F2F3340194A0FB3E
:1004F0000254C1F3130141F48011C3F3130343F415
:10050000801301FB024400FB034E840A970A44EA6D
:10051000815447EA8357A4FB076802958D0A05FBBF
:1005200007854FEA932C04FB0C542705029D4FEAE4
:10053000065847EA1637B5EB08056EEB070C870E31
:10054000920E47EA811742EA8312A7FB0201B6EB3B
:100550000B0164EB00042B0D43EA0C335E1844EBF3
:100560001C50DA465146E7FB0201C5F313044FEA7B
:100570000B3343EA14534FEA0432019C43EA060367
:10058000A4F10C040294009CCDE900B4FFF746FFEF
:1005900003B0BDE8F08F00200146F9E72DE9F04DEA
:1005A00081EA030404F0004B21F0004514464FF0AB
:1005B000000A23F0004150EA050220D054EA01026B
:1005C0001DD0C5F30A570246C5F31303C1F3130048
:1005D000C1F30A5640F4801543F48013A7EB0608D4
:1005E000101BD64608F2FD3873EB050002D308F164
:1005F000010801E092185B41B8F1000F03DA002016
:100600000146BDE8F08D00204FF480110646844677
:100610000EE0171B73EB050705D3121B63EB0503F5
:1006200006434CEA010C49084FEA300092185B413E
:1006300050EA0107EDD152EA030012D082EA040029
:1006400083EA0501084305D0101BAB4106D2012205
:10065000002306E000224FF0004302E06FF00102A9
:1006600053101AEB06004CEB085110EB0A0041EB5B
:100670000B01BDE8F04DFFF7C2BE70B521F000439D
:1006800003430CD0C1F30A550024D5EB040564EBF9
:100690000403D617AD1AB34102DB0020014670BD3A
:1006A000201841EB025170BD0EB5C10F80EAE07019
:1006B0000844CA07002140F233438DE80E000A4681
:1006C0000B46FFF7ABFE03B000BD000030B5041EC3
:1006D00071F1000404DB4FF00044404264EB01017F
:1006E000141E73F1000405DB1C464FF00043524218
:1006F00063EB0403994208BF904230BD064C074D9E
:1007000006E0E06840F0010394E8070098471034E1
:10071000AC42F6D3FFF74EFDA02A0008C02A00081D
:100720002DE9F04D00231A461B1A8A4103DB0020F5
:100730000146BDE8F08DC1F30A52C1F3130141F443
:1007400080154FF0000BD10702D100186D41521EE9
:100750000027044640F2FF11384601EB620A3E468C
:100760008046024600204FF48011FFF726FEC21992
:100770007141BB1846EB0100B4EB030C75EB000CA8
:1007800004D3E41A65EB000517460E46241908F158
:1007900001006D4180463428E3DDF91946EB06007F
:1007A000091BA84103D24FF0FF32134601E000229B
:1007B00013461BEB070046EB0A51BDE8F04DFFF76F
:1007C0001EBE21B1826842F00102826003E08268AD
:1007D00022F00102826070470021084A1168084A2D
:1007E0001140D0E900231A4383681A43C3681A43AF
:1007F0001143044AC2F80413704700000423014067
:10080000E030FCFF0020014021B1826842F4807298
:10081000826003E0826822F480728260704721B1B6
:10082000826842F40072826003E0826822F40072FF
:100830008260704730B50246002000235068104C9B
:1008400020400D790C6844EA0524204350609068EC
:100850000C4C2040D1E903542C438D682C434D7936
:1008600044EA450420439060D06A20F470000C7D77
:10087000641EE4B2234340EA0350D06230BD00005E
:10088000FFFEFFFCFDF7FFC0F0B504460D4600205B
:100890000021092D11DDE068A5F10A0606EB4607E7
:1008A000072606FA07F18843A5F10A0606EB460675
:1008B00003FA06F10843E0600CE0206905EB450708
:1008C000072606FA07F1884305EB450603FA06F109
:1008D00008432061072A0FDA606B561E06EB860775
:1008E0001F2606FA07F18843561E06EB860605FA10
:1008F00006F10843606322E00D2A0FDA206BD61F51
:1009000006EB86071F2606FA07F18843D61F06EB7B
:10091000860605FA06F10843206310E0E06AA2F1BA
:100920000D0606EB86071F2606FA07F18843A2F19B
:100930000D0606EB860605FA06F10843E062F0BDF7
:1009400000210160017141718160C160016101217B
:100950000175704710B50649064800F051F830B1EE
:100960000120054908700549024800F023F810BD30
:1009700020800010106402401000002020000010B1
:100980000246094B9A4201D2084801E00648103855
:1009900001F000531BB1064B0B40C36002E0044B57
:1009A0000B4083607047000010640240006002400A
:1009B0007D0F7D0F0246094B9A4201D2084801E0A3
:1009C0000648103801F000531BB1064B0B40C360C2
:1009D00002E0044B0B40836070470000106402404B
:1009E000006002407D0F7D0F21B1026842F00102DC
:1009F000026003E0026822F001020260704700001A
:100A000070B50246002000240025124EB24201D2E9
:100A1000114B01E00F4B103B104E0E4036B11E261D
:100A200006EAD124166806EA040502E0566906F0D3
:100A3000800501F000560EB15C6800E01C68084EAD
:100A4000344004EA010616B10DB1012000E0002097
:100A500070BD000010640240006002403C0F3C0F7B
:100A60007D0F7D0F10B501F080034BB122B14369BA
:100A700043F08003436103E0436923F08003436153
:100A800080290BD02AB1036801F01E0423430360C0
:100A900004E0036801F01E04A343036010BD0000DE
:100AA00010B500220268134B1A40CC680B68234330
:100AB0004C6923438C692343CC6923430C6A234349
:100AC0004C6A23438C6A23434C6B23438C6B234334
:100AD0001A430260426922F00702D1E90B34234332
:100AE0001A4342610B6943604B6883608B68C36043
:100AF00010BD00003F801CF000B587B00121084602
:100B000000F0A2F90121102000F0AEF900208DF8CC
:100B10001A0001208DF81B0002208DF819008DF8B5
:100B200018000002059005A9174800F0C9F8022036
:100B30008DF818004002059005A9134800F0C0F890
:100B400007220A21104800F003F9072209210E4864
:100B500000F0FEF84FF4E13001900020ADF80800FD
:100B6000ADF80A00ADF80C00ADF810000C20ADF89F
:100B70000E0001A9054800F047FE0121034800F0DE
:100B800029FE07B000BD0000000002400010014037
:100B900010B5012000F012F830B10121034800F037
:100BA000D1FC012000F004F810BD0000000001405D
:100BB0000149086070470000143C014001460020D4
:100BC000034A12680A400AB1012000E00020704781
:100BD000143C0140002123498279002A3AD00A4678
:100BE000126803689A430B461A600A1D126803686C
:100BF0009A430B1D1A60027911440A6803681A436C
:100C00000A60184A0832126803689A43154B083381
:100C10001A601A1D126803689A43124B0C331A604B
:100C20004279102A0ED11A1F126803681A430D4B1D
:100C300008331A601A1D126803681A43094B0C33F3
:100C40001A600DE00749427911440A6803681A43A3
:100C50000A6005E0027911440A6803689A430A6051
:100C600070470000003C01401FB50121084600F01C
:100C7000EBF80121880300F0F7F800F08CF8012070
:100C8000029000208DF80C008DF80F0002A90B488F
:100C900000F016F80021084600F016FA0120009036
:100CA00000208DF8040008208DF8050001208DF843
:100CB00006006846FFF78EFF1FBD000000000240DF
:100CC000F0B50A4600210023002400BF3DE00125C5
:100CD00005FA01F3156805EA03049C4234D105685E
:100CE0004F000326BE40B543056015794E00B54060
:100CF0000668354305601579012D02D01579022D5E
:100D000016D185684F000326BE40B54385605579EE
:100D10004E00B540866835438560456801268E40A3
:100D2000B5434560456896798E40B6B23543456017
:100D3000C5684F000326BE40B543C560D5794E0057
:100D4000B540C6683543C560491C1029BFD3F0BD06
:100D5000F0B5002300244D07ED0E02FA05F3CE1086
:100D600000F1200555F826504E07F70E0F26BE401D
:100D7000B543CF1000F1200646F82750CE1000F101
:100D8000200555F8265045EA0304CE1000F1200551
:100D900045F82640F0BD08B54FF4C06000F04AF8B1
:100DA00006208DF8000001208DF801008DF802006A
:100DB0008DF80300684600F001F808BD70B5002109
:100DC00000230F22C4781CB3174C246804F4E06499
:100DD000C4F5E064C4F30721C1F10404E3B20A419D
:100DE00044789C40E1B28478144021430C07210EE2
:100DF0000E4C05786155047804F01F050124AC40C1
:100E000005786D11AD0005F1E025C5F8004109E058
:100E1000047804F01F050124AC40054D06787611D6
:100E200045F8264070BD00000CED00E000E400E055
:100E300080E100E002490143024A1160704700006E
:100E40000000FA050CED00E029B1064A12680243E1
:100E5000044B1A6004E0034A12688243014B1A6093
:100E6000704700003038024029B1064A1268024338
:100E7000044B1A6004E0034A12688243014B1A6073
:100E80007047000044380240F0B5002100220024E1
:100E9000022500260223324F3F6807F00C0121B1E2
:100EA000042905D0082937D105E02E4F076036E028
:100EB0002D4F076033E02A4F3F1F3F68C7F380562E
:100EC000274F3F1F3F6807F03F036EB1264FB7FB28
:100ED000F3F7DFF88CC0ACF1040CDCF800C0CCF305
:100EE000881C07FB0CF40CE01E4FB7FBF3F7DFF890
:100EF00070C0ACF1040CDCF800C0CCF3881C07FB1C
:100F00000CF4174F3F1F3F68C7F301477F1C7D005C
:100F1000B4FBF5F7076002E0124F076000BF00BFA7
:100F20000F4F3F6807F0F0010909104F7A5C07681E
:100F3000D74047600A4F3F6807F4E051890A0B4FDA
:100F40007A5C4768D7408760054F3F6807F4604187
:100F5000490B064F7A5C4768D740C760F0BD000078
:100F6000083802400024F40040787D010000002091
:100F70001CB501210420FFF767FF08200090032023
:100F80008DF8040000208DF8070069460148FFF73E
:100F900097FE1CBD0008024000B59BB001218805EA
:100FA000FFF752FF41480D9041480E9000200F90EE
:100FB00040F202401090002011904FF48060129097
:100FC0004000139080001490002015904FF40030E2
:100FD00016900020179001201890002019901A9068
:100FE0000C900CA93348FFF75BFD01213148FFF756
:100FF000FBFC01210802FFF737FF0020029003905D
:1010000004904FF47060059002A8FFF7E5FB06A876
:10101000FFF796FC002006908DF81C008DF81D004F
:101020004FF0805008904FF06060099000200A90C7
:1010300001208DF82C0006A91C484C38FFF7FAFB5C
:10104000072301220D2119484C38FFF71DFC01210F
:1010500016484C38FFF7E3FB38208DF804000020D9
:101060008DF8050003208DF8060001208DF807009B
:1010700001A8FFF7A3FE10490E48FFF781FC0E49B7
:1010800010390C48FFF77CFC012210210948FFF7BA
:10109000E9FC012105484C38FFF7B6FB0121034864
:1010A0004C38FFF78EFB1BB000BD00004C20014008
:1010B00014D60020106402402000001010B5FFF785
:1010C00057FFFFF769FF10BD30B500228B071C0FDB
:1010D0000F2303FA04F20B4B8C1053F82430934384
:1010E000084C8D1044F8253023468C1053F82430DA
:1010F0008C07240F00FA04F42343024C8D1044F8AB
:10110000253030BD083801400CB50020019000901A
:101110004148006840F480303F49086000BF3E48C5
:10112000006800F4003000900198401C0190009885
:1011300018B90198B0F5A04FF1D13748006800F414
:10114000003010B10120009001E0002000900098D4
:10115000012860D130484030006840F080502E496E
:10116000403108602D48006840F440402B49086039
:101170002948083000682849083108600846006896
:1011800040F4004008600846006840F4A050086041
:101190002348091F0860081F006840F08070091F7D
:1011A000086000BF1C48006800F000700028F9D0FB
:1011B0001A48006840F480301849086000BF17489A
:1011C000406800F480300028F9D01448006840F4EA
:1011D00000301249086000BF1048406800F4003039
:1011E0000028F9D040F205700E4908600A4808301E
:1011F000006820F0030008490831086008460068CC
:1012000040F00200086000BF03480830006800F0AA
:101210000C000828F8D10CBD0038024000700040D6
:10122000195A4007003C024010B51548006840F4C8
:101230007000134908601348006840F0010011492C
:10124000086000200F49083108600E4800680E4908
:1012500008400C4908600D48091D0860081F006817
:1012600020F48020091F0860002006490C31086026
:10127000FFF74AFF4FF0006001498039086010BD58
:1012800088ED00E000380240FFFFF6FE1030002439
:1012900070B58CB006460C46154601210846FFF78E
:1012A000D3FD01210420FFF7CFFD012208213048A2
:1012B000FFF74EFD012209212E48FFF749FD4FF4AB
:1012C00080700A9002208DF82C0000208DF82E00EE
:1012D0008DF82F0003208DF82D000AA92448FFF770
:1012E000EFFC4FF400700A900AA92248FFF7E8FCCF
:1012F00001210846FFF7B8FD0896ADF81C40002014
:10130000ADF82400ADF81E0007A91B4800F0CEF987
:101310007020ADF808000120ADF80A000495002007
:10132000ADF8140002A9144800F054F919208DF802
:10133000040000208DF8050003208DF80600012030
:101340008DF8070001A8FFF739FD01210A4800F0D8
:10135000F3F801221146084800F032F90821064846
:1013600000F076F90121044800F0F8F80CB070BDE7
:1013700000000240000802400000014010B50121B9
:10138000244800F00CF9002843D023480068001DD1
:101390002249098850F82100012803D100201D4965
:1013A00048630BE01C480068001D1C49098850F880
:1013B000210018B94FF4C8701649486317480088CF
:1013C00040F2FF31884204D14FF4C870114948639C
:1013D00016E012480088B0F5806F11D110480088DF
:1013E0004FF6FE7108400E4908800A4800884FF603
:1013F000FE710840074908804FF6FF7007490880D2
:1014000006480088401C054908800121014800F079
:1014100096F810BD000001402000002012000020BE
:101420000004014070B58CB006460C4615460121FB
:101430000420FFF709FD032206213548FFF788FC49
:1014400040200A9002208DF82C0000208DF82E00FC
:101450008DF82F0003208DF82D000AA92C48FFF7E6
:101460002FFC01210220FFF7FFFC0796ADF8184082
:101470000020ADF82000ADF81A008DF8220006A972
:10148000244800F013F94021224800F0FCF87020B5
:10149000ADF804000120ADF8060003950020ADF87A
:1014A000100001A91B4800F095F80821194800F028
:1014B000CFF82C208DF8240000208DF82500032083
:1014C0008DF8260001208DF8270009A8FFF776FC8B
:1014D000012211020F4800F050F801210D4800F0E0
:1014E0002BF801210B4800F039F880210A4800F060
:1014F000C1F81021084800F0C6F80621054800F0A0
:10150000CBF80021034800F0ACF80CB070BD00002F
:1015100000080240000401400000014010B5012114
:10152000044800F033F818B10121024800F007F830
:1015300010BD000000040140CA4302827047CA4344
:101540000282704721B1028842F00102028004E069
:1015500002884FF6FE731A400280704731B1B0F82E
:10156000442042F40042A0F8442005E0B0F84420B2
:10157000C2F30E02A0F8442070471AB183890B43CE
:10158000838102E083898B43838170470246002078
:10159000138A0B400BB1012000E00020704730B5EA
:1015A0000246002000230024158A05EA01039589DC
:1015B00005EA010413B10CB1012000E0002030BDA8
:1015C0001AB183890B43838102E083898B43838132
:1015D0007047000070B5002400220023058C4FF6F0
:1015E000FE7635400584028C8388048B4FF68F7518
:1015F0002C40B51E2C400D882C43751E2A408D8929
:101600002A434D882A43104DA84202D00F4DA842CC
:1016100013D14FF6F7752A40CD892A434FF6FB7553
:101620002A408D882A434FF6FF652B404FF6FF5521
:101630002B400D8A2B434D8A2B43838004838D6876
:101640004563028470BD00000000014000040140B9
:101650000A460021018B4FF6F773194011430183AD
:1016600070470A46002101894FF68F7319401143D4
:101670000181704702894FF67F731A400281028907
:101680000A430281704782884FF68F731A40828026
:1016900082880A438280704702894FF6F8731A40A5
:1016A000028102890A4302817047000000220288F9
:1016B000184B98420ED0184B98420BD0B0F1804F87
:1016C00008D0164B984205D0154B984202D0154BC6
:1016D000984204D14FF68F731A404B881A43124B2D
:1016E000984207D0114B984204D04FF6FF431A405E
:1016F0000B891A4302804B68C3620B880385054B34
:10170000984202D0044B984201D18B7A0386012380
:101710008382704700000140000401400004004043
:1017200000080040000C0040001000400014004081
:101730002DE9F0472DED048B04460D469FED1F1B50
:101740009FED200B00F0F8F8B0EE409AF0EE609AB2
:101750009FED1E0B53EC102B51EC190BFEF7E3FD24
:1017600041EC180BFEF7E5FD07464FF0000800BFFF
:1017700017E0281D616A40F82810D4F80090616ACB
:10178000A06948402060092605E0701E54F820003A
:1017900044F82600761E012EF7DCC4F8049008F108
:1017A0000108B845E5DB781C2860002044F82700D4
:1017B0002846BDEC048BBDE8F08700000000000067
:1017C0000000244000000000000000400000000075
:1017D0000000F03F21B1828942F40052828104E08E
:1017E00082894DF6FF731A408281704702460020BD
:1017F000B1F5007F00D100BF13880B400BB1012071
:1018000000E00020704700002DE9FF4705460E4626
:101810000024A14600BFA046B08900B100BF2C8AB9
:1018200024F44054F08804432C82AC8941F20C60CB
:101830008443B08831890843718908430443AC81EB
:10184000AC8A24F44074B0890443AC826846FFF744
:101850001BFB2048854202D01F48854202D1DDF89B
:101860000C9001E0DDF80890A88900F4004040B138
:1018700009EBC90000EB091031684900B0FBF1F732
:1018800007E009EBC90000EB091031688900B0FBE3
:10189000F1F76420B7FBF0F004012009642101FB9B
:1018A0001078A88900F4004040B1322000EBC80055
:1018B000B0FBF1F000F00700044308E0322000EB39
:1018C00008106421B0FBF1F000F00F0004432C81FC
:1018D000BDE8FF870010014000140140C1F3080279
:1018E000828070470FB4054B10B503A9044A0298D3
:1018F00000F030FF10BC5DF814FB0000C1280008A8
:10190000C800002003B401984100009850EAC120AB
:1019100018BF04204A0D18BF40F0010040F2FF72CA
:10192000B2EB515F08BF40F00200012808BF05205C
:1019300002B07047000000002DE9F04D2DED040BC2
:101940002DED0E8B96B0DDE92550279CDDF890A09B
:1019500025F0004624F00048BAF1000F14BF012121
:10196000002101EB4502FC4953184A1093422AD347
:10197000002814BF0123002303EB44030B44F74961
:101980008B4220D358EA00019FEDF59B76D0DFF81B
:10199000D8B35D4503D1BAF1000F05D188E0BAF1A3
:1019A000000F08BF002100D0012101EB450111F516
:1019B000001F08D8002814BF0121002101EB4401B9
:1019C00011F5001F0BD99DED261B9DED240B16B0C4
:1019D000BDEC0E8B04B0BDE8F04D00F069BE0027F1
:1019E000002DBCBFE149884521DAE1498845A8BFFF
:1019F00002271CDAC3451ADCDE4901EB2851142901
:101A000008DDC1F1340220FA02F101FA02F2824249
:101A10000DD108E058B9C1F1140228FA02F101FA17
:101A200002F2424503D101F00101C1F1020756EA79
:101A30000A0124D1002C22DA002D18BF022F01D078
:101A4000012F0AD0022000F07FFE16B0BDEC0E8BF5
:101A500004B0BDE8F04D00F013BE022000F074FEAB
:101A600000F00EFE51EC100B81F0004141EC100B28
:101A700016B0BDEC0E8B04B0BDE8F08D18E09FED04
:101A8000BEAB9FEDBF8B002871D1B848804522D1F5
:101A900005F1804010F5801008BFBAF1000F07D0A3
:101AA000B3450ADC002CA8BF9DED260BE0DA0DE063
:101AB000B0EE490AF0EE690ADAE7002C06DA9DED8D
:101AC000260B51EC100B81F000416FE0AE487844DA
:101AD00090ED000BCCE7D8454DD1002C48DA2EB163
:101AE00086423AD1BAF1000F42D126E0BAF1000F96
:101AF00013D0022000F028FE00F0F6FD8DED020B61
:101B00009DED240B8DED000B10EE900A039961F30F
:101B10001E0003909DED020BAAE78DED02AB9DED3B
:101B2000240B1AEE901A10EE900A8DED000B61F363
:101B30001E0003909DED020B9AE78DED028B9DED4B
:101B4000240B18EE901A10EE900A8DED000B61F345
:101B50001E0003909DED020B8AE709DA9DED240B30
:101B600051EC190B53EC102BFEF718FD1EE020E092
:101B70009DED240B7CE786421BDAB4F1804F0DD03B
:101B8000A4F10050B0F1FF5013D1002D11DB9DEDF9
:101B9000240B51EC100B00F003FF07E09DED240B2C
:101BA00053EC102B51EC100B00F0C2BC41EC100BAD
:101BB0005EE79DED240B51EC100B00F075FEBAF1C1
:101BC000000FCDE90E0142D19FED710B46B3A6F196
:101BD000E040B0F17F600CD05E4538D1002D00DAD6
:101BE000A7B3022F0CBF01204FF0FF30FEF75CFDC2
:101BF000DCE7002D01DD002C0DDA002D01DD002CCD
:101C00001FDB002D16DA002C14DB012F08BF9FED1F
:101C1000620B3FF42DAFB0EE4A0AF0EE6A0A27E7F6
:101C2000022F18BF002D0CD0012F0AD1002DFFF676
:101C30001FAF06E0002DB8BF002C08DA012F3FF4DB
:101C400017AFB0EE480AF0EE680A11E71BE001207A
:101C500000EBE57050EA070115D0791EB0EE498A15
:101C6000F0EE698A084308BF9FED4D8B4E48002572
:101C7000804570DD4D494E48884514DDB0420DDB8E
:101C8000002C19DB2FE0012000F05EFD16B0BDEC4A
:101C90000E8B04B0BDE8F04D00F016BDB34502DC7C
:101CA000002C09DC1FE0864202DA002C1BDA03E07C
:101CB0005E452BDD002C16DD022000F045FD00F016
:101CC00013FD8DED020B53EC1A2B51EC180BFEF7A4
:101CD000F3FBCDE900010399019861F31E00039025
:101CE0009DED020BC4E6022000F02EFD00F00CFD7D
:101CF00010EE901A18EE900A8DED020B8DED008B10
:101D000061F31E0003909DED020BB1E69DED0E0BFD
:101D100053EC192B51EC100BFEF705FB9FED260B36
:101D2000CDE9080153EC102B9DED080B51EC100B85
:101D3000FEF7C2FB9FED221B53EC112BFEF7F6FAC8
:101D40009DED081B53EC112BFEF7B6FB9FED1E1B00
:101D500053EC112B3CE08CE0FFFF1F00FFFF0F0056
:101D6000000000000000F03F0000F03F0000F07FA6
:101D70000000404301FCFFFF000000000000F07F76
:101D80000000000000000000C60F0000000000007E
:101D90000000000000000080000000000000F0FFD4
:101DA000000000000000F0BF0000E0410000F04330
:101DB000FFFFEF3F00000000000000000000D03FE8
:101DC000555555555555D53F000000000000E03FE2
:101DD000FEF7ACFA9DED080B41EC1A0B53EC102BFF
:101DE00051EC100BFEF768FB53EC1A2BFEF764FB6B
:101DF00041EC1A0B9FEDFE0B53EC102B9DED080BE5
:101E000051EC100BFEF758FB41EC1B0B9FEDFA0B4E
:101E100051EC1A0B53EC102BFEF74EFB41EC1A0B56
:101E20009FEDF70B53EC102B9DED080B51EC100BB5
:101E3000FEF742FB53EC1A2BFEF775FA41EC1A0B36
:101E400051EC1B0B53EC1A2BFEF7CCF90690CDE9A5
:101E500006519DED060B53EC1B2B51EC100BFEF7BE
:101E600062FA53EC1A2BFEF761FA41EC100B00F00A
:101E7000A1B90020B6F5801F0EDA9FEDE30B53ECFD
:101E8000102B9DED0E0B51EC100BFEF715FBCDE961
:101E90000E016FF034000E4600EB2650A0F2FF3723
:101EA000C6F31300DA4940F07F6646F04056884298
:101EB000D8BF002408DDD7498142C8BF012403DC14
:101EC0000024A6F580167F1CD348784400EBC4009C
:101ED0000F9690ED00CB9DED0E0B53EC1C2B51ECAF
:101EE000100BFEF720FA9DED0E0B41EC1B0B53EC93
:101EF0001C2B51EC100BFEF775F941EC100B51EC5B
:101F0000190B53EC102BFEF749FB41EC1D0B51EC68
:101F10001B0B53EC1D2BFEF7CFFA41EC1A0BBF48FD
:101F20008DED10AB7844109590ED000B4FF0005004
:101F300040EA660000EB84408DED080B00F50020C0
:101F400009909DED080B53EC1C2B51EC100BFEF788
:101F5000EAF99DED0E1B53EC112BFEF7E7F941EC6E
:101F6000100B53EC102B9DED100B51EC100BFEF7EA
:101F7000A3FA9DED080B41EC1C0B53EC102B9DEDCF
:101F8000100B51EC100BFEF797FA53EC1B2BFEF7DE
:101F9000CDF953EC1C2BFEF7C6F953EC1D2BFEF7C5
:101FA0008BFA41EC1C0B53EC1A2B51EC1A0BFEF77D
:101FB00083FA41EC1B0B9A480621B0EE4B0AF0EE77
:101FC0006B0A784400F0E0FAB0EE401AF0EE601AC6
:101FD000B0EE41DAF0EE61DA53EC1B2B51EC1B0B47
:101FE000FEF76AFA53EC1D2BFEF766FA9DED100B17
:101FF00041EC1B0B53EC1A2B51EC100BFEF7F2F8D3
:1020000053EC1C2BFEF758FA53EC1B2BFEF7EAF8A7
:102010009DED100B41EC1B0B53EC102B51EC100BF6
:10202000FEF74AFA41EC1D0B9FED7FEB53EC1E2BA4
:10203000FEF7D8F853EC1B2BFEF7D4F80890CDE947
:1020400008519DED080B53EC1E2B51EC100BFEF7C5
:102050006AF953EC1D2BFEF766F953EC1B2BFEF7C8
:1020600065F99DED080B41EC1D0B53EC102B9DED1C
:10207000100B51EC100BFEF71FFA41EC1B0B53EC4D
:102080001A2B51EC1D0BFEF717FA9DED080B41ECD6
:102090001A0B53EC102B51EC1C0BFEF70DFA53EC02
:1020A0001A2BFEF79FF841EC1A0B51EC1B0B53EC6B
:1020B0001A2BFEF797F80C90CDE90C519DED0C0B07
:1020C00053EC1B2B51EC100BFEF72DF953EC1A2B94
:1020D000FEF72CF941EC1B0B9FED550B53EC102B2D
:1020E0009DED0C0B51EC100BFEF7E6F941EC1A0BD1
:1020F0009FED510B51EC1B0B53EC102BFEF7DCF951
:1021000041EC1B0B9FED4E0B53EC102B9DED0C0B7C
:1021100051EC100BFEF7D0F953EC1B2BFEF762F8D5
:1021200041EC100B4848784400EBC40090ED001BD4
:1021300051EC100B53EC112BFEF754F841EC1B0B38
:102140003846FEF7B1FACDE9080153EC1B2B51ECF0
:102150001A0BFEF747F841EC100B3C48784400EBB3
:10216000C40090ED00CB51EC100B53EC1C2BFEF790
:1021700039F89DED081B53EC112BFEF733F8069050
:10218000CDE906519DED080B53EC102B9DED060B90
:1021900051EC100BFEF7C7F853EC1C2BFEF7C3F8FD
:1021A00053EC1A2BFEF7BFF853EC1B2BFEF7BEF8CF
:1021B00041EC100B9DED261B53EC102B8DED001BFD
:1021C00000959DED260B51EC100BFEF775F99DED7A
:1021D000000B41EC1A0B53EC102B9DED260B51EC30
:1021E000100BFEF7A0F89DED061B53EC112B2FE012
:1021F000000000604715F73FFE822B654715F73F4B
:1022000044DF5DF80BAE543E000000000000404388
:102210008E9803007AB60B00420B0000700B000092
:102220007A0A0000000000000000000000000840E2
:10223000000000E009C7EE3FFD033ADC09C7EE3FAE
:10224000F5015B14E02F3EBE06090000C008000047
:10225000FEF732F953EC1A2BFDF7C4FF9DED060B88
:1022600041EC1A0B53EC102B9DED000B51EC100BB5
:10227000FEF722F9CDE90C019DED0C0B51EC1A0B88
:1022800053EC102BFDF7AEFFCDE902010C46AA4935
:102290008C422FDB611A084318D19DED0C0B53ECD7
:1022A000102B9DED020B51EC100BFEF73CF841ECAE
:1022B0001B0B9FEDA30B51EC1A0B53EC102BFDF7EE
:1022C00091FF53EC1B2BFEF701FA2DD2022000F0F8
:1022D0003BFA00F009FA10EE901A18EE900A8DED14
:1022E000020B8DED008B61F31E0003909DED020B40
:1022F000FFF7BEBB944A24F00041914214D39349A6
:10230000214408437FF4EFAC9DED0C0B53EC102BF4
:102310009DED020B51EC100BFEF705F853EC1A2B58
:10232000FEF7D4F97FF6DFAC24F000408849894AF3
:10233000002601EB205182422BDA481C4FF4801119
:1023400021FA00F02044844AC0F30A517A44A1F2F1
:10235000FF3192ED000B814A8DED080BCA4020EA57
:102360000202C0F3130040F48010C1F1140120FAFE
:1023700001F60992002CB8BF76429DED080B53EC94
:10238000102B9DED0C0B51EC100BFDF7CCFFCDE9A4
:102390000C019DED0C0B51EC1A0B53EC102BFDF7BF
:1023A00021FF9FED6F0B0890CDE9085153EC102BE6
:1023B0009DED080B51EC100BFEF77EF841EC1B0B6A
:1023C0009FED690B53EC102B9DED080B51EC100B9E
:1023D000FEF772F89DED0C0B41EC1C0B53EC102B2F
:1023E0009DED080B51EC100BFDF79DFF53EC1A2BE4
:1023F000FDF79CFF9FED5E1B53EC112BFEF75CF885
:1024000053EC1C2BFDF7EEFE41EC1A0B51EC1B0BB1
:1024100053EC1A2BFDF7E6FECDE902019DED020B10
:1024200053EC1B2B51EC100BFDF77DFF53EC1A2BDB
:10243000FDF77CFF9DED020B41EC1A0B53EC102BCA
:1024400051EC100BFEF738F8CDE908014A489DED34
:10245000080B0521784400F097F89DED081B51EC1E
:10246000100B53EC112BFEF727F89DED021B53ECDC
:10247000112BFDF75BFFCDE906019DED020B53EC3F
:102480001A2B51EC100BFEF717F853EC1A2BFDF733
:10249000A9FE9FED3B0B41EC1A0B53EC102B9DED6D
:1024A000060B51EC100BFDF73EFF9DED060B41ECCA
:1024B0001B0B53EC102B9DED020B51EC100BFDF799
:1024C000FBFF53EC1B2BFEF769F853EC1A2BFDF7BF
:1024D0002AFF9DED021B53EC112BFDF724FF53EC5B
:1024E000192BFDF723FFCDE9020101EB0650011581
:1024F0000029C8BF039015DC9DED020B324651EC5C
:10250000100BFEF7BAF8FFF7FDF9042808BF00F03A
:10251000FBF832469DED020B51EC100BFEF7ADF8C7
:10252000CDE902019DED020B51EC180B53EC102B81
:10253000FDF7C2FFFFF73ABB00009040000000002B
:10254000FE822B654715973C00CC904000346F3FCE
:1025500001FCFFFF0000E03F48070000FFFF0F0005
:1025600000000000432EE63F396CA80C615C20BEE1
:10257000EF39FAFE422EE63F180600000000000088
:10258000000000000000004070B504462DED028BF5
:102590004D1E00EBC500B0EE408AF0EE608A90ED73
:1025A000000B35F0060017D053EC182B51EC100B34
:1025B000FDF782FF41EC100B6D1E04EBC50090EDA2
:1025C000001B51EC100B53EC112BFDF70BFE41ECF3
:1025D000100B35F00600E7D1022D36D0042D1CD0AB
:1025E000062D1CBFBDEC028B70BD53EC182B51ECBB
:1025F000100BFDF761FF94ED0A1B53EC112BFDF757
:10260000F1FD53EC182BFDF757FF94ED081B53EC2D
:10261000112BFDF7E7FD41EC100B53EC182B51EC9F
:10262000100BFDF749FF94ED061B53EC112BFDF742
:10263000D9FD53EC182BFDF73FFF94ED040B53EC41
:10264000102BFDF7CFFD41EC100B53EC182B51EC88
:10265000100BFDF731FF94ED021B53EC112BFDF72E
:10266000C1FD53EC182BFDF727FF94ED001B53EC35
:10267000112BFDF7B7FDBDEC028B41EC100B70BDCB
:102680009FED070B10B553EC102B9FED070B51EC92
:10269000100BFDF783FF41EC100B10BD0000000094
:1026A0000000000000000000000000000000F03FFB
:1026B00010B553EC112B51EC100BFDF793FD41ECD1
:1026C000100B10BD000000009FED050B10B553EC82
:1026D000102B51EC100BFDF761FF41EC100B10BDFE
:1026E00000000000000000009FED050B10B553EC4A
:1026F000102B51EC100BFDF7DFFE41EC100B10BD61
:1027000000000000000000709FED050B10B553ECB9
:10271000102B51EC100BFDF7CFFE41EC100B10BD50
:10272000000000000000001002E008C8121F08C1ED
:10273000002AFAD170477047002001E001C1121F42
:10274000002AFBD170470000014908607047000073
:10275000CC0000202DE9FF4F89B09B4604460025A0
:1027600006E025280BD05A460B999047641C6D1C37
:1027700020780028F5D10DB02846BDE8F08F00275D
:10278000B8460122474900E0074314F8013F203BC7
:1027900002FA03F00842F7D120782E2819D114F854
:1027A000010F47F004072A280ED06FF02F0220787F
:1027B000A0F1300109290CD808EB880102EB410196
:1027C00000EB0108641CF2E70A98641C50F8048BC3
:1027D0000A9020780028CED0642808D0692806D036
:1027E00075281ED05A460B9990476D1C58E00A99DF
:1027F0004FF00A0901C90A91002802DA40422D214E
:1028000002E0390504D52B218DF82010012103E0C9
:10281000F90704D02021F7E78A4608AE0DE0002131
:10282000FAE70A994FF00A0901C90A91F7E7494600
:10283000FDF79EFD303106F8011D0028F7D1ADEB04
:10284000060000F12009780701D44FF00108C845BF
:1028500002DDA8EB090000E000208046002706E02A
:1028600008A85A46C05D0B9990476D1C7F1C5745C0
:10287000F6DB04E030205A460B9990476D1CB8F106
:102880000001A8F10108F5DC05E016F8010B5A4635
:102890000B9990476D1CB9F10001A9F10109F4DC15
:1028A000641C65E70928010082B0CDE9000121F030
:1028B000004001909DED000B02B051EC100B7047F1
:1028C00070B504460D46E1B20548FFF707F800BFB2
:1028D00080210348FEF78AFF0028F9D0204670BD0A
:1028E00000100140264801682648FEF721FF2449D0
:1028F0000860FEF7B9F9FEF7FFF8FEF7DFFB4FF4CB
:10290000C872B321501EFEF7C3FCC822B32140F2A7
:102910008F10FEF787FD31E01B48007801281AD19F
:10292000002406E0194830F8141019A0FEF7DAFF69
:10293000641C40F203408442F4DB002004E00021E8
:10294000124A22F81010401C40F203418842F6DB84
:1029500000200D49087040F203400F490860012132
:102960000D48001FFEF740F80C48006820F02000DA
:102970000A49086001210948FDF746FFCCE700003D
:10298000200000203C0000201000002014D6002071
:1029900025640D0A0000000014640240002001407C
:1029A00000B52DED048B83B041EC190BFDF7B8FE9B
:1029B00041EC180B18EE100A18EE901A8DED008BF2
:1029C000002818BF0120084320F00040C0F17F60BC
:1029D00000F1E040C00F14D019EE101A19EE900A61
:1029E0008DED009B002918BF0121084320F0004015
:1029F000C0F17F6000F1E040C00F04BF0120FFF78D
:102A0000A3FE51EC180B03B0BDEC048B00BD00001D
:102A1000000000000000F03F000000000000F83F50
:102A200000000000000000000000004003B8E23F8A
:102A3000000000000000000006D0CF43EBFD4C3E3C
:102A4000033333333333E33FFFAB6FDBB66DDB3F31
:102A50004D268F515555D53F01411DA96074D13F79
:102A600065DBC9934A86CD3FEF4E454A287ECA3F73
:102A70003E5555555555C53F93BDBE166CC166BFF5
:102A80002CDE25AF6A56113FF16BD2C541BDBBBEEE
:102A9000D0A4BE726937663E00000000000000004E
:102AA000C02A000800000020D000000028270008ED
:102AB000902B0008D000002048E1000038270008D3
:102AC00000000000010203040102030406070809D4
:102AD00000000000D00000201001002010020020A3
:102AE00010060020141600201456002001000000DB
:102AF00000000000000000000100000001000000D4
:102B000000000000000000000000000000000000C5
:102B100000000000000000000000000000000000B5
:102B200001000000010000000000000000000000A3
:102B30000000000000000000000000000000000095
:102B40000000000000000000000000000000000085
:102B50000100000001000000000000000000000073
:102B60000000000000000000000000000000000065
:102B70000000000000000000000000000000000055
:102B80000000000001000000000000000000000044
:04000005080001AD41
:00000001FF
