:020000040800F2
:1000000018060020C1010008CD010008CF0100083A
:10001000D1010008D3010008D5010008000000004C
:10002000000000000000000000000000D7010008F0
:10003000D901000800000000DB010008B91B00081E
:10004000DF010008DF010008DF010008DF01000810
:10005000DF010008DF010008F90D0008DF010008DA
:10006000DF010008DF010008DF010008DF010008F0
:10007000DF010008DF010008DF010008DF010008E0
:10008000DF010008DF010008DF010008DF010008D0
:10009000DF010008DF010008DF010008DF010008C0
:1000A000DF010008851D0008DF010008DF010008EE
:1000B000DF010008DF010008DF010008DF010008A0
:1000C000DF010008DF010008DF010008DF01000890
:1000D000DF010008DF010008DF010008DF01000880
:1000E000DF010008DF010008DF010008DF01000870
:1000F000091F0008DF010008DF010008DF01000818
:10010000DF010008DF010008DF010008DF0100084F
:10011000DF010008DF010008DF010008DF0100083F
:10012000250C0008DF010008DF010008DF010008DE
:10013000DF010008DF010008DF010008DF0100081F
:10014000DF010008DF010008DF010008DF0100080F
:10015000DF010008DF010008DF010008DF010008FF
:10016000DF010008DF010008DF010008DF010008EF
:10017000DF010008DF010008DF010008DF010008DF
:10018000DF010008DF010008DF010008DF010008CF
:10019000DF010008DF010008DF010008DF010008BF
:1001A000DF010008DF010008DF010008DFF80CD0E4
:1001B00000F02EFB00480047F93F00081806002019
:1001C000074880470748804707480047FEE7FEE7A3
:1001D000FEE7FEE7FEE7FEE7FEE7FEE7FEE7FEE7F7
:1001E000291C000809190008AD010008D2B201E07D
:1001F00000F8012B491EFBD270470022F6E710B52C
:1002000013460A4604461946FFF7F0FF204610BD84
:100210002DE9FE4F804681EA0300C00F0C46009096
:1002200021F0004123F00045B8EB0200A94105D2BE
:100230004046214690461C460B46024623F00040AD
:10024000104347D0270DC7F30A00C3F30A510290A9
:10025000401A019040286BDAC3F3130040F4801B6E
:100260000098924620B10023D2EB030A63EB0B0BFC
:1002700001985946C0F14002504600F00CFA06467B
:100280000D4650465946019A00F024FA10EB08003A
:100290006141002487EA115284EAE7731A4340D08F
:1002A000009A62B3019A012A4FEA075215DC001B3B
:1002B00061EB02014FF0004202EA0752CDE9004231
:1002C000001C41F5801132462B4600F024FA03B0A1
:1002D000BDE8F08F40462146F9E7001B61EB0201C3
:1002E000001C41F5801300185B412018A2F500178F
:1002F00047EB030140EAD570B6196D4111E06D0876
:100300004FEA360645EAC0754FEA0752001B61EB1B
:100310000201001C41F5801149084FEA3000001924
:10032000514132462B4603B0BDE8F04F00F0E4B92E
:100330000098012240000023D0EB020263EBE0733F
:10034000009821464FEAE074B8EB000061EB04012D
:10035000E9E783F000435BE781F0004158E72DE9CE
:10036000FE4F81EA030404F0004421F000410094B0
:100370004FF0000B23F0004350EA01045ED052EA34
:1003800003045BD0C3F30A54C1F30A552C44A4F20E
:10039000F3340194A0FB0254C1F3130141F4801122
:1003A000C3F3130343F4801301FB024400FB034E29
:1003B000840A970A44EA815447EA8357A4FB0768F2
:1003C00002958D0A05FB07854FEA932C04FB0C541C
:1003D0002705029D4FEA065847EA1637B5EB080590
:1003E0006EEB070C870E920E47EA811742EA8312E2
:1003F000A7FB0201B6EB0B0164EB00042B0D43EAF3
:100400000C335E1844EB1C50DA465146E7FB020100
:10041000C5F313044FEA0B3343EA14534FEA043293
:10042000019C43EA0603A4F10C040294009CCDE96C
:1004300000B400F070F903B0BDE8F08F0020014671
:10044000F9E72DE9F04D81EA030404F0004B21F0B7
:10045000004514464FF0000A23F0004150EA05021F
:1004600020D054EA01021DD0C5F30A570246C5F355
:100470001303C1F31300C1F30A5640F4801543F48B
:100480008013A7EB0608101BD64608F2FD3873EB65
:10049000050002D308F1010801E092185B41B8F1B0
:1004A000000F03DA00200146BDE8F08D00204FF474
:1004B0008011064684460EE0171B73EB050705D333
:1004C000121B63EB050306434CEA010C49084FEA93
:1004D000300092185B4150EA0107EDD152EA030067
:1004E00012D082EA040083EA0501084305D0101BFC
:1004F000AB4106D20122002306E000224FF0004368
:1005000002E06FF0010253101AEB06004CEB0851A9
:1005100010EB0A0041EB0B01BDE8F04D00F0ECB828
:100520000EB5C10F80EAE0700844CA07002140F20E
:1005300033438DE80E000A460B4600F0ECF803B09A
:1005400000BD70B5C1F30A5201F000450024C1F3AB
:10055000130140F2FF3341F480119A4201DA002086
:1005600070BD40F233439A42A2F2334203DC52425E
:1005700000F0A0F800E090402C43F1D0404270BD64
:1005800000F0004230F000400AD0C10D01F560716A
:10059000C0F3160042EA0151C208400711437047F8
:1005A000002001467047000030B5041E71F10004C0
:1005B00004DB4FF00044404264EB0101141E73F170
:1005C000000405DB1C464FF00043524263EB04037A
:1005D0008B4208BF824230BD30B5041E71F1000469
:1005E00004DB4FF00044404264EB0101141E73F140
:1005F000000405DB1C464FF00043524263EB04034A
:10060000994208BF904230BD30B50B4601460020EC
:100610002022012409E021FA02F59D4205D303FAC4
:1006200002F5491B04FA02F52844151EA2F1010245
:10063000F1DC30BD2DE9F05F0546002092469B4677
:1006400088460646814640241BE0284641464746E8
:10065000224600F02FF853465A46C01A914110D353
:1006600011461846224600F016F82D1A67EB0108CD
:100670004F4622460120002100F00DF817EB00093B
:100680004E41201EA4F10104DFDC484631462A46D3
:100690004346BDE8F09F202A04DB203A00FA02F12D
:1006A000002070479140C2F1200320FA03F3194360
:1006B00090407047202A04DB203A21FA02F0002102
:1006C000704721FA02F3D040C2F120029140084362
:1006D00019467047202A06DBCB17203A41FA02F070
:1006E00043EAE07306E041FA02F3D040C2F120028F
:1006F000914008431946704710B5141E73F1000469
:1007000008DA401C41F1000192185B411A4301D103
:1007100020F0010010BD2DE9F04D92469B4611B12D
:10072000B1FA81F202E0B0FA80F220329046FFF78F
:10073000B2FF04460F4640EA0A0041EA0B01534665
:100740005A46084313D0114653EA010019D0C8F1A4
:1007500040025046FFF7AEFF05460E46504659464A
:100760004246FFF798FF084305D0012004E02046E9
:100770003946BDE8F08D0020054346EAE0762C437B
:1007800037430A986305E40AA0EB08000022FD0A3B
:1007900044EA47540A3002D500200146E9E7010542
:1007A00010196941DDE9084500196941BDE8F04DBE
:1007B000A2E770B521F0004303430CD0C1F30A5502
:1007C0000024D5EB040564EB0403D617AD1AB3413E
:1007D00002DB0020014670BD201841EB025170BDC4
:1007E000C1F30A52C1F3130140F2FF3341F4801107
:1007F0009A4202DA00200146704740F233439A429F
:10080000A2F2334202DC5242FFF754BFFFF743BF6C
:10081000064C074D06E0E06840F0010394E807004D
:1008200098471034AC42F6D3FFF7C4FC904600085A
:10083000C04600082DE9F04D00231A461B1A8A41D4
:1008400003DB00200146BDE8F08DC1F30A52C1F37D
:10085000130141F480154FF0000BD10702D10018AD
:100860006D41521E0027044640F2FF11384601EB4D
:10087000620A3E468046024600204FF48011FFF790
:1008800019FFC2197141BB1846EB0100B4EB030C10
:1008900075EB000C04D3E41A65EB000517460E4611
:1008A000241908F101006D4180463428E3DDF9196F
:1008B00046EB0600091BA84103D24FF0FF32134656
:1008C00001E0002213461BEB070046EB0A51BDE88E
:1008D000F04DFFF711BF70B58C1810F8015B15F0E3
:1008E000070301D110F8013B2A1106D110F8012BA2
:1008F00003E010F8016B01F8016B5B1EF9D12B07C7
:1009000005D40023521E0DD401F8013BFAE710F87C
:10091000013BCB1A921C03E013F8015B01F8015B69
:10092000521EF9D5A142D8D3002070BD10B504469F
:1009300000F074FD204600F085FD10BD21B18268F5
:1009400042F00102826003E0826822F001028260CC
:10095000704700000021084A1168084A1140D0E998
:1009600000231A4383681A43C3681A431143044A95
:10097000C2F804137047000004230140E030FCFF7C
:100980000020014021B1826842F48072826003E05D
:10099000826822F480728260704721B1826842F4DA
:1009A0000072826003E0826822F400728260704705
:1009B00030B50246002000235068104C20400D79CD
:1009C0000C6844EA05242043506090680C4C204099
:1009D000D1E903542C438D682C434D7944EA4504F6
:1009E00020439060D06A20F470000C7D641EE4B255
:1009F000234340EA0350D06230BD0000FFFEFFFCFD
:100A0000FDF7FFC0F0B504460D4600200021092D7A
:100A100011DDE068A5F10A0606EB4607072606FA8F
:100A200007F18843A5F10A0606EB460603FA06F12C
:100A30000843E0600CE0206905EB4507072606FA4D
:100A400007F1884305EB450603FA06F108432061E8
:100A5000072A0FDA606B561E06EB86071F2606FA7A
:100A600007F18843561E06EB860605FA06F1084391
:100A7000606322E00D2A0FDA206BD61F06EB860793
:100A80001F2606FA07F18843D61F06EB860605FAED
:100A900006F10843206310E0E06AA2F10D0606EBC0
:100AA00086071F2606FA07F18843A2F10D0606EB1A
:100AB000860605FA06F10843E062F0BD00210160F8
:100AC000017141718160C16001610121017570474F
:100AD00000B587B00121084600F0ECFB0121102091
:100AE00000F018FC00208DF81A0001208DF81B0082
:100AF00002208DF819008DF818000002059005A954
:100B00001D4800F0F1FA02208DF81800400205900F
:100B100005A9194800F0E8FA07220A21164800F052
:100B20002BFB07220921144800F026FB4FF4E1308B
:100B300001900020ADF80800ADF80A00ADF80C00F7
:100B4000ADF810000C20ADF80E0001A90B4801F023
:100B500051FB012240F22441084801F026FB01220A
:100B600040F22551054801F020FB0121034801F026
:100B700003FB07B000BD0000000002400010014070
:100B800000B587B00121084600F094FB012148041C
:100B900000F0B0FB00208DF81A0001208DF81B003A
:100BA00002208DF819008DF818000420059005A981
:100BB0001A4800F099FA02208DF8180008200590D4
:100BC00005A9164800F090FA07220321134800F007
:100BD000D3FA07220221114800F0CEFA4FF4E13097
:100BE00001900020ADF80800ADF80A00ADF80C0047
:100BF000ADF810000C20ADF80E0001A9084801F076
:100C0000F9FA012240F22551054801F0CEFA0121FE
:100C1000034801F0B1FA07B000BD00000000024037
:100C20000044004010B50849084800F055F850B19C
:100C30000749064800F02AF80021044800F040F86F
:100C400002200449086010BD20800010106402409A
:100C500020000010E80100200246094B9A4201D210
:100C6000084801E00648103801F000531BB1064B5C
:100C70000B40C36002E0044B0B40836070470000F0
:100C800010640240006002407D0F7D0F0246094B58
:100C90009A4201D2084801E00648103801F000539A
:100CA0001BB1064B0B40C36002E0044B0B4083605A
:100CB0007047000010640240006002407D0F7D0F0D
:100CC00021B1026842F00102026003E0026822F0F2
:100CD000010202607047000070B502460020002447
:100CE0000025124EB24201D2114B01E00F4B103BD6
:100CF000104E0E4036B11E2606EAD124166806EACA
:100D0000040502E0566906F0800501F000560EB1B8
:100D10005C6800E01C68084E344004EA010616B125
:100D20000DB1012000E0002070BD00001064024001
:100D3000006002403C0F3C0F7D0F7D0F10B501F0AD
:100D400080034BB122B1436943F08003436103E068
:100D5000436923F08003436180290BD02AB10368E3
:100D600001F01E042343036004E0036801F01E0445
:100D7000A343036010BD000010B500220268134BAE
:100D80001A40CC680B6823434C6923438C69234386
:100D9000CC6923430C6A23434C6A23438C6A234364
:100DA0004C6B23438C6B23431A430260426922F04D
:100DB0000702D1E90B3423431A4342610B694360B4
:100DC0004B6883608B68C36010BD00003F801CF0DF
:100DD00010B500F0F4F9FFF77BFEFFF7D1FE10BD70
:100DE00001B504490098086000BF02480068002867
:100DF000FBD108BD0402002010B5012000F010F85E
:100E000028B1002002490860012000F003F810BD5D
:100E1000E80100200149086070470000143C0140CF
:100E200001460020034A12680A400AB1012000E08E
:100E300000207047143C0140002123498279002A98
:100E40003AD00A46126803689A430B461A600A1D94
:100E5000126803689A430B1D1A60027911440A68EC
:100E600003681A430A60184A0832126803689A43F2
:100E7000154B08331A601A1D126803689A43124B07
:100E80000C331A604279102A0ED11A1F12680368B7
:100E90001A430D4B08331A601A1D126803681A436F
:100EA000094B0C331A600DE00749427911440A6876
:100EB00003681A430A6005E0027911440A6803686E
:100EC0009A430A6070470000003C01401FB50121B1
:100ED000084600F0EFF90121880300F01BFA00F04A
:100EE00090F90120029000208DF80C008DF80F0081
:100EF00002A90B4800F0F8F80021084600F0ACFD0C
:100F00000120009000208DF8040008208DF80500D5
:100F100001208DF806006846FFF78EFF1FBD000018
:100F20000000024010B5024600200023102A03D121
:100F30004FF02044636E0FE0B2F5807F02D10A4C7F
:100F4000236809E0B2F5805F03D1074C20342368A1
:100F500002E0054CD434236803EA01048C4201D03A
:100F6000002000E0012010BD840000A00021D0E995
:100F700000231A4383685B1E42EA4312C36842EAB5
:100F80004321014A11607047500100A070B5002252
:100F90000021002300240568AD00A5F1C045D5F867
:100FA00040216FF30E02D0E901563543C668354340
:100FB000066935434669354386693543C669354315
:100FC000066A3543466A35432A43056835B90568DC
:100FD000AD00A5F1C045C5F8402111E03B4D2B689F
:100FE0006FF30E03D0E907563543466A35432B436A
:100FF000364D2B600568AD00A5F1C045C5F8402110
:10100000056875BB314D0835066855F8261001F0A6
:101010007041856A2D686D1E866A7668761E45EA7F
:101020000616856AAD686D1E46EA0526856AED6876
:101030006D1E46EA0536856A2D8A6D1E46EA05460E
:10104000856AAD8A6D1E46EA0556856A2D7E6D1E3F
:1010500046EA056529431D4D0835066845F8261002
:1010600032E0FFE7194D0835066855F8261001F003
:101070007041856A2D686D1E866A7668761E45EA1F
:101080000616856AAD686D1E46EA0526856A2D8AB4
:101090006D1E46EA054529430C4D08352C6804F0C1
:1010A0007044856AED686D1E2E03856AAD8A6D1EDB
:1010B00046EA05552C434FF02045C5F84841034DFD
:1010C0000835066845F8261070BD0000400100A0F4
:1010D0000449096841EA40014FF02042C2F8541126
:1010E00070470000540100A0F0B50A46002100231B
:1010F000002400BF3DE0012505FA01F3156805EA6B
:1011000003049C4234D105684F000326BE40B5431A
:10111000056015794E00B5400668354305601579C0
:10112000012D02D01579022D16D185684F000326B6
:10113000BE40B543856055794E00B540866835435D
:101140008560456801268E40B543456045689679BF
:101150008E40B6B235434560C5684F000326BE4099
:10116000B543C560D5794E00B540C6683543C56006
:10117000491C1029BFD3F0BDF0B5002300244D0752
:10118000ED0E02FA05F3CE1000F1200555F82650B9
:101190004E07F70E0F26BE40B543CF1000F12006D4
:1011A00046F82750CE1000F1200555F8265045EAA4
:1011B0000304CE1000F1200545F82640F0BD08B527
:1011C0004FF4A06000F06CF825208DF8000001209D
:1011D0008DF801008DF802008DF80300684600F0DC
:1011E00023F826208DF8000001208DF80100022050
:1011F0008DF8020001208DF80300684600F014F815
:1012000008BD08B54FF4C06000F04AF806208DF81C
:10121000000001208DF801008DF802008DF8030018
:10122000684600F001F808BD70B5002100230F22C8
:10123000C4781CB3174C246804F4E064C4F5E0647B
:10124000C4F30721C1F10404E3B20A4144789C408D
:10125000E1B28478144021430C07210E0E4C05782E
:101260006155047804F01F050124AC4005786D1128
:10127000AD0005F1E025C5F8004109E0047804F06F
:101280001F050124AC40054D0678761145F826402F
:1012900070BD00000CED00E000E400E080E100E043
:1012A00002490143024A1160704700000000FA053C
:1012B0000CED00E029B1064A12680243044B1A60A3
:1012C00004E0034A12688243014B1A607047000031
:1012D0003038024029B1064A12680243044B1A60B2
:1012E00004E0034A12688243014B1A607047000011
:1012F0003838024029B1064A12680243044B1A608A
:1013000004E0034A12688243014B1A6070470000F0
:101310004038024029B1064A12680243044B1A6061
:1013200004E0034A12688243014B1A6070470000D0
:1013300044380240F0B50021002200240225002696
:101340000223324F3F6807F00C0121B1042905D078
:10135000082937D105E02E4F076036E02D4F076092
:1013600033E02A4F3F1F3F68C7F38056274F3F1F88
:101370003F6807F03F036EB1264FB7FBF3F7DFF886
:101380008CC0ACF1040CDCF800C0CCF3881C07FB6B
:101390000CF40CE01E4FB7FBF3F7DFF870C0ACF1B4
:1013A000040CDCF800C0CCF3881C07FB0CF4174FCE
:1013B0003F1F3F68C7F301477F1C7D00B4FBF5F773
:1013C000076002E0124F076000BF00BF0F4F3F6889
:1013D00007F0F0010909104F7A5C0768D7404760B1
:1013E0000A4F3F6807F4E051890A0B4F7A5C47685F
:1013F000D7408760054F3F6807F46041490B064FAF
:101400007A5C4768D740C760F0BD000008380240EA
:101410000024F40040787D01140000201CB5012157
:101420000420FFF747FF0820009003208DF80400F8
:1014300000208DF8070069460148FFF755FE1CBDE6
:101440000008024010B59AB0044601218805FFF754
:1014500031FF40480C90404800680D9000200E90ED
:101460000F9410904FF48060119040001290C000D3
:101470001390002014904FF4003015900020169027
:10148000012017900020189019900B900BA9334859
:10149000FFF772FC01213148FFF712FC012108021D
:1014A000FFF738FF00200190029003904FF4306066
:1014B000049001A8FFF74EFA05A8FFF7FFFA0020F5
:1014C00005908DF818008DF819004FF080500790A6
:1014D0004FF0606008900020099001208DF82800EE
:1014E00005A91C484C38FFF763FA062301220D2199
:1014F00018484C38FFF786FA012116484C38FFF798
:101500004CFA17491548FFF7A7FB1549103913483E
:10151000FFF7A2FB012210211048FFF70FFC382033
:101520008DF8000000208DF8010003208DF80200E6
:1015300001208DF803006846FFF776FE012105487B
:101540004C38FFF71FFA012102484C38FFF7F6F933
:101550001AB010BD4C20014000020020106402406F
:10156000200000101CB50121FC20FFF7A3FE022083
:101570008DF804008DF8050000208DF806008DF828
:101580000700012000906946D948FFF7ADFD0C2205
:101590000021D748FFF7F0FD022000906946D448AB
:1015A000FFF7A2FD0C220121D148FFF7E5FD042041
:1015B00000906946CE48FFF797FD0C220221CC48E7
:1015C000FFF7DAFD082000906946C948FFF78CFD57
:1015D0000C220321C648FFF7CFFD1020009069467A
:1015E000C348FFF781FD0C220421C148FFF7C4FD69
:1015F000202000906946BE48FFF776FD0C220521A9
:10160000BB48FFF7B9FD4FF4805000906946B848D9
:10161000FFF76AFD0C221146B548FFF7ADFD4FF408
:10162000005000906946B248FFF75EFD0C220D2184
:10163000AF48FFF7A1FD4FF4804000906946AC48E9
:10164000FFF752FD0C220E21A948FFF795FD4FF43C
:10165000004000906946A648FFF746FD0C220F2186
:10166000A348FFF789FD012000906946A148FFF7D4
:101670003BFD0C2200219F48FFF77EFD02200090D9
:1016800069469C48FFF730FD0C2201219948FFF77D
:1016900073FD1020009069469648FFF725FD0C2247
:1016A00004219448FFF768FD202000906946914886
:1016B000FFF71AFD0C2205218E48FFF75DFD4FF460
:1016C0008040009069468C48FFF70EFD0C220E21E9
:1016D0008948FFF751FD4FF4004000906946864865
:1016E000FFF702FD0C220F218348FFF745FD012083
:1016F000009069468048FFF7F7FC0C2200217E48E5
:10170000FFF73AFD0220009069467B48FFF7ECFCAA
:101710000C2201217848FFF72FFD802000906946B8
:101720007648FFF7E1FC0C2207217448FFF724FDFF
:101730004FF48070009069467048FFF7D5FC0C228A
:1017400008216E48FFF718FD4FF4007000906946BD
:101750006A48FFF7C9FC0C2209216848FFF70CFD15
:101760004FF48060009069466448FFF7BDFC0C228E
:101770000A216248FFF700FD4FF4006000906946BF
:101780005E48FFF7B1FC0C220B215C48FFF7F4FC2C
:101790004FF48050009069465848FFF7A5FC0C2292
:1017A00011465648FFF7E8FC4FF400500090694698
:1017B0005248FFF799FC0C220D215048FFF7DCFC42
:1017C0004FF48040009069464C48FFF78DFC0C2296
:1017D0000E214A48FFF7D0FC4FF4004000906946C4
:1017E0004648FFF781FC0C220F214448FFF7C4FC58
:1017F0004FF48070009069463F48FFF775FC0C225B
:1018000008213D48FFF7B8FC4FF40070009069468E
:101810003948FFF769FC0C2209213748FFF7ACFC77
:101820004FF48060009069463348FFF75DFC0C225E
:101830000A213148FFF7A0FC40200090694630485B
:10184000FFF752FC0C2206212D48FFF795FC0120E2
:10185000009069462B48FFF747FC0C2200212948DD
:10186000FFF78AFC4FF40060009069462048FFF7BC
:101870003BFC0C220B211E48FFF77EFC4FF400407E
:10188000009069461B48FFF72FFC0C220F211948D6
:10189000FFF772FC4FF48070009069461548FFF71F
:1018A00023FC0C2208211348FFF766FC80200090DF
:1018B00069461348FFF718FC0C2207211048FFF770
:1018C0005BFC0220009069460C48FFF70DFC0C22DF
:1018D00001210A48FFF750FC0120009069460748A3
:1018E000FFF702FC0C2200210448FFF745FC1CBD59
:1018F0000014024000180240000C02400010024098
:10190000001C02400008024000B593B0FFF72AFE19
:1019100001210846FFF7DEFC02200190072002901B
:101920000420039007200490022005900690079061
:10193000012008900220099008200A9010200B90A6
:1019400040200C9080000D9000200E904FF400601D
:101950000F90400010900020119001A8129008A84C
:10196000FFF714FB00F002F813B000BD1FB5002410
:10197000012000900820019000200290039000BFF9
:1019800020210120FFF7CEFA0028F9D16846FFF7A1
:10199000EDFA0A2000F042F80220009008200190A1
:1019A00000200290039000BF20210120FFF7BAFA27
:1019B0000028F9D16846FFF7D9FA032000900820E3
:1019C0000190022002900020039000BF20210120FE
:1019D000FFF7A8FA0028F9D16846FFF7C7FA40F2E6
:1019E00022240420009008200190012002900394FA
:1019F00000BF20210120FFF795FA0028F9D16846A1
:101A0000FFF7B4FA40F26A50FFF762FB00BF2021F3
:101A10000120FFF787FA0028F9D11FBD01B581B079
:101A200000200090054901984843009002E000988A
:101A3000401E009000980028F9D10CBDA08601003E
:101A4000D0ED000AB0EE600AD1ED000AC0ED000A48
:101A500081ED000A7047000030B500228B071C0F93
:101A60000F2303FA04F20B4B8C1053F824309343EA
:101A7000084C8D1044F8253023468C1053F8243040
:101A80008C07240F00FA04F42343024C8D1044F811
:101A9000253030BD083801400CB500200190009081
:101AA0004148006840F480303F49086000BF3E482C
:101AB000006800F4003000900198401C01900098EC
:101AC00018B90198B0F5A04FF1D13748006800F47B
:101AD000003010B10120009001E00020009000983B
:101AE000012860D130484030006840F080502E49D5
:101AF000403108602D48006840F440402B490860A0
:101B000029480830006828490831086008460068FC
:101B100040F4004008600846006840F4A0500860A7
:101B20002348091F0860081F006840F08070091FE3
:101B3000086000BF1C48006800F000700028F9D061
:101B40001A48006840F480301849086000BF174800
:101B5000406800F480300028F9D01448006840F450
:101B600000301249086000BF1048406800F400309F
:101B70000028F9D040F205700E4908600A48083084
:101B8000006820F003000849083108600846006832
:101B900040F00200086000BF03480830006800F011
:101BA0000C000828F8D10CBD00380240007000403D
:101BB000195A4007003C024010B500F0D1FA10BDA0
:101BC00030B515480068154AB0FBF2F1481EB0F177
:101BD000807F01D301201BE0481E4FF0E0225061BE
:101BE00050170F22002807DA13071D0E0C4B00F0C8
:101BF0000F04241F1D5503E013071C0E094B1C5432
:101C000000BF00204FF0E02290610720106100200B
:101C100008B100BFFEE730BD0000002040420F00C9
:101C200018ED00E000E400E010B51548006840F44D
:101C30007000134908601348006840F00100114922
:101C4000086000200F49083108600E4800680E49FE
:101C500008400C4908600D48091D0860081F00680D
:101C600020F48020091F0860002006490C3108601C
:101C7000FFF712FF4FF0006001498039086010BD86
:101C800088ED00E000380240FFFFF6FE103000242F
:101C900070B58CB006460C46154601210846FFF784
:101CA00009FB01210420FFF705FB0122082132482E
:101CB000FFF762FA012209213048FFF75DFA4FF47D
:101CC00080700A9002208DF82C0000208DF82E00E4
:101CD0008DF82F0003208DF82D000AA92648FFF764
:101CE00003FA4FF400700A900AA92448FFF7FCF9A0
:101CF00001210846FFF70EFB0896ADF81C400020B6
:101D0000ADF82400ADF81E0007A91D4800F0E6F963
:101D10007020ADF808000120ADF80A0004950020FD
:101D2000ADF8140002A9164800F06CF90122114622
:101D3000134800F05EF90121114800F01FF901215C
:101D40000F4800F01EF919208DF8040000208DF8CE
:101D5000050001208DF806008DF8070001A8FFF7A7
:101D600063FA0821064800F08BF90121044800F0CD
:101D700017F90CB070BD00000000024000080240DE
:101D80000000014010B50121194800F021F970B39D
:101D90000121174800F0F5F816480068164909684F
:101DA000405C012803D100201149486302E0C820AB
:101DB0000F4948631048006810490968884202D1F9
:101DC000C8200B4948630C4801680C480068401C57
:101DD000814207D1C82006494863002201210448F6
:101DE00000F007F904480068401C0349086010BD72
:101DF0000000014040000020EC0100203C000020D9
:101E000070B58CB006460C46154601210420FFF73C
:101E100051FA032206213948FFF7AEF940200A9013
:101E200002208DF82C0000208DF82E008DF82F0058
:101E300003208DF82D000AA93048FFF755F901213C
:101E40000220FFF767FA0796ADF818400020ADF8BA
:101E50002000ADF81A008DF8220006A9284800F0ED
:101E60003DF94021264800F026F97020ADF8040025
:101E70000120ADF8060003950020ADF8100001A97F
:101E80001F4800F0BFF808211D4800F0F9F80122B2
:101E900011021B4800F093F801221146184800F087
:101EA000A8F80121164800F069F80121144800F053
:101EB00068F82C208DF8240000208DF825000220E1
:101EC0008DF8260001208DF8270009A8FFF7ACF94E
:101ED00001210B4800F064F880210A4800F0E2F884
:101EE0001021084800F0E7F80621054800F0ECF85A
:101EF0000021034800F0CDF80CB070BD000802408E
:101F0000000401400000014010B50121164800F016
:101F10005FF838B30121144800F033F81348006823
:101F20001149343108601248016812480068401CA9
:101F3000814212D110480068401C0B4934310860BE
:101F40000121094800F01AF80121074800F019F8AA
:101F500000220121044800F04CF805480068401CAC
:101F60000349086010BD000000040140300000205B
:101F7000F40100203C0000202C000020CA43028213
:101F80007047CA430282704721B1028842F00102C1
:101F9000028004E002884FF6FE731A400280704708
:101FA00031B1B0F8442042F40042A0F8442005E0EA
:101FB000B0F84420C2F30E02A0F8442070471AB1D2
:101FC00083890B43838102E083898B43838170473C
:101FD00030B50246002000230024158A05EA0103DB
:101FE000958905EA010413B10CB1012000E000203D
:101FF00030BD1AB183890B43838102E083898B430F
:102000008381704770B5002400220023058C4FF6B1
:10201000FE7635400584028C8388048B4FF68F75DD
:102020002C40B51E2C400D882C43751E2A408D89EE
:102030002A434D882A43104DA84202D00F4DA84292
:1020400013D14FF6F7752A40CD892A434FF6FB7519
:102050002A408D882A434FF6FF652B404FF6FF55E7
:102060002B400D8A2B434D8A2B43838004838D683C
:102070004563028470BD000000000140000401407F
:102080000A460021018B4FF6F77319401143018373
:1020900070470A46002101894FF68F73194011439A
:1020A0000181704702894FF67F731A4002810289CD
:1020B0000A430281704782884FF68F731A408280EC
:1020C00082880A438280704702894FF6F8731A406B
:1020D000028102890A4302817047000000220288BF
:1020E000184B98420ED0184B98420BD0B0F1804F4D
:1020F00008D0164B984205D0154B984202D0154B8C
:10210000984204D14FF68F731A404B881A43124BF2
:10211000984207D0114B984204D04FF6FF431A4023
:102120000B891A4302804B68C3620B880385054BF9
:10213000984202D0044B984201D18B7A0386012346
:102140008382704700000140000401400004004009
:1021500000080040000C0040001000400014004047
:102160000448006820B103480068401E0149086027
:10217000704700000402002021B1828942F400521D
:10218000828104E082894DF6FF731A408281704794
:1021900002460020B1F5007F00D100BF13880B403C
:1021A0000BB1012000E000207047F0B50346002489
:1021B00000260025002040F66A17B94200D100BF72
:1021C0001846C1F3421401F01F06012707FA06F56D
:1021D000012C01D10C3004E0022C01D1103000E0C0
:1021E00014301AB107682F43076002E00768AF4355
:1021F0000760F0BD2DE9FF4705460E460024A146C5
:1022000000BFA046B08900B100BF2C8A24F440541E
:10221000F08804432C82AC8941F20C608443B0887E
:1022200031890843718908430443AC81AC8A24F4A2
:102230004074B0890443AC826846FFF77BF82048BD
:10224000854202D01F48854202D1DDF80C9001E0A2
:10225000DDF80890A88900F4004040B109EBC900FE
:1022600000EB091031684900B0FBF1F707E009EB1A
:10227000C90000EB091031688900B0FBF1F7642058
:10228000B7FBF0F004012009642101FB1078A88954
:1022900000F4004040B1322000EBC800B0FBF1F088
:1022A00000F00700044308E0322000EB081064212E
:1022B000B0FBF1F000F00F0004432C81BDE8FF8774
:1022C0000010014000140140C1F3080282807047F1
:1022D0000FB4054B10B503A9044A029800F0F0FFB3
:1022E00010BC5DF814FB00004D3C00080802002003
:1022F00003B401984100009850EAC12018BF04209F
:102300004A0D18BF40F0010040F2FF72B2EB515F7E
:1023100008BF40F00200012808BF052002B0704746
:102320002DE9F04D2DED040B2DED0E8B96B0DDE972
:102330002550279CDDF890A025F0004624F00048A9
:10234000BAF1000F14BF0121002101EB4502FC4945
:1023500053184A1093422AD3002814BF01230023A4
:1023600003EB44030B44F7498B4220D358EA0001A6
:102370009FEDF59B76D0DFF8D8B35D4503D1BAF178
:10238000000F05D188E0BAF1000F08BF002100D08E
:10239000012101EB450111F5001F08D8002814BFE9
:1023A0000121002101EB440111F5001F0BD99DED26
:1023B000261B9DED240B16B0BDEC0E8B04B0BDE8C2
:1023C000F04D00F069BE0027002DBCBFE1498845F3
:1023D00021DAE1498845A8BF02271CDAC3451ADC87
:1023E000DE4901EB2851142908DDC1F1340220FA3D
:1023F00002F101FA02F282420DD108E058B9C1F1AE
:10240000140228FA02F101FA02F2424503D101F066
:102410000101C1F1020756EA0A0124D1002C22DA97
:10242000002D18BF022F01D0012F0AD0022000F08A
:102430007FFE16B0BDEC0E8B04B0BDE8F04D00F091
:1024400013BE022000F074FE00F00EFE51EC100BE3
:1024500081F0004141EC100B16B0BDEC0E8B04B0C6
:10246000BDE8F08D18E09FEDBEAB9FEDBF8B00285F
:1024700071D1B848804522D105F1804010F5801017
:1024800008BFBAF1000F07D0B3450ADC002CA8BF83
:102490009DED260BE0DA0DE0B0EE490AF0EE690A98
:1024A000DAE7002C06DA9DED260B51EC100B81F0DB
:1024B00000416FE0AE48784490ED000BCCE7D84582
:1024C0004DD1002C48DA2EB186423AD1BAF1000F34
:1024D00042D126E0BAF1000F13D0022000F028FE0E
:1024E00000F0F6FD8DED020B9DED240B8DED000B44
:1024F00010EE900A039961F31E0003909DED020B0C
:10250000AAE78DED02AB9DED240B1AEE901A10EEAA
:10251000900A8DED000B61F31E0003909DED020B00
:102520009AE78DED028B9DED240B18EE901A10EEBC
:10253000900A8DED000B61F31E0003909DED020BE0
:102540008AE709DA9DED240B51EC190B53EC102BA3
:10255000FDF777FF1EE020E09DED240B7CE786422F
:102560001BDAB4F1804F0DD0A4F10050B0F1FF5050
:1025700013D1002D11DB9DED240B51EC100B01F05C
:10258000EBFF07E09DED240B53EC102B51EC100BEF
:1025900000F0C2BC41EC100B5EE79DED240B51EC4A
:1025A000100B01F047FBBAF1000FCDE90E0142D14B
:1025B0009FED710B46B3A6F1E040B0F17F600CD007
:1025C0005E4538D1002D00DAA7B3022F0CBF0120E1
:1025D0004FF0FF30FDF7A4FFDCE7002D01DD002CFC
:1025E0000DDA002D01DD002C1FDB002D16DA002C8A
:1025F00014DB012F08BF9FED620B3FF42DAFB0EE4F
:102600004A0AF0EE6A0A27E7022F18BF002D0CD005
:10261000012F0AD1002DFFF61FAF06E0002DB8BF35
:10262000002C08DA012F3FF417AFB0EE480AF0EEA5
:10263000680A11E71BE0012000EBE57050EA070192
:1026400015D0791EB0EE498AF0EE698A084308BFBA
:102650009FED4D8B4E480025804570DD4D494E481D
:10266000884514DDB0420DDB002C19DB2FE0012082
:1026700000F05EFD16B0BDEC0E8B04B0BDE8F04D71
:1026800000F016BDB34502DC002C09DC1FE08642D9
:1026900002DA002C1BDA03E05E452BDD002C16DD90
:1026A000022000F045FD00F013FD8DED020B53EC10
:1026B0001A2B51EC180BFDF752FECDE900010399DE
:1026C000019861F31E0003909DED020BC4E6022009
:1026D00000F02EFD00F00CFD10EE901A18EE900A9E
:1026E0008DED020B8DED008B61F31E0003909DEDCF
:1026F000020BB1E69DED0E0B53EC192B51EC100BB8
:10270000FDF727FE9FED260BCDE9080153EC102BBA
:102710009DED080B51EC100BFDF721FE9FED221BE8
:1027200053EC112BFDF718FE9DED081B53EC112BFC
:10273000FDF715FE9FED1E1B53EC112B3CE08CE0CA
:10274000FFFF1F00FFFF0F00000000000000F03F30
:102750000000F03F0000F07F0000404301FCFFFF5D
:10276000000000000000F07F0000000000000000FA
:10277000CE210000000000000000000000000080EA
:10278000000000000000F0FF000000000000F0BFAB
:102790000000E0410000F043FFFFEF3F00000000B9
:1027A000000000000000D03F555555555555D53F08
:1027B000000000000000E03FFDF7CEFD9DED080B9E
:1027C00041EC1A0B53EC102B51EC100BFDF7C7FD2D
:1027D00053EC1A2BFDF7C3FD41EC1A0B9FEDFE0BDA
:1027E00053EC102B9DED080B51EC100BFDF7B7FDD2
:1027F00041EC1B0B9FEDFA0B51EC1A0B53EC102B19
:10280000FDF7ADFD41EC1A0B9FEDF70B53EC102BD0
:102810009DED080B51EC100BFDF7A1FD53EC1A2BAD
:10282000FDF797FD41EC1A0B51EC1B0B53EC1A2BE7
:10283000FDF7EEFC0690CDE906519DED060B53EC3D
:102840001B2B51EC100BFDF784FD53EC1A2BFDF7FD
:1028500083FD41EC100B00F0A1B90020B6F5801FFC
:102860000EDA9FEDE30B53EC102B9DED0E0B51ECAC
:10287000100BFDF774FDCDE90E016FF034000E462C
:1028800000EB2650A0F2FF37C6F31300DA4940F000
:102890007F6646F040568842D8BF002408DDD749FD
:1028A0008142C8BF012403DC0024A6F580167F1CEA
:1028B000D348784400EBC4000F9690ED00CB9DED1B
:1028C0000E0B53EC1C2B51EC100BFDF742FD9DED54
:1028D0000E0B41EC1B0B53EC1C2B51EC100BFDF7BA
:1028E00097FC41EC100B51EC190B53EC102BFDF73E
:1028F000A8FD41EC1D0B51EC1B0B53EC1D2BFDF700
:102900002EFD41EC1A0BBF488DED10AB78441095AD
:1029100090ED000B4FF0005040EA660000EB844061
:102920008DED080B00F5002009909DED080B53EC90
:102930001C2B51EC100BFDF70CFD9DED0E1B53EC09
:10294000112BFDF709FD41EC100B53EC102B9DED05
:10295000100B51EC100BFDF702FD9DED080B41EC47
:102960001C0B53EC102B9DED100B51EC100BFDF7D5
:10297000F6FC53EC1B2BFDF7EFFC53EC1C2BFDF787
:10298000E8FC53EC1D2BFDF7EAFC41EC1C0B53EC6F
:102990001A2B51EC1A0BFDF7E2FC41EC1B0B9A4889
:1029A0000621B0EE4B0AF0EE6B0A784400F0E0FA34
:1029B000B0EE401AF0EE601AB0EE41DAF0EE61DAF5
:1029C00053EC1B2B51EC1B0BFDF7C9FC53EC1D2BDF
:1029D000FDF7C5FC9DED100B41EC1B0B53EC1A2BC6
:1029E00051EC100BFDF714FC53EC1C2BFDF7B7FC5E
:1029F00053EC1B2BFDF70CFC9DED100B41EC1B0B5E
:102A000053EC102B51EC100BFDF7A9FC41EC1D0B06
:102A10009FED7FEB53EC1E2BFDF7FAFB53EC1B2BCA
:102A2000FDF7F6FB0890CDE908519DED080B53EC3E
:102A30001E2B51EC100BFDF78CFC53EC1D2BFDF7FE
:102A400088FC53EC1B2BFDF787FC9DED080B41EC3C
:102A50001D0B53EC102B9DED100B51EC100BFDF7E3
:102A60007EFC41EC1B0B53EC1A2B51EC1D0BFDF7BC
:102A700076FC9DED080B41EC1A0B53EC102B51EC3E
:102A80001C0BFDF76CFC53EC1A2BFDF7C1FB41EC62
:102A90001A0B51EC1B0B53EC1A2BFDF7B9FB0C90E6
:102AA000CDE90C519DED0C0B53EC1B2B51EC100B95
:102AB000FDF74FFC53EC1A2BFDF74EFC41EC1B0BC2
:102AC0009FED550B53EC102B9DED0C0B51EC100BA7
:102AD000FDF745FC41EC1A0B9FED510B51EC1B0B24
:102AE00053EC102BFDF73BFC41EC1B0B9FED4E0B09
:102AF00053EC102B9DED0C0B51EC100BFDF72FFC44
:102B000053EC1B2BFDF784FB41EC100B4848784439
:102B100000EBC40090ED001B51EC100B53EC112B9B
:102B2000FDF776FB41EC1B0B3846FDF7F9FCCDE9D0
:102B3000080153EC1B2B51EC1A0BFDF769FB41EC20
:102B4000100B3C48784400EBC40090ED00CB51ECF6
:102B5000100B53EC1C2BFDF75BFB9DED081B53EC9E
:102B6000112BFDF755FB0690CDE906519DED080BA5
:102B700053EC102B9DED060B51EC100BFDF7E9FB10
:102B800053EC1C2BFDF7E5FB53EC1A2BFDF7E1FB97
:102B900053EC1B2BFDF7E0FB41EC100B9DED261BCE
:102BA00053EC102B8DED001B00959DED260B51EC89
:102BB000100BFDF7D4FB9DED000B41EC1A0B53EC11
:102BC000102B9DED260B51EC100BFDF7C2FB9DED7C
:102BD000061B53EC112B2FE0000000604715F73F58
:102BE000FE822B654715F73F44DF5DF80BAE543E80
:102BF00000000000000040438E9803007AB60B00EE
:102C00004A1D0000781D0000821C0000000000002A
:102C10000000000000000840000000E009C7EE3F8F
:102C2000FD033ADC09C7EE3FF5015B14E02F3EBE21
:102C30000E1B0000C81A0000FDF791FB53EC1A2B85
:102C4000FDF7E6FA9DED060B41EC1A0B53EC102B49
:102C50009DED000B51EC100BFDF781FBCDE90C0154
:102C60009DED0C0B51EC1A0B53EC102BFDF7D0FA29
:102C7000CDE902010C46AA498C422FDB611A0843B8
:102C800018D19DED0C0B53EC102B9DED020B51EC6C
:102C9000100BFDF75EFB41EC1B0B9FEDA30B51EC02
:102CA0001A0B53EC102BFDF7B3FA53EC1B2BFDF76B
:102CB00093FC2DD2022000F03BFA00F009FA10EE4E
:102CC000901A18EE900A8DED020B8DED008B61F3DA
:102CD0001E0003909DED020BFFF7BEBB944A24F04B
:102CE0000041914214D39349214408437FF4EFAC4F
:102CF0009DED0C0B53EC102B9DED020B51EC100BCA
:102D0000FDF727FB53EC1A2BFDF766FC7FF6DFACD3
:102D100024F000408849894A002601EB2051824274
:102D20002BDA481C4FF4801121FA00F02044844A29
:102D3000C0F30A517A44A1F2FF3192ED000B814AAF
:102D40008DED080BCA4020EA0202C0F3130040F4E4
:102D50008010C1F1140120FA01F60992002CB8BFCD
:102D600076429DED080B53EC102B9DED0C0B51ECB6
:102D7000100BFDF7EEFACDE90C019DED0C0B51ECBB
:102D80001A0B53EC102BFDF743FA9FED6F0B0890D5
:102D9000CDE9085153EC102B9DED080B51EC100BB5
:102DA000FDF7DDFA41EC1B0B9FED690B53EC102B8B
:102DB0009DED080B51EC100BFDF7D1FA9DED0C0BBE
:102DC00041EC1C0B53EC102B9DED080B51EC100B40
:102DD000FDF7BFFA53EC1A2BFDF7BEFA9FED5E1B11
:102DE00053EC112BFDF7BBFA53EC1C2BFDF710FA3B
:102DF00041EC1A0B51EC1B0B53EC1A2BFDF708FAA4
:102E0000CDE902019DED020B53EC1B2B51EC100B95
:102E1000FDF79FFA53EC1A2BFDF79EFA9DED020B7E
:102E200041EC1A0B53EC102B51EC100BFDF797FAF9
:102E3000CDE908014A489DED080B0521784400F0D2
:102E400097F89DED081B51EC100B53EC112BFDF77F
:102E500086FA9DED021B53EC112BFDF77DFACDE9AF
:102E600006019DED020B53EC1A2B51EC100BFDF7F4
:102E700076FA53EC1A2BFDF7CBF99FED3B0B41ECA7
:102E80001A0B53EC102B9DED060B51EC100BFDF7BC
:102E900060FA9DED060B41EC1B0B53EC102B9DEDE6
:102EA000020B51EC100BFDF75AFA53EC1B2BFDF7FC
:102EB000C8FA53EC1A2BFDF74CFA9DED021B53ECAC
:102EC000112BFDF746FA53EC192BFDF745FACDE926
:102ED000020101EB065001150029C8BF039015DC63
:102EE0009DED020B324651EC100BFDF762FCFFF733
:102EF000FFF9042808BF00F0FBF832469DED020BF5
:102F000051EC100BFDF755FCCDE902019DED020BD4
:102F100051EC180B53EC102BFDF721FAFFF73ABBDD
:102F20000000904000000000FE822B654715973C92
:102F300000CC904000346F3F01FCFFFF0000E03FF9
:102F400050190000FFFF0F0000000000432EE63F75
:102F5000396CA80C615C20BEEF39FAFE422EE63FC8
:102F600020180000000000000000000000000040E9
:102F700070B504462DED028B4D1E00EBC500B0EE82
:102F8000408AF0EE608A90ED000B35F0060017D015
:102F900053EC182B51EC100BFDF7E1F941EC100B41
:102FA0006D1E04EBC50090ED001B51EC100B53ECB3
:102FB000112BFDF72DF941EC100B35F00600E7D190
:102FC000022D36D0042D1CD0062D1CBFBDEC028B6B
:102FD00070BD53EC182B51EC100BFDF7C0F994EDBC
:102FE0000A1B53EC112BFDF713F953EC182BFDF7CB
:102FF000B6F994ED081B53EC112BFDF709F941ECE0
:10300000100B53EC182B51EC100BFDF7A8F994EDB5
:10301000061B53EC112BFDF7FBF853EC182BFDF7B7
:103020009EF994ED040B53EC102BFDF7F1F841ECF5
:10303000100B53EC182B51EC100BFDF790F994ED9D
:10304000021B53EC112BFDF7E3F853EC182BFDF7A3
:1030500086F994ED001B53EC112BFDF7D9F8BDEC6C
:10306000028B41EC100B70BD9FED070B10B553ECBC
:10307000102B9FED070B51EC100BFDF7E2F941EC23
:10308000100B10BD00000000000000000000000058
:10309000000000000000F03F10B553EC112B51EC84
:1030A000100BFDF7B5F841EC100B10BD000000004F
:1030B0009FED050B10B553EC102B51EC100BFDF7E9
:1030C000C0F941EC100B10BD000000000000000032
:1030D0009FED050B10B553EC102B51EC100BFDF7C9
:1030E0003EF941EC100B10BD000000000000007024
:1030F0009FED050B10B553EC102B51EC100BFDF7A9
:103100002EF941EC100B10BD000000000000001073
:1031100002E008C8121F08C1002AFAD170477047A0
:10312000002001E001C1121F002AFBD170470000FE
:103130000149086070470000140200202DE9FF5F7C
:1031400082B00021DDE90430020DDDF840B0034318
:1031500018D044F61050A2F2FF32424315141198D1
:1031600001281FD0A5EB0B00401C5FEA000A4FF0BE
:1031700000064E4FDFF83891B046504615D5CAF1DB
:10318000000413E0119801244AA3012801D16FEA39
:103190000B010298119AC0E90031C0E9024206B061
:1031A000BDE8F09FCBF10000DFE704460021404A74
:1031B000491842EB0450CDE9001012E0E00707D0B7
:1031C00032463B4640464946FDF7C9F880468946A7
:1031D00032463B4610461946FDF7C1F806460F46F3
:1031E0006410002CEAD1DDE90401DDE90023BAF125
:1031F000000F06DAFDF7B3F842464B46FDF7AFF88D
:1032000005E0FDF71EF942464B46FDF71AF9044664
:103210000E460022284BFDF7DFF903D84FF0FF30B0
:10322000014607E00022254B20463146FCF7F0FF1F
:10323000FDF7D6FA102409E0002C0ADB0A2200234D
:10324000FDF7F8F9039B30321A55641E50EA01026B
:10325000F2D1641C039AC4F111031444119A012A97
:1032600003D0012208430DD10AE0084304D0002016
:103270004FF0110B119072E7A3EB0B056D1E0DE0E3
:103280005B4504DD4FF0000205F1010504E003DABF
:103290004FF00002A5F10105002AECD00298119927
:1032A000C0E90231C0E9004579E7000000001440A0
:1032B0000000F03F300000000000F0430000E03F5D
:1032C0002DE9FF4F95B09B468946064600250FE243
:1032D000252877D100242746F84A0121059400E0EB
:1032E000044316F8013F203B01FA03F01042F7D1E6
:1032F00030782A2811D06FF02F033078A0F13002F7
:10330000092A16D8059A44F0020402EB820203EB64
:1033100042021044761C0590EFE759F8042B059201
:10332000002A03DA504244F40054059044F00204A9
:10333000761C30782E2816D116F8010F44F00404BC
:103340002A280DD06FF02F023078A0F13003092B1E
:1033500009D807EB870302EB4303C718761CF3E792
:1033600059F8047B761C30786C280FD006DC4C288A
:1033700017D068280DD06A2814D104E0742810D022
:103380007A280FD10DE044F400140AE044F48014CC
:1033900001E044F440147278824202D104F58014B2
:1033A000761C761C307866280BD013DC582877D032
:1033B00009DC002875D04528F6D04628F4D04728E7
:1033C0001AD19DE118E0632835D0642879D06528AA
:1033D00012D195E1702873D008DC6728F1D06928F4
:1033E0006FD06E280DD06F2806D1B5E073282CD091
:1033F000752875D0782874D05A46179990476D1C57
:1034000075E1C4F30250022809D003280DD0D9F881
:10341000001004280DD00D6009F1040967E1D9F806
:103420000010EA17C1E90052F6E7D9F800100D8044
:10343000F2E70D70F0E719F8041B8DF8001000207A
:103440008DF80100EA46012003E059F804AB4FF083
:10345000FF3061074FF0000102D40DE008F10101D7
:103460008846B9420FDA8045F8DB1AF808100029BF
:10347000F4D108E008F1010188468142FADB1AF82C
:1034800008100029F6D105985B46A0EB08072146F5
:103490003846179A00F094FA284400EB080507E034
:1034A0004DE029E10DE01AF8010B5A4617999047B3
:1034B000B8F10108F7D25B4621463846179A13E166
:1034C00042E00A220092C4F302524FF0000A022A9C
:1034D00008D059F804CB032A4FEAEC710AD00DE06A
:1034E00029E02AE009F1070121F00702F2E802C110
:1034F000914609E00FFA8CFC4FEAEC71042A03D1E3
:103500004FFA8CFC4FEAEC71002907DA0A460021D9
:10351000DCF1000C61EB02012D2202E0220504D552
:103520002B228DF80420012203E0E20701D02022A3
:10353000F7E7904659E00A2102E010220DE0102141
:103540004FF0000A00910BE010224FF0000A44F007
:1035500004040827009203E008224FF0000A0092BA
:10356000C4F30252022A05D059F804CB0021032AE1
:1035700008D009E009F1070121F00702F2E802C1D1
:10358000914605E01FFA8CFC042A01D10CF0FF0CD7
:103590004FF00008220728D5702806D0009B83F042
:1035A000100353EA0A0305D00EE040228DF80420F0
:1035B000012208E05CEA010206D030228DF80420E6
:1035C0008DF8050002229046009B83F0080353EA21
:1035D0000A030AD15CEA010201D1620705D5302253
:1035E0008DF804204FF001087F1E582804D034A025
:1035F00003900EA802900DE036A0F9E7534660460E
:10360000009AFDF717F884460398825C0298401EE2
:10361000029002705CEA0100F0D1029806A9081A33
:1036200000F1200A600702D524F4803400E001276D
:10363000574502DDA7EB0A0000E0002000EB0A017D
:10364000009005984144401A0590E00306D45B467B
:103650002146179A059800F0B3F90544002706E0C3
:1036600001A85A46C05D179990476D1C7F1C4745BD
:10367000F6DBE0030CD55B462146179A059800F06F
:103680009FF9054404E030205A46179990476D1C75
:103690000099481E00900029F5DC08E00298029984
:1036A0005A460078491C0291179990476D1CBAF14F
:1036B0000001AAF1010AF1DC65E10000092801001E
:1036C0003031323334353637383961626364656698
:1036D000000000003031323334353637383941425A
:1036E000434445460000000000F058F90544761CAC
:1036F000307800287FF4ECAD19B02846BDE8F08F93
:10370000620700D4062709F1070222F0070CFCE843
:103710000223E14603F000485FEA080C02D00FF2F2
:10372000702C0DE05FEA045C02D50FF2682C07E014
:103730005FEAC47C02D00FF2602C01E0AFF2700CA3
:103740004FF0FF3823F00043CDF850C065280CD06F
:1037500006DC452809D046281DD047283DD13DE04C
:10376000662818D067287ED138E00021112F01DBB0
:10377000112000E0781CCDE9000106A90EA8FFF792
:10378000DDFCDDE90F010E9A03910021009207F1A3
:10379000010A04914DE04FF000400097CDE901107F
:1037A00006A90EA8FFF7CAFCDDE90F0203920E9BE3
:1037B00011990022DDF80CA00093049211B9791C34
:1037C00000EB010AB7EB0A0004D4C0F1FF3007F1A7
:1037D000010A0490AAEB0700019044E0012F00DAEF
:1037E00001270021112F01DD112000E03846CDE92D
:1037F000000106A90EA8FFF7A1FCDDE90F010E9A52
:103800000391002104910092BA4621070CD4039938
:10381000514500DA8A46BAF1010F05DD009AAAF196
:103820000101515C302908D0B84202DA10F1040FCE
:1038300006DA0121CDE9011015E0AAF10101E9E75D
:10384000002805DC049901440491AAEB000102E080
:10385000411C514500DD8A460499401A401C0190E4
:103860004FF000400290200704D40198504501DB3E
:10387000CDF8048000208DF84F0002980DF14F071D
:10388000B0F1004F25D02B200E9002984FF0020887
:1038900000280CDA404202902D200E9007E00A2109
:1038A0000298FCF7B1FE3031029007F8011DB8F123
:1038B0000001A8F10108F2DC02980028EFD1791E7E
:1038C0000E980870307800F0200040F0450007F8AE
:1038D000020D12A8C01B00F107081498007800B16F
:1038E000012000EB0A01019801EBE07105984144C9
:1038F000401A401E0590E00306D45B462146179A05
:10390000059800F05DF805441498007818B15A46FF
:10391000179990476D1CE00324D55B462146179A02
:10392000059800F04DF805441CE00498002807DBDA
:10393000DDE90301884203DD0098405C179901E04E
:10394000179930205A469047049805F10105401C0C
:1039500004900198401E019004D12E205A461799D8
:1039600090476D1CBAF10001AAF1010ADDDC05E007
:1039700017F8010B5A46179990476D1CB8F10001D2
:10398000A8F10108F4DC5B462146179A0598ABE6DE
:103990002D0000002B000000200000002DE9F04168
:1039A000044600251E461746880404D405E039461F
:1039B0002020B0476D1C641EF9D52846BDE8F08173
:1039C0002DE9F041044600251E469046C80301D566
:1039D000302700E02027880404D505E0414638461A
:1039E000B0476D1C641EF9D52846BDE8F081018002
:1039F000428043607047000030B50B46002419E058
:103A0000D0ED000AB0EE600A002109E04D1C00EB89
:103A10008505D5ED000A00EB8105C5ED000A491CBE
:103A20009942F3DBDFED050A5D1E00EB8505C5ED70
:103A3000000A641C9442E3DB30BD0000000000007B
:103A400010B504460020264908602649086026482B
:103A50000068B0B92046FCF769FF24490988491C71
:103A60008AB22249098888B2B321FEF711F92049A8
:103A700009888AB21F49098888B2B321FEF7C0F9C4
:103A800029E001211C48FEF779FA01211A48FEF7C6
:103A900078FA01211948FEF771FA01211748FEF75B
:103AA00070FA174804600121001FFDF709F9154855
:103AB000006820F020001349086001211148FCF73C
:103AC00061FF012211460C48FEF793FA01221146CC
:103AD0000A48FEF78EFA01210848FEF755FA10BD94
:103AE000EC010020F4010020E4010020340000205B
:103AF000300000202C0000200004014000000140A4
:103B000014640240002001402DE9F05F80468946A0
:103B10009246DDE90A5B08FB05F1880000F0E4FB52
:103B2000074617B920A0FEF7D3FB002436E0002695
:103B300031E09FED250A04FB05F107EB810101EB64
:103B4000860181ED000A002022E004FB05F107EB6D
:103B5000810101EB860191ED000A04FB09F10AEBFA
:103B6000810101EB8001D1ED000A00FB05F10BEBB7
:103B7000810101EB860191ED001A00EE810A04FB40
:103B800005F107EB810101EB860181ED000A401C84
:103B90004845DADB761CAE42CBDB641C4445C6DB11
:103BA0003846BDE8F09F0000726573207050726265
:103BB0007320616C6C6F63617465206661696C75FC
:103BC00072650D0A000000000000000030B50546D7
:103BD0000C469FED170AB0EE401A00201FE00021AE
:103BE0001AE000FB041205EB820292ED000AB5EE2A
:103BF000C00AF1EE10FA08D1B1EE410A00FB04123E
:103C000005EB820282ED000A05E000FB041205EBE1
:103C1000820282ED001A491CA142E2DB401CA04254
:103C2000DDDB22462146284600F0CDFC30BD0000F9
:103C30000000003C82B0CDE9000121F0004001907D
:103C40009DED000B02B051EC100B704770B50446AF
:103C50000D46E1B20548FEF737FB00BF802103485F
:103C6000FEF796FA0028F9D0204670BD00100140FA
:103C700010B5002821D0114B0022001F196803E065
:103C8000814203D80A4649680029F9D152B1136824
:103C9000841A9C4204D1006818441060104602E067
:103CA000506000E0186039B102680B1A934203D1EA
:103CB0000B681A4402604968416010BD0C02002084
:103CC0002DE9F04707460D4614469846DDF820904A
:103CD0004FF01E0A002608E004FB06F107EB810006
:103CE00032462146FFF788FE761C4E45F4DB002164
:103CF0002EE00020224A106000BF09E0214A52F85D
:103D000020208A4203D101221D4B1A6004E0401C8E
:103D10001D4A12689042F1DB00BF1948006800B1EB
:103D200015E0002010E005EB800292ED000A01FB97
:103D3000040207EB8202D2ED000A30EE200A05EB06
:103D4000800282ED000A401CA042ECDB00BF491C4F
:103D50004945CEDB00200EE005EB8001D1ED000AE5
:103D600000EE108AB8EEC00A80EE801A05EB8001E2
:103D700081ED001A401CA042EEDBBDE8F087000098
:103D80003800002048000020E001002070B5044603
:103D9000981E00FB02F500200CE0461C34F816606B
:103DA00000EE106AB8EE400A461901EB860686ED71
:103DB000000A401C9042F0DB70BD00002DE9F04786
:103DC0002DED068B064600241FE03046FCF7A8FBCD
:103DD00041EC180B2046FCF7A3FB41EC1A0BB0EEAC
:103DE0004A1AF0EE6A1A9FED7A0BFEF799FAB0EED6
:103DF000409AF0EE609A53EC182B51EC190BFCF73B
:103E0000D3FB01D1A04602E0641C0A2CDDDB00BF1D
:103E1000B00000F069FA0546002405E0B00000F0AB
:103E200063FA45F82400641CB442F7DBB7EE000ADD
:103E3000286880ED000AB7EE000A286880ED010AC4
:103E4000B7EE000A686880ED000ABFEE000A6868F5
:103E500080ED010A4FF0000982E009F10200FCF751
:103E60005FFB41EC190BB0EE491AF0EE691A9FEDB9
:103E7000580BFEF755FAB0EE408AF0EE608A51EC2E
:103E8000180BFCF75EFB0446002019E0224604EB09
:103E9000D273591011E0224604EBD273A1EB6303F5
:103EA00055F820C00CEB830393ED000A55F8203041
:103EB00003EB810383ED000A491CA142EBDB401CAC
:103EC00004EBD472B0EB620FE0DB214604EBD1725D
:103ED000501019E0002111E0224604EBD273A0EB50
:103EE000630355F8233003EB810393ED000A55F883
:103EF000203003EB810383ED000A491C04EBD473EB
:103F0000B1EB630FE8DB401CA042E3DB214604EB8E
:103F1000D172501020E0224604EBD273591018E001
:103F2000224604EBD27CA0EB6C0C55F82CC0234647
:103F300004EBD37AA1EB6A0A0CEB8A0C9CED000A25
:103F4000B1EE400A55F820C00CEB810C8CED000A54
:103F5000491CA142E4DB401CA042DCDB09F1010961
:103F6000A8F1010048453FF778AF06FB06F188004D
:103F700000F0BAF9074617B917A0FEF7A9F9002013
:103F800010E090FBF6F155F8211090FBF6F206FBDD
:103F9000120201EB820191ED000A07EB800181ED35
:103FA000000A401C06FB06F18142EADC002404E022
:103FB00055F82400FFF75CFE641CB442F8DB284689
:103FC000FFF756FE3846BDEC068BBDE8F0870000D3
:103FD0000000000000000040696E7465726E616C44
:103FE000207020616C6C6F63617465206661696C20
:103FF0007572650D0A0000008CB0FDF7E1FDFCF75D
:1040000065FFFCF7E5FE00BF93480068401C93493C
:10401000086000200B9090490968891C480000F056
:1040200063F98F4908604FF00009C84600278A49A4
:1040300009684943880000F057F9044614B989A07B
:10404000FEF746F9844909684943880000F04CF9B5
:10405000054615B98CA0FEF73BF97F490968880031
:1040600000F042F9064616B990A0FEF731F97A49F8
:10407000086800F039F996490860774800688100BF
:104080003046FCF7BAF874480068801C4100744858
:104090000068FCF7B2F84FF48070FFF78FFE81469E
:1040A0004FF48071484600F055F907464FF480718F
:1040B000484600F04FF980466748008882B266485B
:1040C000008881B2434609A8FFF791FC6248008846
:1040D00082B26148008881B23B4607A8FFF787FC9F
:1040E0005D48008882B25C48008881B22B4605A8F2
:1040F000FFF77DFC5848008882B25748008881B29B
:10410000234603A8FFF773FC534801683846FFF7BE
:104110005DFD52480068FFF793FC9CE06D48006825
:1041200020B1012812D002280FD110E00A206949DD
:10413000086049480122036865480168404600F06C
:1041400083F946480068FFF77BFC83E082E00A20A1
:104150006049086060480068401C5F490860084684
:104160000068012806D100205A49086044F6206002
:10417000FCF736FE5848006801281FDD56480068E5
:1041800035490968884219DC53480368324821469A
:10419000026833480068FFF7F9FD43F69820FCF702
:1041A0001FFE2D4803684C48026849480168404694
:1041B00000F04AF929480068FFF742FC46480168C8
:1041C00025480068401C814243D143480368224887
:1041D0002146026822480068FFF7D8FD1E480168A2
:1041E000204600F063F93D48FCF7FAFD1A480268E2
:1041F0000168204600F0E7F917480068CDE900079C
:1042000015482246036801680068FFF77DFC0546F3
:10421000114802680168284600F0D5F90E48016887
:10422000284600F043F92D48FCF7DAFD2C480068D9
:1042300000902C4803680848314602682846FFF77A
:104240003FFD05480168304600F062F9012022492F
:10425000086000BF00BF61E73C000020FC010020B7
:1042600000020020704F7665726C61705369676E52
:10427000616C20616C6C6F63617465206661696C50
:104280007572650D0A000000705265636F76657285
:10429000795369676E616C20616C6C6F63617465E2
:1042A000206661696C7572650D0A00007041766563
:1042B00072616765526573756C7420616C6C6F63B5
:1042C000617465206661696C7572650D0A00000095
:1042D00040000020E8010020E4010020C0E1E400EB
:1042E000D8010020DC010020F0B50B30154D20F086
:1042F00007010024144A0FE003688B420BD38B4262
:1043000005D95E1A43184768C3E9006700E04368AF
:10431000136002C004E0021D10680028ECD12046A2
:10432000002802D1286808B10020F0BD064A0748DD
:104330001060074A121A22F00702C0E90024012087
:104340002860D7E7100200200C020020040000D0F3
:10435000000000D42DE9F0412DED028B80460C4683
:10436000611E49438800FFF7BFFF074617B928A021
:10437000FDF7AEFF012544E001263FE005FB0460A8
:1043800008EB800090ED000A10EE101A0846FCF7CA
:10439000F7F841EC180B9FED270B53EC102BFCF7B3
:1043A0001BF90BD29FED250A701E691E621E01FBD0
:1043B000020007EB800080ED000A1EE005FB0460B0
:1043C00008EB800090ED000A10EE101A0846FCF78A
:1043D000D7F841EC180B9FED1A0B53EC102BFCF7A0
:1043E000E3F80AD2B7EE000A701E691E621E01FBD6
:1043F000020007EB800080ED000A761CA642BDDBC0
:104400006D1CA542B8DB3846BDEC028BBDE8F081DF
:10441000696E7465726E616C207050726273206197
:104420006C6C6F63617465206661696C7572650D93
:104430000A000000000000000000E03F0000000053
:10444000000000000000E0BF2DE9F0472DED028BD9
:1044500007460D4690461E46A8F1010000FB06F9EE
:10446000002419E004EB090007EB800090ED000A3E
:1044700010EE101A0846FCF783F841EC180B9FED7C
:10448000090B53EC102BFCF7A7F802D2012028559A
:1044900001E000202855641CB442E3DBBDEC028B34
:1044A000BDE8F087000000000000E03F2DE9F0418A
:1044B0002DED028B06460C4604FB04F700251AE09E
:1044C00006EB850090ED000A10EE101A0846FCF786
:1044D00057F841EC180B53EC182B0AA0FDF7F8FE27
:1044E00095FBF4F004FB1051601E814202D107A03D
:1044F000FDF7EEFE6D1CBD42E2DBBDEC028BBDE8BC
:10450000F0810000252E3266202000000D0A0000F8
:104510002DE9F0412DED028B05460E46374600246D
:1045200010E005EB840090ED000A10EE101A08462A
:10453000FCF726F841EC180B53EC182B04A0FDF700
:10454000C7FE641CBC42ECDBBDEC028BBDE8F08115
:10455000252E32660D0A000000B52DED048B83B0C8
:1045600041EC190BFCF766F941EC180B18EE100A38
:1045700018EE901A8DED008B002818BF012008431B
:1045800020F00040C0F17F6000F1E040C00F14D087
:1045900019EE101A19EE900A8DED009B002918BF34
:1045A0000121084320F00040C0F17F6000F1E040AD
:1045B000C00F04BF0120FEF7BBFD51EC180B03B088
:1045C000BDEC048B00BDF0B504460E461546002236
:1045D00013E000230EE003FB05F704EB870707EB6E
:1045E000820102FB05F704EB870707EB8300FDF769
:1045F00027FA5B1C9342EEDB521CB242E9DBF0BDB2
:10460000000000000000F03F000000000000F83F44
:1046100000000000000000000000004003B8E23F7E
:10462000000000000000000006D0CF43EBFD4C3E30
:10463000033333333333E33FFFAB6FDBB66DDB3F25
:104640004D268F515555D53F01411DA96074D13F6D
:1046500065DBC9934A86CD3FEF4E454A287ECA3F67
:104660003E5555555555C53F93BDBE166CC166BFE9
:104670002CDE25AF6A56113FF16BD2C541BDBBBEE2
:10468000D0A4BE726937663E000000000000000042
:10469000C04600080000002018020000D6080008EC
:1046A0001C47000818020020000400002031000808
:1046B0001C470008000000D0000200002031000864
:1046C000118495BA0A680901020304060708090C57
:1046D000A910320832635A5008416AFF38990832EB
:1046E000023203320432053206320B320C320D3202
:1046F0000E32103218321C321D321E3228322A324B
:104700003A323B323C323D323E02FF3F01343246C8
:0C471000322E7218F20A021F0300000093
:04000005080001AD41
:00000001FF
