:020000040800F2
:1000000080540220C1010008C9010008CB0100088A
:10001000CD010008CF010008D10100080000000058
:10002000000000000000000000000000D3010008F4
:10003000D501000800000000D701000815140008D1
:10004000DB010008DB010008DB010008DB01000820
:10005000DB010008DB0100084D0D0008DB01000892
:10006000DB010008DB010008DB010008DB01000800
:10007000DB010008DB010008DB010008DB010008F0
:10008000DB010008DB010008DB010008DB010008E0
:10009000DB010008DB010008DB010008DB010008D0
:1000A000DB010008D9150008DB010008DB010008AE
:1000B000DB010008DB010008DB010008DB010008B0
:1000C000DB010008DB010008DB010008DB010008A0
:1000D000DB01000875190008DB010008DB010008DE
:1000E000DB010008DB010008DB010008DB01000880
:1000F00069170008DB010008DB010008DB010008CC
:10010000DB010008DB010008DB010008DB0100085F
:10011000DB010008DB010008DB010008DB0100084F
:1001200055090008DB010008DB010008DB010008BD
:10013000DB010008DB010008DB010008DB0100082F
:10014000DB010008DB010008DB010008DB0100081F
:10015000DB010008DB010008DB010008DB0100080F
:10016000DB010008DB010008DB010008DB010008FF
:10017000DB010008DB010008DB010008DB010008EF
:10018000DB010008DB010008DB010008DB010008DF
:10019000DB010008DB010008DB010008DB010008CF
:1001A000DB010008DB010008DB010008DFF80CD0F0
:1001B00000F0A4FA00480047DD2E00088054022019
:1001C0000648804706480047FEE7FEE7FEE7FEE7F1
:1001D000FEE7FEE7FEE7FEE7FEE7FEE78514000820
:1001E000AD0100082DE9FE4F804681EA0300C00FF3
:1001F0000C46009021F0004123F00045B8EB0200CE
:10020000A94105D24046214690461C460B4602466F
:1002100023F00040104347D0270DC7F30A00C3F373
:100220000A510290401A019040286BDAC3F3130080
:1002300040F4801B0098924620B10023D2EB030AC1
:1002400063EB0B0B01985946C0F14002504600F099
:10025000B6F806460D4650465946019A00F0CEF8CB
:1002600010EB08006141002487EA115284EAE77329
:100270001A4340D0009A62B3019A012A4FEA07520A
:1002800015DC001B61EB02014FF0004202EA07524D
:10029000CDE90042001C41F5801132462B4600F0AA
:1002A000CEF803B0BDE8F08F40462146F9E7001BC9
:1002B00061EB0201001C41F5801300185B4120181E
:1002C000A2F5001747EB030140EAD570B6196D415E
:1002D00011E06D084FEA360645EAC0754FEA07524D
:1002E000001B61EB0201001C41F5801149084FEA37
:1002F00030000019514132462B4603B0BDE8F04FA3
:1003000000F08EB80098012240000023D0EB0202DA
:1003100063EBE073009821464FEAE074B8EB00000D
:1003200061EB0401E9E783F000435BE781F0004102
:1003300058E70EB5C10F80EAE0700844CA070021F3
:1003400040F233438DE80E000A460B4600F077F882
:1003500003B000BD70B5C1F30A5201F0004500249E
:10036000C1F3130140F2FF3341F480119A4201DAE4
:10037000002070BD40F233439A42A2F2334203DCC4
:10038000524200F02BF800E090402C43F1D0404264
:1003900070BD30B50B46014600202022012409E043
:1003A00021FA02F59D4205D303FA02F5491B04FA2E
:1003B00002F52844151EA2F10102F1DC30BD202A0D
:1003C00004DB203A00FA02F1002070479140C2F1AC
:1003D000200320FA03F3194390407047202A04DBDE
:1003E000203A21FA02F00021704721FA02F3D040AE
:1003F000C2F120029140084319467047202A06DBCB
:10040000CB17203A41FA02F043EAE07306E041FAE2
:1004100002F3D040C2F120029140084319467047D0
:1004200010B5141E73F1000408DA401C41F10001FC
:1004300092185B411A4301D120F0010010BD2DE953
:10044000F04D92469B4611B1B1FA81F202E0B0FA4A
:1004500080F220329046FFF7B2FF04460F4640EA92
:100460000A0041EA0B0153465A46084313D011468D
:1004700053EA010019D0C8F140025046FFF7AEFF21
:1004800005460E46504659464246FFF798FF084338
:1004900005D0012004E020463946BDE8F08D00205B
:1004A000054346EAE0762C4337430A986305E40A9D
:1004B000A0EB08000022FD0A44EA47540A3002D5A6
:1004C00000200146E9E7010510196941DDE9084509
:1004D00000196941BDE8F04DA2E72DE9FE4F81EA20
:1004E000030404F0004421F0004100944FF0000B9D
:1004F00023F0004350EA01045ED052EA03045BD0CB
:10050000C3F30A54C1F30A552C44A4F2F334019402
:10051000A0FB0254C1F3130141F48011C3F3130390
:1005200043F4801301FB024400FB034E840A970A44
:1005300044EA815447EA8357A4FB076802958D0A71
:1005400005FB07854FEA932C04FB0C542705029DFD
:100550004FEA065847EA1637B5EB08056EEB070C6D
:10056000870E920E47EA811742EA8312A7FB020127
:10057000B6EB0B0164EB00042B0D43EA0C335E1861
:1005800044EB1C50DA465146E7FB0201C5F3130465
:100590004FEA0B3343EA14534FEA0432019C43EA17
:1005A0000603A4F10C040294009CCDE900B4FFF70B
:1005B00046FF03B0BDE8F08F00200146F9E72DE9C2
:1005C000F04D81EA030404F0004B21F0004514468D
:1005D0004FF0000A23F0004150EA050220D054EA0F
:1005E00001021DD0C5F30A570246C5F31303C1F338
:1005F0001300C1F30A5640F4801543F48013A7EBAF
:100600000608101BD64608F2FD3873EB050002D32E
:1006100008F1010801E092185B41B8F1000F03DA1C
:1006200000200146BDE8F08D00204FF48011064601
:1006300084460EE0171B73EB050705D3121B63EB13
:10064000050306434CEA010C49084FEA30009218B2
:100650005B4150EA0107EDD152EA030012D082EA71
:10066000040083EA0501084305D0101BAB4106D204
:100670000122002306E000224FF0004302E06FF069
:10068000010253101AEB06004CEB085110EB0A0064
:1006900041EB0B01BDE8F04DFFF7C2BE70B521F094
:1006A000004303430CD0C1F30A550024D5EB0405E5
:1006B00064EB0403D617AD1AB34102DB00200146F8
:1006C00070BD201841EB025170BD000030B5041E12
:1006D00071F1000404DB4FF00044404264EB01017F
:1006E000141E73F1000405DB1C464FF00043524218
:1006F00063EB0403994208BF904230BD064C074D9E
:1007000006E0E06840F0010394E8070098471034E1
:10071000AC42F6D3FFF74EFD68320008883200087D
:100720002DE9F04D00231A461B1A8A4103DB0020F5
:100730000146BDE8F08DC1F30A52C1F3130141F443
:1007400080154FF0000BD10702D100186D41521EE9
:100750000027044640F2FF11384601EB620A3E468C
:100760008046024600204FF48011FFF737FEC21981
:100770007141BB1846EB0100B4EB030C75EB000CA8
:1007800004D3E41A65EB000517460E46241908F158
:1007900001006D4180463428E3DDF91946EB06007F
:1007A000091BA84103D24FF0FF32134601E000229B
:1007B00013461BEB070046EB0A51BDE8F04DFFF76F
:1007C0002FBE21B1826842F00102826003E082689C
:1007D00022F00102826070470021084A1168084A2D
:1007E0001140D0E900231A4383681A43C3681A43AF
:1007F0001143044AC2F80413704700000423014067
:10080000E030FCFF0020014021B1826842F4807298
:10081000826003E0826822F480728260704721B1B6
:10082000826842F40072826003E0826822F40072FF
:100830008260704730B50246002000235068104C9B
:1008400020400D790C6844EA0524204350609068EC
:100850000C4C2040D1E903542C438D682C434D7936
:1008600044EA450420439060D06A20F470000C7D77
:10087000641EE4B2234340EA0350D06230BD00005E
:10088000FFFEFFFCFDF7FFC0F0B504460D4600205B
:100890000021092D11DDE068A5F10A0606EB4607E7
:1008A000072606FA07F18843A5F10A0606EB460675
:1008B00003FA06F10843E0600CE0206905EB450708
:1008C000072606FA07F1884305EB450603FA06F109
:1008D00008432061072A0FDA606B561E06EB860775
:1008E0001F2606FA07F18843561E06EB860605FA10
:1008F00006F10843606322E00D2A0FDA206BD61F51
:1009000006EB86071F2606FA07F18843D61F06EB7B
:10091000860605FA06F10843206310E0E06AA2F1BA
:100920000D0606EB86071F2606FA07F18843A2F19B
:100930000D0606EB860605FA06F10843E062F0BDF7
:1009400000210160017141718160C160016101217B
:100950000175704710B50A490A4800F017F968B1E7
:1009600009A001F09DF90021064800F04DF8012092
:10097000094908700949034800F02CF810BD00002F
:10098000208000101064024061646320636F6D700A
:100990006C65746500000000240000202000001039
:1009A0000246094B9A4201D2084801E00648103835
:1009B00001F000531BB1064B0B40C36002E0044B37
:1009C0000B408360704700001064024000600240EA
:1009D0007D0F7D0F0246094B9A4201D2084801E083
:1009E0000648103801F000531BB1064B0B40C360A2
:1009F00002E0044B0B40836070470000106402402B
:100A0000006002407D0F7D0F21B1026842F00102BB
:100A1000026003E0026822F00102026070470000F9
:100A2000016821F0010101600021016041608160E5
:100A3000C1600161212141614A49884204D13D21BF
:100A4000484A103A91608CE046491831884205D1F5
:100A50004FF47461434A103A916082E04149303169
:100A6000884205D14FF474113E4A103A916078E003
:100A70003C494831884205D14FF07461394A103AF7
:100A800091606EE037496031884204D13649354A79
:100A9000103AD16065E033497831884204D1334956
:100AA000304A103AD1605CE02E499031884204D13E
:100AB0002F492C4A103AD16053E02A49A831884284
:100AC00005D14FF03D51274A103AD16049E02949FC
:100AD000884204D13D21274A083A116041E0254966
:100AE0001831884205D14FF47461224A083A1160E6
:100AF00037E020493031884205D14FF474111D4A46
:100B0000083A11602DE01B494831884205D14FF069
:100B10007461184A083A116023E01649603188422E
:100B200004D11149134A121F11601AE0114978319A
:100B3000884204D10D490F4A121F116011E00D497E
:100B40009031884204D10A490A4A121F116008E014
:100B50000849A831884204D14FF03D51054A121F7F
:100B600011607047106002403D000020400F0020DF
:100B700000003D2010640240014600200A6802F097
:100B800001020AB1012000E00020704770B5024662
:100B9000002000240025124EB24201D2114B01E088
:100BA0000F4B103B104E0E4036B11E2606EAD124E4
:100BB000166806EA040502E0566906F0800501F0B1
:100BC00000560EB15C6800E01C68084E344004EA30
:100BD000010616B10DB1012000E0002070BD00003B
:100BE00010640240006002403C0F3C0F7D0F7D0FFF
:100BF00010B501F080034BB122B1436943F080038B
:100C0000436103E0436923F08003436180290BD0F3
:100C10002AB1036801F01E042343036004E0036863
:100C200001F01E04A343036010BD000010B50022B4
:100C30000268134B1A40CC680B6823434C6923436A
:100C40008C692343CC6923430C6A23434C6A2343B6
:100C50008C6A23434C6B23438C6B23431A430260FF
:100C6000426922F00702D1E90B3423431A4342615F
:100C70000B6943604B6883608B68C36010BD0000E4
:100C80003F801CF04160704700B587B001210846E5
:100C900000F0CCF90121102000F0D8F900208DF8E7
:100CA0001A0001208DF81B0002208DF819008DF824
:100CB00018000002059005A91C4800F0DFF802208A
:100CC0008DF818004002059005A9184800F0D6F8E4
:100CD00007220A21154800F019F9072209211348B3
:100CE00000F014F94FF4E13001900020ADF8080055
:100CF000ADF80A00ADF80C00ADF810000C20ADF80E
:100D00000E0001A90A4800F057FF00F022F9012265
:100D100040F22441064800F02AFF00F0A7FE01211E
:100D2000034800F08EFE07B000BD00000000024046
:100D30000010014001B504490098086000BF024856
:100D400000680028FBD108BD5800002010B5012024
:100D500000F012F830B10121034800F013FD01202A
:100D600000F004F810BD00000000014001490860D7
:100D700070470000143C014001460020034A1268FD
:100D80000A400AB1012000E000207047143C0140F5
:100D9000002123498279002A3AD00A461268036862
:100DA0009A430B461A600A1D126803689A430B1D8A
:100DB0001A60027911440A6803681A430A60184AE3
:100DC0000832126803689A43154B08331A601A1DDB
:100DD000126803689A43124B0C331A604279102A46
:100DE0000ED11A1F126803681A430D4B08331A609C
:100DF0001A1D126803681A43094B0C331A600DE080
:100E00000749427911440A6803681A430A6005E0F9
:100E1000027911440A6803689A430A607047000027
:100E2000003C01401FB50121084600F0FFF80121F8
:100E3000880300F00BF900F09FF8012002900020D9
:100E40008DF80C008DF80F0002A90B4800F016F881
:100E50000021084600F02EFA0120009000208DF8B5
:100E6000040008208DF8050001208DF80600684672
:100E7000FFF78EFF1FBD000000000240F0B50A46DC
:100E800000210023002400BF3DE0012505FA01F305
:100E9000156805EA03049C4234D105684F00032617
:100EA000BE40B543056015794E00B5400668354330
:100EB00005601579012D02D01579022D16D18568AE
:100EC0004F000326BE40B543856055794E00B540BE
:100ED000866835438560456801268E40B543456088
:100EE000456896798E40B6B235434560C5684F0077
:100EF0000326BE40B543C560D5794E00B540C668EF
:100F00003543C560491C1029BFD3F0BDF0B500239F
:100F100000244D07ED0E02FA05F3CE1000F1200576
:100F200055F826504E07F70E0F26BE40B543CF109A
:100F300000F1200646F82750CE1000F1200555F8A4
:100F4000265045EA0304CE1000F1200545F826405E
:100F5000F0BD08B54FF4A06000F05EF825208DF8D4
:100F6000000001208DF801008DF802008DF80300CB
:100F7000684600F015F808BD08B54FF4C06000F0F1
:100F80004BF806208DF8000001208DF801008DF847
:100F900002008DF80300684600F002F808BD00006A
:100FA00070B5002100230F22C4781CB3174C2468AD
:100FB00004F4E064C4F5E064C4F30721C1F104045F
:100FC000E3B20A4144789C40E1B284781440214362
:100FD0000C07210E0E4C05786155047804F01F05AE
:100FE0000124AC4005786D11AD0005F1E025C5F890
:100FF000004109E0047804F01F050124AC40054DD0
:101000000678761145F8264070BD00000CED00E032
:1010100000E400E080E100E002490143024A11607F
:10102000704700000000FA050CED00E029B1064A07
:1010300012680243044B1A6004E0034A12688243B8
:10104000014B1A60704700003038024029B1064A4F
:1010500012680243044B1A6004E0034A1268824398
:10106000014B1A607047000044380240F0B500217F
:1010700000220024022500260223324F3F6807F099
:101080000C0121B1042905D0082937D105E02E4FE4
:10109000076036E02D4F076033E02A4F3F1F3F685F
:1010A000C7F38056274F3F1F3F6807F03F036EB1DD
:1010B000264FB7FBF3F7DFF88CC0ACF1040CDCF87B
:1010C00000C0CCF3881C07FB0CF40CE01E4FB7FBF0
:1010D000F3F7DFF870C0ACF1040CDCF800C0CCF31F
:1010E000881C07FB0CF4174F3F1F3F68C7F30147ED
:1010F0007F1C7D00B4FBF5F7076002E0124F07602C
:1011000000BF00BF0F4F3F6807F0F0010909104F03
:101110007A5C0768D74047600A4F3F6807F4E051A0
:10112000890A0B4F7A5C4768D7408760054F3F6854
:1011300007F46041490B064F7A5C4768D740C760A7
:10114000F0BD0000083802400024F40040787D0122
:10115000140000201CB501210420FFF767FF0820C0
:10116000009003208DF8040000208DF807006946E8
:101170000148FFF783FE1CBD0008024000B59BB08C
:1011800001218805FFF752FF41480D904148006852
:101190000E9000200F9040480068109000201190A1
:1011A0004FF4806012904000139080001490401122
:1011B00015904002169000201790012018900020F2
:1011C00019901A900C900CA93448FFF72FFD0121BB
:1011D0003248FFF719FC01210802FFF737FF002012
:1011E0000290039004904FF47060059002A8FFF7FE
:1011F000F3FA06A8FFF7A4FB002006908DF81C0068
:101200008DF81D004FF0805008904FF060600990FD
:1012100000200A9001208DF82C0006A91C484C38AB
:10122000FFF708FB072301220D2119484C38FFF76F
:101230002BFB012116484C38FFF7F1FA38208DF8C6
:10124000040000208DF8050003208DF80600012021
:101250008DF8070001A8FFF7A3FE11490F48FFF71B
:101260009FFB0F4910390D48FFF79AFB012210210F
:101270000A48FFF7BDFC012105484C38FFF7C4FAC6
:10128000012103484C38FFF79CFA1BB000BD000059
:101290004C20014050000020540000201064024007
:1012A0002000001010B50446FFF754FFFFF766FF5B
:1012B00010BD000030B500228B071C0F0F2303FA6E
:1012C00004F20B4B8C1053F824309343084C8D10D0
:1012D00044F8253023468C1053F824308C07240F13
:1012E00000FA04F42343024C8D1044F8253030BD3D
:1012F000083801400CB5002001900090414800687A
:1013000040F480303F49086000BF3E48006800F468
:10131000003000900198401C0190009818B9019885
:10132000B0F5A04FF1D13748006800F4003010B19B
:101330000120009001E0002000900098012860D179
:1013400030484030006840F080502E4940310860FD
:101350002D48006840F440402B4908602948083077
:1013600000682849083108600846006840F40040D9
:1013700008600846006840F4A05008602348091F30
:101380000860081F006840F08070091F086000BFF7
:101390001C48006800F000700028F9D01A48006866
:1013A00040F480301849086000BF1748406800F4D6
:1013B00080300028F9D01448006840F40030124909
:1013C000086000BF1048406800F400300028F9D0E1
:1013D00040F205700E4908600A480830006820F0A5
:1013E00003000849083108600846006840F0020020
:1013F000086000BF03480830006800F00C000828AF
:10140000F8D10CBD0038024000700040195A400766
:10141000003C024010B500F0A1FA10BD30B51648EE
:1014200000684FF47A72B0FBF2F1481EB0F1807F91
:1014300001D301201BE0481E4FF0E02250615017FD
:101440000F22002807DA13071D0E0C4B00F00F04C3
:10145000241F1D5503E013071C0E094B1C5400BF2D
:1014600000204FF0E022906107201061002008B1B9
:1014700000BFFEE730BD00000000002018ED00E0D6
:1014800000E400E010B51548006840F4700013490E
:1014900008601348006840F001001149086000200E
:1014A0000F49083108600E4800680E4908400C4991
:1014B00008600D48091D0860081F006820F480209E
:1014C000091F0860002006490C310860FFF712FF71
:1014D0004FF0006001498039086010BD88ED00E0E0
:1014E00000380240FFFFF6FE1030002470B58CB0CB
:1014F00006460C46154601210846FFF797FD0121D7
:101500000420FFF793FD012208213048FFF7FEFC7D
:10151000012209212E48FFF7F9FC4FF480700A9050
:1015200002208DF82C0000208DF82E008DF82F0061
:1015300003208DF82D000AA92448FFF79FFC4FF4E3
:1015400000700A900AA92248FFF798FC012108467A
:10155000FFF77CFD0896ADF81C400020ADF8240094
:10156000ADF81E0007A91B4800F0B6F97020ADF8D1
:1015700008000120ADF80A0004950020ADF8140021
:1015800002A9144800F03CF919208DF8040000204D
:101590008DF8050003208DF8060001208DF8070066
:1015A00001A8FFF7FDFC01210A4800F0E5F801223F
:1015B0001146084800F01BF90821064800F05EF9C2
:1015C0000121044800F0EAF80CB070BD00000240B0
:1015D000000802400000014010B501211F4800F042
:1015E000F5F8002839D01E4800681E490988405C7B
:1015F000012803D100201949486302E0C820174997
:1016000048630121154800F0BAF8164800881649C9
:101610000968884203D1C8201049486318E011487E
:10162000018811480068401C814211D10F48008890
:101630004FF6FE7108400D490880084800884FF6B3
:10164000FE710840054908804FF6FF700549088083
:1016500004480088401C0349088010BD0000014078
:101660004800002026000020340000200004014033
:1016700070B58CB006460C46154601210420FFF7D4
:10168000D5FC032206213548FFF740FC40200A9094
:1016900002208DF82C0000208DF82E008DF82F00F0
:1016A00003208DF82D000AA92C48FFF7E7FB012144
:1016B0000220FFF7CBFC0796ADF818400020ADF8EC
:1016C0002000ADF81A008DF8220006A9244800F089
:1016D00003F94021224800F0ECF87020ADF8040036
:1016E0000120ADF8060003950020ADF8100001A917
:1016F0001B4800F085F80821194800F0BFF82C209D
:101700008DF8240000208DF8250003208DF8260098
:1017100001208DF8270009A8FFF742FC01221102E1
:101720000F4800F04AF801210D4800F025F801218A
:101730000B4800F033F880210A4800F0B1F810217E
:10174000084800F0B6F80621054800F0BBF8002173
:10175000034800F09CF80CB070BD00000008024087
:10176000000401400000014010B50121014800F0D3
:101770002DF810BD00000140CA4302827047CA43E1
:101780000282704721B1028842F00102028004E027
:1017900002884FF6FE731A400280704731B1B0F8EC
:1017A000442042F40042A0F8442005E0B0F8442070
:1017B000C2F30E02A0F8442070471AB183890B438C
:1017C000838102E083898B438381704730B5024671
:1017D000002000230024158A05EA0103958905EA03
:1017E000010413B10CB1012000E0002030BD1AB19A
:1017F00083890B43838102E083898B438381704714
:1018000070B5002400220023058C4FF6FE7635408B
:101810000584028C8388048B4FF68F752C40B51E8F
:101820002C400D882C43751E2A408D892A434D88F3
:101830002A43104DA84202D00F4DA84213D14FF6B3
:10184000F7752A40CD892A434FF6FB752A408D88CB
:101850002A434FF6FF652B404FF6FF552B400D8A6C
:101860002B434D8A2B43838004838D684563028418
:1018700070BD000000000140000401400A46002144
:10188000018B4FF6F77319401143018370470A46E5
:10189000002101894FF68F73194011430181704770
:1018A00002894FF67F731A40028102890A4302813E
:1018B000704782884FF68F731A40828082880A436D
:1018C0008280704702894FF6F8731A4002810289BC
:1018D0000A4302817047000000220288184B984298
:1018E0000ED0184B98420BD0B0F1804F08D0164B59
:1018F000984205D0154B984202D0154B984204D11E
:101900004FF68F731A404B881A43124B984207D0F8
:10191000114B984204D04FF6FF431A400B891A43EB
:1019200002804B68C3620B880385054B984202D046
:10193000044B984201D18B7A03860123838270473E
:101940000000014000040140000400400008004085
:10195000000C0040001000400014004004480068E3
:1019600020B103480068401E01490860704700002C
:101970005800002010B540F22441244800F0CDF872
:10198000012841D11021214800F052F800212048BF
:10199000FFF73AF814211E48FFF774F901211C489B
:1019A000FFF732F8194800F071F91A4800787328E7
:1019B00016D101201849086020201649087017A088
:1019C00000F06EF9002405E01248015D15A000F05A
:1019D00067F9641C142CF7DB13A000F061F913E025
:1019E0000C48007873280FD001201049087000249B
:1019F00005E00848015D0BA000F052F9641C142CAE
:101A0000F7DB09A000F04CF910BD00000010014008
:101A1000406402406C000020380000203D3D730D02
:101A20000A000000256300000D0A000025000020C8
:101A300001F40072B2F5007F00D100BFCA430280FA
:101A4000704721B1828942F40052828104E0828988
:101A50004DF6FF731A40828170471AB1838A0B4397
:101A6000838202E0838A8B438382704700B58FB004
:101A700001218805FFF7DAFA1E48FEF7D1FF00BF03
:101A80001C48FFF779F80028FAD14FF00060009069
:101A900019480190194802900020039014200490E6
:101AA000002005904FF48060069000200790089079
:101AB0004FF48070099000020A9000200B900320E0
:101AC0000C9000200D900E9069460A48FFF7AEF882
:101AD00001210848FEF798FF012240210648001F17
:101AE000FFF7BBFF00BF0348FFF746F80128FAD114
:101AF0000FB000BD40640240041001406C000020A3
:101B000002460020B1F5007F00D100BF13880B40D2
:101B10000BB1012000E00020704770B502460024A0
:101B200000230025002040F66A16B14200D100BF14
:101B3000C1F3421501F01F03012606FA03F3012D3C
:101B400002D19689334006E0022D02D1168A334035
:101B500001E0968A33400C12012606FA04F4168836
:101B6000344013B10CB1012000E0002070BDF0B58D
:101B70000346002400260025002040F66A17B942DB
:101B800000D100BF1846C1F3421401F01F0601271F
:101B900007FA06F5012C01D10C3004E0022C01D12A
:101BA000103000E014301AB107682F43076002E0DC
:101BB0000768AF430760F0BD2DE9FF4705460E46B5
:101BC0000024A14600BFA046B08900B100BF2C8A06
:101BD00024F44054F08804432C82AC8941F20C6018
:101BE0008443B08831890843718908430443AC8138
:101BF000AC8A24F44074B0890443AC826846FFF791
:101C000035FA2048854202D01F48854202D1DDF8CE
:101C10000C9001E0DDF80890A88900F4004040B184
:101C200009EBC90000EB091031684900B0FBF1F77E
:101C300007E009EBC90000EB091031688900B0FB2F
:101C4000F1F76420B7FBF0F004012009642101FBE7
:101C50001078A88900F4004040B1322000EBC800A1
:101C6000B0FBF1F000F00700044308E0322000EB85
:101C700008106421B0FBF1F000F00F0004432C8148
:101C8000BDE8FF870010014000140140014688882C
:101C9000C0F308007047C1F308028280704700005B
:101CA0000FB4054B10B503A9044A029800F02EFFAB
:101CB00010BC5DF814FB0000692E00085C000020D9
:101CC00003B401984100009850EAC12018BF0420D5
:101CD0004A0D18BF40F0010040F2FF72B2EB515FB5
:101CE00008BF40F00200012808BF052002B070477D
:101CF0002DE9F04D2DED040B2DED0E8B96B0DDE9A9
:101D00002550279CDDF890A025F0004624F00048DF
:101D1000BAF1000F14BF0121002101EB4502FC497B
:101D200053184A1093422AD3002814BF01230023DA
:101D300003EB44030B44F7498B4220D358EA0001DC
:101D40009FEDF59B76D0DFF8D8B35D4503D1BAF1AE
:101D5000000F05D188E0BAF1000F08BF002100D0C4
:101D6000012101EB450111F5001F08D8002814BF1F
:101D70000121002101EB440111F5001F0BD99DED5C
:101D8000261B9DED240B16B0BDEC0E8B04B0BDE8F8
:101D9000F04D00F069BE0027002DBCBFE149884529
:101DA00021DAE1498845A8BF02271CDAC3451ADCBD
:101DB000DE4901EB2851142908DDC1F1340220FA73
:101DC00002F101FA02F282420DD108E058B9C1F1E4
:101DD000140228FA02F101FA02F2424503D101F09D
:101DE0000101C1F1020756EA0A0124D1002C22DACE
:101DF000002D18BF022F01D0012F0AD0022000F0C1
:101E00007FFE16B0BDEC0E8B04B0BDE8F04D00F0C7
:101E100013BE022000F074FE00F00EFE51EC100B19
:101E200081F0004141EC100B16B0BDEC0E8B04B0FC
:101E3000BDE8F08D18E09FEDBEAB9FEDBF8B002895
:101E400071D1B848804522D105F1804010F580104D
:101E500008BFBAF1000F07D0B3450ADC002CA8BFB9
:101E60009DED260BE0DA0DE0B0EE490AF0EE690ACE
:101E7000DAE7002C06DA9DED260B51EC100B81F011
:101E800000416FE0AE48784490ED000BCCE7D845B8
:101E90004DD1002C48DA2EB186423AD1BAF1000F6A
:101EA00042D126E0BAF1000F13D0022000F028FE44
:101EB00000F0F6FD8DED020B9DED240B8DED000B7A
:101EC00010EE900A039961F31E0003909DED020B42
:101ED000AAE78DED02AB9DED240B1AEE901A10EEE1
:101EE000900A8DED000B61F31E0003909DED020B37
:101EF0009AE78DED028B9DED240B18EE901A10EEF3
:101F0000900A8DED000B61F31E0003909DED020B16
:101F10008AE709DA9DED240B51EC190B53EC102BD9
:101F2000FEF74DFB1EE020E09DED240B7CE7864292
:101F30001BDAB4F1804F0DD0A4F10050B0F1FF5086
:101F400013D1002D11DB9DED240B51EC100B01F092
:101F500009F907E09DED240B53EC102B51EC100B0D
:101F600000F0C2BC41EC100B5EE79DED240B51EC80
:101F7000100B00F06DFFBAF1000FCDE90E0142D158
:101F80009FED710B46B3A6F1E040B0F17F600CD03D
:101F90005E4538D1002D00DAA7B3022F0CBF012017
:101FA0004FF0FF30FEF7C5F9DCE7002D01DD002C16
:101FB0000DDA002D01DD002C1FDB002D16DA002CC0
:101FC00014DB012F08BF9FED620B3FF42DAFB0EE85
:101FD0004A0AF0EE6A0A27E7022F18BF002D0CD03C
:101FE000012F0AD1002DFFF61FAF06E0002DB8BF6C
:101FF000002C08DA012F3FF417AFB0EE480AF0EEDC
:10200000680A11E71BE0012000EBE57050EA0701C8
:1020100015D0791EB0EE498AF0EE698A084308BFF0
:102020009FED4D8B4E480025804570DD4D494E4853
:10203000884514DDB0420DDB002C19DB2FE00120B8
:1020400000F05EFD16B0BDEC0E8B04B0BDE8F04DA7
:1020500000F016BDB34502DC002C09DC1FE086420F
:1020600002DA002C1BDA03E05E452BDD002C16DDC6
:10207000022000F045FD00F013FD8DED020B53EC46
:102080001A2B51EC180BFEF728FACDE90001039941
:10209000019861F31E0003909DED020BC4E602203F
:1020A00000F02EFD00F00CFD10EE901A18EE900AD4
:1020B0008DED020B8DED008B61F31E0003909DED05
:1020C000020BB1E69DED0E0B53EC192B51EC100BEE
:1020D000FEF729F99FED260BCDE9080153EC102BF3
:1020E0009DED080B51EC100BFEF7F7F99FED221B4D
:1020F00053EC112BFEF71AF99DED081B53EC112B35
:10210000FEF7EBF99FED1E1B53EC112B3CE08CE02E
:10211000FFFF1F00FFFF0F00000000000000F03F66
:102120000000F03F0000F07F0000404301FCFFFF93
:10213000000000000000F07F000000000000000030
:10214000D613000000000000000000000000008026
:10215000000000000000F0FF000000000000F0BFE1
:102160000000E0410000F043FFFFEF3F00000000EF
:10217000000000000000D03F555555555555D53F3E
:10218000000000000000E03FFEF7D0F89DED080BD6
:1021900041EC1A0B53EC102B51EC100BFEF79DF990
:1021A00053EC1A2BFEF799F941EC1A0B9FEDFE0B3D
:1021B00053EC102B9DED080B51EC100BFEF78DF935
:1021C00041EC1B0B9FEDFA0B51EC1A0B53EC102B4F
:1021D000FEF783F941EC1A0B9FEDF70B53EC102B34
:1021E0009DED080B51EC100BFEF777F953EC1A2B11
:1021F000FEF799F841EC1A0B51EC1B0B53EC1A2B20
:10220000FDF7F0FF0690CDE906519DED060B53EC6E
:102210001B2B51EC100BFEF786F853EC1A2BFEF734
:1022200085F841EC100B00F0A1B90020B6F5801F35
:102230000EDA9FEDE30B53EC102B9DED0E0B51ECE2
:10224000100BFEF74AF9CDE90E016FF034000E468F
:1022500000EB2650A0F2FF37C6F31300DA4940F036
:102260007F6646F040568842D8BF002408DDD74933
:102270008142C8BF012403DC0024A6F580167F1C20
:10228000D348784400EBC4000F9690ED00CB9DED51
:102290000E0B53EC1C2B51EC100BFEF744F89DED8C
:1022A0000E0B41EC1B0B53EC1C2B51EC100BFDF7F0
:1022B00099FF41EC100B51EC190B53EC102BFEF76E
:1022C0007EF941EC1D0B51EC1B0B53EC1D2BFEF763
:1022D00004F941EC1A0BBF488DED10AB7844109512
:1022E00090ED000B4FF0005040EA660000EB844098
:1022F0008DED080B00F5002009909DED080B53ECC7
:102300001C2B51EC100BFEF70EF89DED0E1B53EC41
:10231000112BFEF70BF841EC100B53EC102B9DED3D
:10232000100B51EC100BFEF7D8F89DED080B41ECAB
:102330001C0B53EC102B9DED100B51EC100BFEF70A
:10234000CCF853EC1B2BFDF7F1FF53EC1C2BFDF7E6
:10235000EAFF53EC1D2BFEF7C0F841EC1C0B53ECCD
:102360001A2B51EC1A0BFEF7B8F841EC1B0B9A48EC
:102370000621B0EE4B0AF0EE6B0A784400F0E0FA6A
:10238000B0EE401AF0EE601AB0EE41DAF0EE61DA2B
:1023900053EC1B2B51EC1B0BFEF79FF853EC1D2B42
:1023A000FEF79BF89DED100B41EC1B0B53EC1A2B29
:1023B00051EC100BFDF716FF53EC1C2BFEF78DF8BC
:1023C00053EC1B2BFDF70EFF9DED100B41EC1B0B8F
:1023D00053EC102B51EC100BFEF77FF841EC1D0B6A
:1023E0009FED7FEB53EC1E2BFDF7FCFE53EC1B2BFC
:1023F000FDF7F8FE0890CDE908519DED080B53EC70
:102400001E2B51EC100BFDF78EFF53EC1D2BFDF72F
:102410008AFF53EC1B2BFDF789FF9DED080B41EC68
:102420001D0B53EC102B9DED100B51EC100BFEF718
:1024300054F841EC1B0B53EC1A2B51EC1D0BFEF71F
:102440004CF89DED080B41EC1A0B53EC102B51ECA2
:102450001C0BFEF742F853EC1A2BFDF7C3FE41ECC0
:102460001A0B51EC1B0B53EC1A2BFDF7BBFE0C9017
:10247000CDE90C519DED0C0B53EC1B2B51EC100BCB
:10248000FDF751FF53EC1A2BFDF750FF41EC1B0BEE
:102490009FED550B53EC102B9DED0C0B51EC100BDD
:1024A000FEF71BF841EC1A0B9FED510B51EC1B0B87
:1024B00053EC102BFEF711F841EC1B0B9FED4E0B6C
:1024C00053EC102B9DED0C0B51EC100BFEF705F8A7
:1024D00053EC1B2BFDF786FE41EC100B484878446B
:1024E00000EBC40090ED001B51EC100B53EC112BD2
:1024F000FDF778FE41EC1B0B3846FDF71AFFCDE9DE
:10250000080153EC1B2B51EC1A0BFDF76BFE41EC51
:10251000100B3C48784400EBC40090ED00CB51EC2C
:10252000100B53EC1C2BFDF75DFE9DED081B53ECCF
:10253000112BFDF757FE0690CDE906519DED080BD6
:1025400053EC102B9DED060B51EC100BFDF7EBFE41
:1025500053EC1C2BFDF7E7FE53EC1A2BFDF7E3FEC3
:1025600053EC1B2BFDF7E2FE41EC100B9DED261BFF
:1025700053EC102B8DED001B00959DED260B51ECBF
:10258000100BFDF7AAFF9DED000B41EC1A0B53EC6D
:10259000102B9DED260B51EC100BFDF7C4FE9DEDAD
:1025A000061B53EC112B2FE0000000604715F73F8E
:1025B000FE822B654715F73F44DF5DF80BAE543EB6
:1025C00000000000000040438E9803007AB60B0024
:1025D000520F0000800F00008A0E00000000000073
:1025E0000000000000000840000000E009C7EE3FC6
:1025F000FD033ADC09C7EE3FF5015B14E02F3EBE58
:10260000160D0000D00C0000FDF767FF53EC1A2BED
:10261000FDF7E8FD9DED060B41EC1A0B53EC102B7A
:102620009DED000B51EC100BFDF757FFCDE90C01B0
:102630009DED0C0B51EC1A0B53EC102BFDF7D2FD5A
:10264000CDE902010C46AA498C422FDB611A0843EE
:1026500018D19DED0C0B53EC102B9DED020B51ECA2
:10266000100BFDF760FE41EC1B0B9FEDA30B51EC33
:102670001A0B53EC102BFDF7B5FD53EC1B2BFEF79B
:1026800025F82DD2022000F03BFA00F009FA10EEF6
:10269000901A18EE900A8DED020B8DED008B61F310
:1026A0001E0003909DED020BFFF7BEBB944A24F081
:1026B0000041914214D39349214408437FF4EFAC85
:1026C0009DED0C0B53EC102B9DED020B51EC100B00
:1026D000FDF729FE53EC1A2BFDF7F8FF7FF6DFAC70
:1026E00024F000408849894A002601EB20518242AB
:1026F0002BDA481C4FF4801121FA00F02044844A60
:10270000C0F30A517A44A1F2FF3192ED000B814AE5
:102710008DED080BCA4020EA0202C0F3130040F41A
:102720008010C1F1140120FA01F60992002CB8BF03
:1027300076429DED080B53EC102B9DED0C0B51ECEC
:10274000100BFDF7F0FDCDE90C019DED0C0B51ECEC
:102750001A0B53EC102BFDF745FD9FED6F0B089006
:10276000CDE9085153EC102B9DED080B51EC100BEB
:10277000FDF7B3FE41EC1B0B9FED690B53EC102BE7
:102780009DED080B51EC100BFDF7A7FE9DED0C0B1A
:1027900041EC1C0B53EC102B9DED080B51EC100B76
:1027A000FDF7C1FD53EC1A2BFDF7C0FD9FED5E1B3D
:1027B00053EC112BFDF791FE53EC1C2BFDF712FD92
:1027C00041EC1A0B51EC1B0B53EC1A2BFDF70AFDD5
:1027D000CDE902019DED020B53EC1B2B51EC100BCC
:1027E000FDF7A1FD53EC1A2BFDF7A0FD9DED020BAB
:1027F00041EC1A0B53EC102B51EC100BFDF76DFE56
:10280000CDE908014A489DED080B0521784400F008
:1028100097F89DED081B51EC100B53EC112BFDF7B5
:102820005CFE9DED021B53EC112BFDF77FFDCDE906
:1028300006019DED020B53EC1A2B51EC100BFDF72A
:102840004CFE53EC1A2BFDF7CDFC9FED3B0B41ECFE
:102850001A0B53EC102B9DED060B51EC100BFDF7F2
:1028600062FD9DED060B41EC1B0B53EC102B9DED17
:10287000020B51EC100BFDF730FE53EC1B2BFDF758
:102880009EFE53EC1A2BFDF74EFD9DED021B53EC03
:10289000112BFDF748FD53EC192BFDF747FDCDE952
:1028A000020101EB065001150029C8BF039015DC99
:1028B0009DED020B324651EC100BFDF7EFFEFFF7DA
:1028C000FFF9042808BF00F0FBF832469DED020B2B
:1028D00051EC100BFDF7E2FECDE902019DED020B7C
:1028E00051EC180B53EC102BFDF7F7FDFFF73ABB3B
:1028F0000000904000000000FE822B654715973CC9
:1029000000CC904000346F3F01FCFFFF0000E03F2F
:10291000580B0000FFFF0F0000000000432EE63FB1
:10292000396CA80C615C20BEEF39FAFE422EE63FFE
:10293000280A000000000000000000000000004025
:1029400070B504462DED028B4D1E00EBC500B0EEB8
:10295000408AF0EE608A90ED000B35F0060017D04B
:1029600053EC182B51EC100BFDF7B7FD41EC100B9D
:102970006D1E04EBC50090ED001B51EC100B53ECE9
:10298000112BFDF72FFC41EC100B35F00600E7D1C1
:10299000022D36D0042D1CD0062D1CBFBDEC028BA1
:1029A00070BD53EC182B51EC100BFDF796FD94ED18
:1029B0000A1B53EC112BFDF715FC53EC182BFDF7FC
:1029C0008CFD94ED081B53EC112BFDF70BFC41EC37
:1029D000100B53EC182B51EC100BFDF77EFD94ED12
:1029E000061B53EC112BFDF7FDFB53EC182BFDF7E9
:1029F00074FD94ED040B53EC102BFDF7F3FB41EC4D
:102A0000100B53EC182B51EC100BFDF766FD94EDF9
:102A1000021B53EC112BFDF7E5FB53EC182BFDF7D4
:102A20005CFD94ED001B53EC112BFDF7DBFBBDECC3
:102A3000028B41EC100B70BD9FED070B10B553ECF2
:102A4000102B9FED070B51EC100BFDF7B8FD41EC7F
:102A5000100B10BD0000000000000000000000008E
:102A6000000000000000F03F10B553EC112B51ECBA
:102A7000100BFDF7B7FB41EC100B10BD0000000080
:102A80009FED050B10B553EC102B51EC100BFDF71F
:102A900096FD41EC100B10BD00000000000000008E
:102AA0009FED050B10B553EC102B51EC100BFDF7FF
:102AB00014FD41EC100B10BD000000000000007080
:102AC0009FED050B10B553EC102B51EC100BFDF7DF
:102AD00004FD41EC100B10BD0000000000000010D0
:102AE00002E008C8121F08C1002AFAD170477047D7
:102AF000002001E001C1121F002AFBD17047000035
:102B00000149086070470000680000202DE9FF4F70
:102B10008BB09A460F460546002606E025280BD0C6
:102B200052460D9990476D1C761C28780028F5D1E7
:102B30000FB03046BDE8F08F0024A0460122604966
:102B400000E0044315F8013F203B02FA03F008427D
:102B5000F7D128782E2817D115F8010F44F0040476
:102B60002A280ED06FF02F022878A0F13001092911
:102B70000AD808EB880102EB410100EB01086D1C4B
:102B8000F2E757F8048B6D1C287869283ED006DCE4
:102B90000028CDD063280BD0642804D136E07328F8
:102BA00010D075284BD052460D999047761C85E081
:102BB00017F8040B8DF8000000208DF80100E9469D
:102BC000012003E057F8049B4FF0FF3061074FF0FE
:102BD000000401D40AE0641C44450DDA8442FADBA7
:102BE00019F804100029F6D106E0641C8442FCDBCD
:102BF00019F804100029F8D1264404E019F8010B53
:102C000052460D999047641EF8D257E001CF4FF01D
:102C10000A0B002802DA40422D2102E0210504D5EA
:102C20002B218DF82410012103E0E10705D020219C
:102C3000F7E70DF1200908910CE00021F9E701CF39
:102C40004FF00A0BF9E75946FDF7A3FB01F13002FB
:102C500009F8012D0028F6D1ADEB090000F1200B99
:102C6000600701D44FF00108D84502DDA8EB0B0046
:102C700000E000208046002406E009A85246005DDE
:102C80000D999047641C761C08988442F5DB04E09B
:102C9000302052460D999047761CB8F10001A8F1FA
:102CA0000108F5DC05E019F8010B52460D99904733
:102CB000761CBBF10001ABF1010BF4DC6D1C34E7B9
:102CC000092801002DE9F04105468846002400E06E
:102CD000641C285D6128FBD1A00000F00DFA0646B7
:102CE000002404E0285D303846F82400641C285D88
:102CF0006128F7D1C8F80040002705E056F82710F2
:102D000004A0FEF7CDFF7F1CA742F7DB3046BDE8ED
:102D1000F0810000256420002DE9F04F2DED068B99
:102D200083B083460D462846FDF703FB41EC1A0BA2
:102D3000B0EE4A1AF0EE6A1A9FED3A0BFEF7D8FF92
:102D4000B0EE409AF0EE609A9FED380B53EC102BEA
:102D500051EC190BFDF7E7FA41EC180BFDF7FAFA05
:102D60008146484600F0C8F98046B8F1000F02D10C
:102D700030A0FEF795FF284600F0BEF90446002675
:102D8000002002900021217088F8000001212170AC
:102D90000122691E625400BF03E05BF820100E445C
:102DA000401CA842F9DB304600F0A6F90746002196
:102DB00039708A46002008E05BF82010012903D111
:102DC00007F80A000AF1010A401CA842F4DB0020BF
:102DD000019000211EE0681E205C08F801002078A8
:102DE0000190002005E03A5CA25C029B5A400292EE
:102DF000401CB042F7DB0298207000200290681E51
:102E000003E0421EA25C2254401E0128F9DC019816
:102E10006070491C4945DEDB404603B0BDEC068BC3
:102E2000BDE8F08F0000000000000040000000003E
:102E30000000F03F73657175656E6365206D616CB0
:102E40006C6F63206661696C7572650D0A00000025
:102E500082B0CDE9000121F0004001909DED000B12
:102E600002B051EC100B704770B504460D46E1B24C
:102E70000548FEF710FF00BF80210348FEF740FE23
:102E80000028F9D0204670BD0010014010B5002880
:102E900021D0114B0022001F196803E0814203D8A2
:102EA0000A4649680029F9D152B11368841A9C4234
:102EB00004D1006818441060104602E0506000E041
:102EC000186039B102680B1A934203D10B681A4497
:102ED00002604968416010BD600000202DED068B46
:102EE000FEF79CFAFDF79EFFFDF7CEFEB9E05D48C8
:102EF000007801286BD100205A4908705A480078A0
:102F000001280BD159480068FFF7C0FF58480068F6
:102F1000FFF7BCFF57480068FFF7B8FF5648016845
:102F20005648FFF7CFFE51490860554801684F48A1
:102F30000068FFF7F1FE4E49086051480068FDF750
:102F4000F8F941EC1A0BB0EE4A1AF0EE6A1A9FED4E
:102F50004D0BFEF7CDFEB0EE409AF0EE609A9FED7D
:102F60004B0B53EC102B51EC190BFDF7DCF941EC3A
:102F7000180BFDF7EFF94749086008460068C01CC8
:102F8000454908604348016844A0FEF789FE42496C
:102F90000968480000F0B0F8364908600846006843
:102FA00010B943A0FEF77CFE324800680021018082
:102FB000FEF778F9C822B321C720FEF797FA6422FA
:102FC000B321C720FEF754FB0120274908703E4873
:102FD000006801280CD100203B4908603BA0FEF7A7
:102FE0005FFE01213D48FEF7CDFBC820FDF7A2FEA4
:102FF0003B480078012834D100203949087000246A
:103000000DE01C48006830F81420214635A0FEF77A
:1030100047FE00201749096821F81400641C1E4867
:1030200000688442EDDB1C480068304908600121DB
:103030002E48001FFDF7E8FC2D48006820F0200016
:103040002B490860C822B321C720FEF74FFA64223B
:10305000B321C720FEF70CFB26480088401C2549F9
:10306000088044E7250000204C0000204400002098
:103070004800002050000020300000206C0000209C
:103080002C000020000000000000004000000000B4
:103090000000F03F3400002054000020736571757B
:1030A000656E63654C656E6774683A25640D0A0049
:1030B000616463206D616C6C6F63206661696C751F
:1030C00072650D0A00000000380000206265676923
:1030D0006E2073616D706C650D0A00000000014088
:1030E0002400002025642C25640D0A00146402408D
:1030F0000020014028000020F0B50B30154D20F0D5
:1031000007010024144A0FE003688B420BD38B4263
:1031100005D95E1A43184768C3E9006700E04368B1
:10312000136002C004E0021D10680028ECD12046A4
:10313000002802D1286808B10020F0BD064A0748DF
:103140001060074A121A22F00702C0E90024012089
:103150002860D7E764000020600000208400002081
:103160008050022000B52DED048B83B041EC190B8B
:10317000FDF7D6FA41EC180B18EE100A18EE901A6B
:103180008DED008B002818BF0120084320F000407F
:10319000C0F17F6000F1E040C00F14D019EE101AAA
:1031A00019EE900A8DED009B002918BF01210843FC
:1031B00020F00040C0F17F6000F1E040C00F04BF8C
:1031C0000120FFF79DFC51EC180B03B0BDEC048B04
:1031D00000BD000000000000000000000000F03F03
:1031E000000000000000F83F0000000000000000A8
:1031F0000000004003B8E23F0000000000000000B3
:1032000006D0CF43EBFD4C3E033333333333E33F40
:10321000FFAB6FDBB66DDB3F4D268F515555D53F6C
:1032200001411DA96074D13F65DBC9934A86CD3F3A
:10323000EF4E454A287ECA3F3E5555555555C53F28
:1032400093BDBE166CC166BF2CDE25AF6A56113F1A
:10325000F16BD2C541BDBBBED0A4BE726937663E1C
:10326000000000000000000088320008000000207C
:103270006C000000E02A0008F43200086C00002016
:1032800014540200F02A00080095BA0A0000000059
:103290000000000001020304060708090000000006
:1032A00001020304010203040607080900000000EC
:1032B00001000000000000002C00002000000000C1
:1032C00000000000000000003400002000000000AA
:1032D00000000000000000000000000000000000EE
:1032E00000000000000000000000000000000000DE
:0432F00000000000DA
:04000005080001AD41
:00000001FF
