:020000040800F2
:1000000090E40220C1010008C9010008CB010008EA
:10001000CD010008CF010008D10100080000000058
:10002000000000000000000000000000D3010008F4
:10003000D501000800000000D7010008F1130008F6
:10004000DB010008DB010008DB010008DB01000820
:10005000DB010008DB010008050D0008DB010008DA
:10006000DB010008DB010008DB010008DB01000800
:10007000DB010008DB010008DB010008DB010008F0
:10008000DB010008DB010008DB010008DB010008E0
:10009000DB010008DB010008DB010008DB010008D0
:1000A000DB010008B5150008DB010008DB010008D2
:1000B000DB010008DB010008DB010008DB010008B0
:1000C000DB010008DB010008DB010008DB010008A0
:1000D000DB01000841190008DB010008DB01000812
:1000E000DB010008DB010008DB010008DB01000880
:1000F000DB010008DB010008DB010008DB01000870
:10010000DB010008DB010008DB010008DB0100085F
:10011000DB010008DB010008DB010008DB0100084F
:10012000310B0008DB010008DB010008DB010008DF
:10013000DB010008DB010008DB010008DB0100082F
:10014000DB010008DB010008DB010008DB0100081F
:10015000DB010008DB010008DB010008DB0100080F
:10016000DB010008DB010008DB010008DB010008FF
:10017000DB010008DB010008DB010008DB010008EF
:10018000DB010008DB010008DB010008DB010008DF
:10019000DB010008DB010008DB010008DB010008CF
:1001A000DB010008DB010008DB010008DFF80CD0F0
:1001B00000F0CCFA00480047E930000890E4022043
:1001C0000648804706480047FEE7FEE7FEE7FEE7F1
:1001D000FEE7FEE7FEE7FEE7FEE7FEE76114000844
:1001E000AD0100082DE9FE4F804681EA0300C00FF3
:1001F0000C46009021F0004123F00045B8EB0200CE
:10020000A94105D24046214690461C460B4602466F
:1002100023F00040104347D0270DC7F30A00C3F373
:100220000A510290401A019040286BDAC3F3130080
:1002300040F4801B0098924620B10023D2EB030AC1
:1002400063EB0B0B01985946C0F14002504600F099
:10025000CDF806460D4650465946019A00F0E5F89D
:1002600010EB08006141002487EA115284EAE77329
:100270001A4340D0009A62B3019A012A4FEA07520A
:1002800015DC001B61EB02014FF0004202EA07524D
:10029000CDE90042001C41F5801132462B4600F0AA
:1002A000E5F803B0BDE8F08F40462146F9E7001BB2
:1002B00061EB0201001C41F5801300185B4120181E
:1002C000A2F5001747EB030140EAD570B6196D415E
:1002D00011E06D084FEA360645EAC0754FEA07524D
:1002E000001B61EB0201001C41F5801149084FEA37
:1002F00030000019514132462B4603B0BDE8F04FA3
:1003000000F0A5B80098012240000023D0EB0202C3
:1003100063EBE073009821464FEAE074B8EB00000D
:1003200061EB0401E9E783F000435BE781F0004102
:1003300058E70EB540F2334102910021CDE900119A
:100340000A460B4600F092F803B000BD70B5C1F349
:100350000A5201F000450024C1F3130140F2FF33BB
:1003600041F480119A4201DA002070BD40F233431B
:100370009A42A2F2334203DC524200F046F800E017
:1003800090402C43F1D0404270BD2DE9F05F05460E
:10039000002092469B4688460646814640241BE044
:1003A000284641464746224600F02FF853465A4613
:1003B000C01A914110D311461846224600F016F893
:1003C0002D1A67EB01084F4622460120002100F05C
:1003D0000DF817EB00094E41201EA4F10104DFDCEB
:1003E000484631462A464346BDE8F09F202A04DBB2
:1003F000203A00FA02F1002070479140C2F1200338
:1004000020FA03F3194390407047202A04DB203A76
:1004100021FA02F00021704721FA02F3D040C2F124
:1004200020029140084319467047202A06DBCB176B
:10043000203A41FA02F043EAE07306E041FA02F39F
:10044000D040C2F12002914008431946704710B5D0
:10045000141E73F1000408DA401C41F100019218E7
:100460005B411A4301D120F0010010BD2DE9F04D90
:1004700092469B4611B1B1FA81F202E0B0FA80F2E5
:1004800020329046FFF7B2FF04460F4640EA0A00CA
:1004900041EA0B0153465A46084313D0114653EA2A
:1004A000010019D0C8F140025046FFF7AEFF0546E3
:1004B0000E46504659464246FFF798FF084305D07E
:1004C000012004E020463946BDE8F08D00200543B8
:1004D00046EAE0762C4337430A986305E40AA0EB2A
:1004E00008000022FD0A44EA47540A3002D50020E1
:1004F0000146E9E7010510196941DDE908450019E0
:100500006941BDE8F04DA2E72DE9FE4F81EA030401
:1005100004F0004421F0004100944FF0000B23F060
:10052000004350EA01045ED052EA03045BD0C3F3F7
:100530000A54C1F30A552C44A4F2F3340194A0FBED
:100540000254C1F3130141F48011C3F3130343F4C4
:10055000801301FB024400FB034E840A970A44EA1D
:10056000815447EA8357A4FB076802958D0A05FB6F
:1005700007854FEA932C04FB0C542705029D4FEA94
:10058000065847EA1637B5EB08056EEB070C870EE1
:10059000920E47EA811742EA8312A7FB0201B6EBEB
:1005A0000B0164EB00042B0D43EA0C335E1844EBA3
:1005B0001C50DA465146E7FB0201C5F313044FEA2B
:1005C0000B3343EA14534FEA0432019C43EA060317
:1005D000A4F10C040294009CCDE900B4FFF746FF9F
:1005E00003B0BDE8F08F00200146F9E72DE9F04D9A
:1005F00081EA030404F0004B21F0004514464FF05B
:10060000000A23F0004150EA050220D054EA01021A
:100610001DD0C5F30A570246C5F31303C1F31300F7
:10062000C1F30A5640F4801543F48013A7EB060883
:10063000101BD64608F2FD3873EB050002D308F113
:10064000010801E092185B41B8F1000F03DA0020C5
:100650000146BDE8F08D00204FF480110646844627
:100660000EE0171B73EB050705D3121B63EB0503A5
:1006700006434CEA010C49084FEA300092185B41EE
:1006800050EA0107EDD152EA030012D082EA0400D9
:1006900083EA0501084305D0101BAB4106D20122B5
:1006A000002306E000224FF0004302E06FF0010259
:1006B00053101AEB06004CEB085110EB0A0041EB0B
:1006C0000B01BDE8F04DFFF7C2BE70B521F000434D
:1006D00003430CD0C1F30A550024D5EB040564EBA9
:1006E0000403D617AD1AB34102DB0020014670BDEA
:1006F000201841EB025170BD0EB5C10F80EAE070C9
:100700000844CA07002140F233438DE80E000A4630
:100710000B46FFF7ABFE03B000BD000030B5041E72
:1007200071F1000404DB4FF00044404264EB01012E
:10073000141E73F1000405DB1C464FF000435242C7
:1007400063EB0403994208BF904230BD064C074D4D
:1007500006E0E06840F0010394E807009847103491
:10076000AC42F6D3FFF726FD6C3500088C35000847
:100770002DE9F04D00231A461B1A8A4103DB0020A5
:100780000146BDE8F08DC1F30A52C1F3130141F4F3
:1007900080154FF0000BD10702D100186D41521E99
:1007A0000027044640F2FF11384601EB620A3E463C
:1007B0008046024600204FF48011FFF726FEC21942
:1007C0007141BB1846EB0100B4EB030C75EB000C58
:1007D00004D3E41A65EB000517460E46241908F108
:1007E00001006D4180463428E3DDF91946EB06002F
:1007F000091BA84103D24FF0FF32134601E000224B
:1008000013461BEB070046EB0A51BDE8F04DFFF71E
:100810001EBE10B5044600F097FC204600F0A8FC70
:1008200010BD21B1826842F00102826003E082685B
:1008300022F00102826070470021084A1168084ACC
:100840001140D0E900231A4383681A43C3681A434E
:100850001143044AC2F80413704700000423014006
:10086000E030FCFF0020014021B1826842F4807238
:10087000826003E0826822F480728260704721B156
:10088000826842F40072826003E0826822F400729F
:100890008260704730B50246002000235068104C3B
:1008A00020400D790C6844EA05242043506090688C
:1008B0000C4C2040D1E903542C438D682C434D79D6
:1008C00044EA450420439060D06A20F470000C7D17
:1008D000641EE4B2234340EA0350D06230BD0000FE
:1008E000FFFEFFFCFDF7FFC0F0B504460D460020FB
:1008F0000021092D11DDE068A5F10A0606EB460787
:10090000072606FA07F18843A5F10A0606EB460614
:1009100003FA06F10843E0600CE0206905EB4507A7
:10092000072606FA07F1884305EB450603FA06F1A8
:1009300008432061072A0FDA606B561E06EB860714
:100940001F2606FA07F18843561E06EB860605FAAF
:1009500006F10843606322E00D2A0FDA206BD61FF0
:1009600006EB86071F2606FA07F18843D61F06EB1B
:10097000860605FA06F10843206310E0E06AA2F15A
:100980000D0606EB86071F2606FA07F18843A2F13B
:100990000D0606EB860605FA06F10843E062F0BD97
:1009A00000210160017141718160C160016101211B
:1009B0000175704700B587B00121084600F020FBA3
:1009C0000121102000F03CFB00208DF81A000120CE
:1009D0008DF81B0002208DF819008DF81800000218
:1009E000059005A91D4800F025FA02208DF8180091
:1009F0004002059005A9194800F01CFA07220A21B7
:100A0000164800F05FFA07220921144800F05AFA4C
:100A10004FF4E13001900020ADF80800ADF80A0075
:100A2000ADF80C00ADF810000C20ADF80E0001A9D7
:100A30000B4801F017F8012240F22441084800F069
:100A4000ECFF012240F22551054800F0E6FF0121AC
:100A5000034800F09FFF07B000BD00000000024007
:100A60000010014000B587B00121084600F0C8FA27
:100A70000121480400F0D4FA00208DF81A0001206A
:100A80008DF81B0002208DF819008DF81800042045
:100A9000059005A91A4800F0CDF902208DF818003C
:100AA0000820059005A9164800F0C4F90722032183
:100AB000134800F007FA07220221114800F002FA59
:100AC0004FF4E13001900020ADF80800ADF80A00C5
:100AD000ADF80C00ADF810000C20ADF80E0001A927
:100AE000084800F0BFFF012240F22551054800F000
:100AF00094FF0121034800F04DFF07B000BD000046
:100B0000000002400044004070B505460E46002437
:100B100006E035F81420214603A001F011F8641C0A
:100B2000B442F6DB70BD000025642025640D0A0088
:100B300010B50B490B4800F061F878B10A4800681D
:100B4000401C094908600220084908600021054846
:100B500000F044F80649034800F026F810BD0000F4
:100B60002080001010640240400000203800002067
:100B7000200000100246094B9A4201D2084801E0C9
:100B80000648103801F000531BB1064B0B40C36000
:100B900002E0044B0B408360704700001064024089
:100BA000006002407D0F7D0F0246094B9A4201D240
:100BB000084801E00648103801F000531BB1064B0D
:100BC0000B40C36002E0044B0B40836070470000A1
:100BD00010640240006002407D0F7D0F21B1026869
:100BE00042F00102026003E0026822F001020260AA
:100BF00070470146486880B27047000070B50246F1
:100C0000002000240025124EB24201D2114B01E017
:100C10000F4B103B104E0E4036B11E2606EAD12473
:100C2000166806EA040502E0566906F0800501F040
:100C300000560EB15C6800E01C68084E344004EABF
:100C4000010616B10DB1012000E0002070BD0000CA
:100C500010640240006002403C0F3C0F7D0F7D0F8E
:100C600010B501F080034BB122B1436943F080031A
:100C7000436103E0436923F08003436180290BD083
:100C80002AB1036801F01E042343036004E00368F3
:100C900001F01E04A343036010BD000010B5002244
:100CA0000268134B1A40CC680B6823434C692343FA
:100CB0008C692343CC6923430C6A23434C6A234346
:100CC0008C6A23434C6B23438C6B23431A4302608F
:100CD000426922F00702D1E90B3423431A434261EF
:100CE0000B6943604B6883608B68C36010BD000074
:100CF0003F801CF010B500F008F9FFF75BFEFFF72E
:100D0000B1FE10BD10B5012000F012F830B1012184
:100D1000034800F01DFD012000F004F810BD0000A4
:100D2000000001400149086070470000143C014088
:100D300001460020034A12680A400AB1012000E07F
:100D400000207047143C0140002123498279002A89
:100D50003AD00A46126803689A430B461A600A1D85
:100D6000126803689A430B1D1A60027911440A68DD
:100D700003681A430A60184A0832126803689A43E3
:100D8000154B08331A601A1D126803689A43124BF8
:100D90000C331A604279102A0ED11A1F12680368A8
:100DA0001A430D4B08331A601A1D126803681A4360
:100DB000094B0C331A600DE00749427911440A6867
:100DC00003681A430A6005E0027911440A6803685F
:100DD0009A430A6070470000003C01401FB50121A2
:100DE000084600F00DF90121880300F029F900F010
:100DF000AEF80120029000208DF80C008DF80F0055
:100E000002A90B4800F016F80021084600F040FA4D
:100E10000120009000208DF8040008208DF80500C6
:100E200001208DF806006846FFF78EFF1FBD000009
:100E300000000240F0B50A4600210023002400BF54
:100E40003DE0012505FA01F3156805EA03049C421B
:100E500034D105684F000326BE40B54305601579BF
:100E60004E00B5400668354305601579012D02D066
:100E70001579022D16D185684F000326BE40B54373
:100E8000856055794E00B540866835438560456874
:100E900001268E40B5434560456896798E40B6B2CE
:100EA00035434560C5684F000326BE40B543C56065
:100EB000D5794E00B540C6683543C560491C102938
:100EC000BFD3F0BDF0B5002300244D07ED0E02FAAC
:100ED00005F3CE1000F1200555F826504E07F70E09
:100EE0000F26BE40B543CF1000F1200646F827502C
:100EF000CE1000F1200555F8265045EA0304CE1027
:100F000000F1200545F82640F0BD08B54FF4A0607B
:100F100000F06CF825208DF8000001208DF801000C
:100F20008DF802008DF80300684600F023F82620B3
:100F30008DF8000001208DF8010002208DF80200DC
:100F400001208DF80300684600F014F808BD08B5CC
:100F50004FF4C06000F04AF806208DF80000012030
:100F60008DF801008DF802008DF80300684600F04E
:100F700001F808BD70B5002100230F22C4781CB30E
:100F8000174C246804F4E064C4F5E064C4F307215A
:100F9000C1F10404E3B20A4144789C40E1B2847890
:100FA000144021430C07210E0E4C0578615504783E
:100FB00004F01F050124AC4005786D11AD0005F16A
:100FC000E025C5F8004109E0047804F01F0501247C
:100FD000AC40054D0678761145F8264070BD0000FE
:100FE0000CED00E000E400E080E100E00249014394
:100FF000024A1160704700000000FA050CED00E0A5
:1010000029B1064A12680243044B1A6004E0034AFD
:1010100012688243014B1A6070470000303802406A
:1010200029B1064A12680243044B1A6004E0034ADD
:1010300012688243014B1A6070470000403802403A
:1010400029B1064A12680243044B1A6004E0034ABD
:1010500012688243014B1A60704700004438024016
:10106000F0B5002100220024022500260223324F81
:101070003F6807F00C0121B1042905D0082937D1B8
:1010800005E02E4F076036E02D4F076033E02A4F12
:101090003F1F3F68C7F38056274F3F1F3F6807F049
:1010A0003F036EB1264FB7FBF3F7DFF88CC0ACF10E
:1010B000040CDCF800C0CCF3881C07FB0CF40CE03B
:1010C0001E4FB7FBF3F7DFF870C0ACF1040CDCF88F
:1010D00000C0CCF3881C07FB0CF4174F3F1F3F6880
:1010E000C7F301477F1C7D00B4FBF5F7076002E002
:1010F000124F076000BF00BF0F4F3F6807F0F001BD
:101100000909104F7A5C0768D74047600A4F3F686B
:1011100007F4E051890A0B4F7A5C4768D740876033
:10112000054F3F6807F46041490B064F7A5C4768FA
:10113000D740C760F0BD0000083802400024F4002A
:1011400040787D01140000201CB501210420FFF728
:1011500057FF0820009003208DF8040000208DF830
:10116000070069460148FFF765FE1CBD0008024004
:1011700010B59AB0044601218805FFF741FF4048A9
:101180000C90404800680D9000200E900F94109035
:101190004FF4806011904000129080001390002066
:1011A00014904FF4003015900020169001201790F5
:1011B0000020189019900B900BA93348FFF76EFD93
:1011C00001213148FFF70AFD01210802FFF738FF2E
:1011D00000200190029003904FF47060049001A8E9
:1011E000FFF72AFB05A8FFF7DBFB002005908DF831
:1011F00018008DF819004FF0805007904FF0606094
:1012000008900020099001208DF8280005A91C48AD
:101210004C38FFF73FFB072301220D2118484C38BB
:10122000FFF762FB012116484C38FFF728FB3820F6
:101230008DF8000000208DF8010003208DF80200D9
:1012400001208DF803006846FFF794FE0F490E4811
:10125000FFF790FC0D4910390B48FFF78BFC01227A
:1012600010210948FFF7FCFC012105484C38FFF725
:10127000FBFA012102484C38FFF7D3FA1AB010BD2F
:101280004C20014064000020106402402000001047
:1012900030B500228B071C0F0F2303FA04F20B4B0F
:1012A0008C1053F824309343084C8D1044F82530AB
:1012B00023468C1053F824308C07240F00FA04F4D2
:1012C0002343024C8D1044F8253030BD08380140CE
:1012D0000CB50020019000904148006840F4803037
:1012E0003F49086000BF3E48006800F400300090AD
:1012F0000198401C0190009818B90198B0F5A04FD2
:10130000F1D13748006800F4003010B1012000909E
:1013100001E0002000900098012860D13048403062
:10132000006840F080502E49403108602D48006828
:1013300040F440402B49086029480830006828499B
:10134000083108600846006840F40040086008461C
:10135000006840F4A05008602348091F0860081F77
:10136000006840F08070091F086000BF1C480068DA
:1013700000F000700028F9D01A48006840F480306E
:101380001849086000BF1748406800F48030002802
:10139000F9D01448006840F400301249086000BFDA
:1013A0001048406800F400300028F9D040F2057081
:1013B0000E4908600A480830006820F00300084918
:1013C000083108600846006840F00200086000BF6D
:1013D00003480830006800F00C000828F8D10CBD64
:1013E0000038024000700040195A4007003C02409B
:1013F00010B500F099FA10BD30B5164800684FF4EA
:101400007A72B0FBF2F1481EB0F1807F01D3012067
:101410001BE0481E4FF0E022506150170F220028B9
:1014200007DA13071D0E0C4B00F00F04241F1D5587
:1014300003E013071C0E094B1C5400BF00204FF0A3
:10144000E022906107201061002008B100BFFEE794
:1014500030BD00000000002018ED00E000E400E0D6
:1014600010B51548006840F470001349086013482F
:10147000006840F001001149086000200F49083160
:1014800008600E4800680E4908400C4908600D4885
:10149000091D0860081F006820F48020091F0860EB
:1014A000002006490C310860FFF712FF4FF0006082
:1014B00001498039086010BD88ED00E00038024025
:1014C000FFFFF6FE1030002470B58CB006460C46C7
:1014D000154601210846FFF793FD01210420FFF77F
:1014E0008FFD012208213048FFF7ECFC0122092181
:1014F0002E48FFF7E7FC4FF480700A9002208DF829
:101500002C0000208DF82E008DF82F0003208DF880
:101510002D000AA92448FFF78DFC4FF400700A90B3
:101520000AA92248FFF786FC01210846FFF788FD3B
:101530000896ADF81C400020ADF82400ADF81E0060
:1015400007A91B4800F0AEF97020ADF80800012093
:10155000ADF80A0004950020ADF8140002A9144863
:1015600000F034F919208DF8040000208DF80500F2
:1015700003208DF8060001208DF8070001A8FFF771
:10158000F9FC01210A4800F0DDF801221146084863
:1015900000F013F90821064800F056F9012104482B
:1015A00000F0E2F80CB070BD0000024000080240FC
:1015B0000000014010B501211F4800F0EDF800289F
:1015C00038D01E4800681E490968405C012803D1D4
:1015D00000201949486302E0C820174948631848A9
:1015E000006818490968884202D1C8201249486336
:1015F0001348016813480068401C814211D1124809
:1016000000884FF6FE7108400F4908800A4800889C
:101610004FF6FE710840084908804FF0FF30084936
:10162000086007480068401C05490860012102481D
:1016300000F08BF810BD0000000001405C000020AD
:101640003C0000204C0000200004014070B58CB02C
:1016500006460C46154601210420FFF7D1FC032263
:1016600006213548FFF72EFC40200A9002208DF815
:101670002C0000208DF82E008DF82F0003208DF80F
:101680002D000AA92C48FFF7D5FB01210220FFF706
:10169000D7FC0796ADF818400020ADF82000ADF853
:1016A0001A008DF8220006A9244800F0FBF840211A
:1016B000224800F0E4F87020ADF804000120ADF8F5
:1016C000060003950020ADF8100001A91B4800F0AA
:1016D0007DF80821194800F0B7F82C208DF8240077
:1016E00000208DF8250003208DF8260001208DF8BC
:1016F000270009A8FFF73EFC012211020F4800F065
:1017000042F801210D4800F01DF801210B4800F0BE
:101710002BF880210A4800F0A9F81021084800F0B1
:10172000AEF80621054800F0B3F80021034800F0A8
:1017300094F80CB070BD00000008024000040140A5
:1017400000000140CA4302827047CA4302827047C8
:1017500021B1028842F00102028004E002884FF6C3
:10176000FE731A400280704731B1B0F8442042F451
:101770000042A0F8442005E0B0F84420C2F30E0275
:10178000A0F8442070471AB183890B43838102E09B
:1017900083898B438381704730B502460020002344
:1017A0000024158A05EA0103958905EA010413B1AD
:1017B0000CB1012000E0002030BD1AB183890B4339
:1017C000838102E083898B438381704770B5002455
:1017D00000220023058C4FF6FE7635400584028CEE
:1017E0008388048B4FF68F752C40B51E2C400D88D6
:1017F0002C43751E2A408D892A434D882A43104D5B
:10180000A84202D00F4DA84213D14FF6F7752A40D7
:10181000CD892A434FF6FB752A408D882A434FF61F
:10182000FF652B404FF6FF552B400D8A2B434D8A09
:101830002B43838004838D684563028470BD000060
:1018400000000140000401400A460021018B4FF6D0
:10185000F77319401143018370470A46002101893B
:101860004FF68F73194011430181704702894FF67B
:101870007F731A40028102890A430281704782887D
:101880004FF68F731A40828082880A4382807047A5
:1018900002894FF6F8731A40028102890A430281D5
:1018A0007047000000220288184B98420ED0184B57
:1018B00098420BD0B0F1804F08D0164B984205D01B
:1018C000154B984202D0154B984204D14FF68F73B6
:1018D0001A404B881A43124B984207D0114B98423A
:1018E00004D04FF6FF431A400B891A4302804B681D
:1018F000C3620B880385054B984202D0044B984283
:1019000001D18B7A03860123838270470000014056
:10191000000401400004004000080040000C0040AA
:1019200000100040001400400448006820B1034843
:101930000068401E014908607047000068000020F0
:1019400010B540F225510F4800F03DF850B10D4858
:101950008088C1B20C4802680068401C0A4B1860BD
:101960000A48815440F22441064800F02CF840B166
:1019700004480088C4B203488088C4B201200449E6
:10198000086010BD00100140340000207C000020E1
:101990003800002021B1828942F40052828104E0A3
:1019A00082894DF6FF731A408281704702460020FB
:1019B000B1F5007F00D100BF13880B400BB10120AF
:1019C00000E00020704770B5024600240023002587
:1019D000002040F66A16B14200D100BFC1F34215A3
:1019E00001F01F03012606FA03F3012D02D19689A7
:1019F000334006E0022D02D1168A334001E0968A78
:101A000033400C12012606FA04F41688344013B150
:101A10000CB1012000E0002070BDF0B503460024A9
:101A200000260025002040F66A17B94200D100BF09
:101A30001846C1F3421401F01F06012707FA06F504
:101A4000012C01D10C3004E0022C01D1103000E057
:101A500014301AB107682F43076002E00768AF43EC
:101A60000760F0BD2DE9FF4705460E460024A1465C
:101A700000BFA046B08900B100BF2C8A24F44054B6
:101A8000F08804432C82AC8941F20C608443B08816
:101A900031890843718908430443AC81AC8A24F43A
:101AA0004074B0890443AC826846FFF7D9FA2048F5
:101AB000854202D01F48854202D1DDF80C9001E03A
:101AC000DDF80890A88900F4004040B109EBC90096
:101AD00000EB091031684900B0FBF1F707E009EBB2
:101AE000C90000EB091031688900B0FBF1F76420F0
:101AF000B7FBF0F004012009642101FB1078A889EC
:101B000000F4004040B1322000EBC800B0FBF1F01F
:101B100000F00700044308E0322000EB08106421C5
:101B2000B0FBF1F000F00F0004432C81BDE8FF870B
:101B30000010014000140140C1F308028280704788
:101B40000FB4054B10B503A9044A029800F02EFF0C
:101B500010BC5DF814FB00005D2F00086C00002035
:101B600003B401984100009850EAC12018BF042036
:101B70004A0D18BF40F0010040F2FF72B2EB515F16
:101B800008BF40F00200012808BF052002B07047DE
:101B90002DE9F04D2DED040B2DED0E8B96B0DDE90A
:101BA0002550279CDDF890A025F0004624F0004841
:101BB000BAF1000F14BF0121002101EB4502FC49DD
:101BC00053184A1093422AD3002814BF012300233C
:101BD00003EB44030B44F7498B4220D358EA00013E
:101BE0009FEDF59B76D0DFF8D8B35D4503D1BAF110
:101BF000000F05D188E0BAF1000F08BF002100D026
:101C0000012101EB450111F5001F08D8002814BF80
:101C10000121002101EB440111F5001F0BD99DEDBD
:101C2000261B9DED240B16B0BDEC0E8B04B0BDE859
:101C3000F04D00F069BE0027002DBCBFE14988458A
:101C400021DAE1498845A8BF02271CDAC3451ADC1E
:101C5000DE4901EB2851142908DDC1F1340220FAD4
:101C600002F101FA02F282420DD108E058B9C1F145
:101C7000140228FA02F101FA02F2424503D101F0FE
:101C80000101C1F1020756EA0A0124D1002C22DA2F
:101C9000002D18BF022F01D0012F0AD0022000F022
:101CA0007FFE16B0BDEC0E8B04B0BDE8F04D00F029
:101CB00013BE022000F074FE00F00EFE51EC100B7B
:101CC00081F0004141EC100B16B0BDEC0E8B04B05E
:101CD000BDE8F08D18E09FEDBEAB9FEDBF8B0028F7
:101CE00071D1B848804522D105F1804010F58010AF
:101CF00008BFBAF1000F07D0B3450ADC002CA8BF1B
:101D00009DED260BE0DA0DE0B0EE490AF0EE690A2F
:101D1000DAE7002C06DA9DED260B51EC100B81F072
:101D200000416FE0AE48784490ED000BCCE7D84519
:101D30004DD1002C48DA2EB186423AD1BAF1000FCB
:101D400042D126E0BAF1000F13D0022000F028FEA5
:101D500000F0F6FD8DED020B9DED240B8DED000BDB
:101D600010EE900A039961F31E0003909DED020BA3
:101D7000AAE78DED02AB9DED240B1AEE901A10EE42
:101D8000900A8DED000B61F31E0003909DED020B98
:101D90009AE78DED028B9DED240B18EE901A10EE54
:101DA000900A8DED000B61F31E0003909DED020B78
:101DB0008AE709DA9DED240B51EC190B53EC102B3B
:101DC000FEF714FC1EE020E09DED240B7CE786422C
:101DD0001BDAB4F1804F0DD0A4F10050B0F1FF50E8
:101DE00013D1002D11DB9DED240B51EC100B01F0F4
:101DF000C5FA07E09DED240B53EC102B51EC100BB2
:101E000000F0C2BC41EC100B5EE79DED240B51ECE1
:101E1000100B01F097F8BAF1000FCDE90E0142D195
:101E20009FED710B46B3A6F1E040B0F17F600CD09E
:101E30005E4538D1002D00DAA7B3022F0CBF012078
:101E40004FF0FF30FEF758FCDCE7002D01DD002CE1
:101E50000DDA002D01DD002C1FDB002D16DA002C21
:101E600014DB012F08BF9FED620B3FF42DAFB0EEE6
:101E70004A0AF0EE6A0A27E7022F18BF002D0CD09D
:101E8000012F0AD1002DFFF61FAF06E0002DB8BFCD
:101E9000002C08DA012F3FF417AFB0EE480AF0EE3D
:101EA000680A11E71BE0012000EBE57050EA07012A
:101EB00015D0791EB0EE498AF0EE698A084308BF52
:101EC0009FED4D8B4E480025804570DD4D494E48B5
:101ED000884514DDB0420DDB002C19DB2FE001201A
:101EE00000F05EFD16B0BDEC0E8B04B0BDE8F04D09
:101EF00000F016BDB34502DC002C09DC1FE0864271
:101F000002DA002C1BDA03E05E452BDD002C16DD27
:101F1000022000F045FD00F013FD8DED020B53ECA7
:101F20001A2B51EC180BFEF7EFFACDE900010399DB
:101F3000019861F31E0003909DED020BC4E60220A0
:101F400000F02EFD00F00CFD10EE901A18EE900A35
:101F50008DED020B8DED008B61F31E0003909DED66
:101F6000020BB1E69DED0E0B53EC192B51EC100B4F
:101F7000FEF7D9F99FED260BCDE9080153EC102BA4
:101F80009DED080B51EC100BFEF7BEFA9FED221BE6
:101F900053EC112BFEF7CAF99DED081B53EC112BE6
:101FA000FEF7B2FA9FED1E1B53EC112B3CE08CE0C8
:101FB000FFFF1F00FFFF0F00000000000000F03FC8
:101FC0000000F03F0000F07F0000404301FCFFFFF5
:101FD000000000000000F07F000000000000000092
:101FE0004E1700000000000000000000000000800C
:101FF000000000000000F0FF000000000000F0BF43
:102000000000E0410000F043FFFFEF3F0000000050
:10201000000000000000D03F555555555555D53F9F
:10202000000000000000E03FFEF780F99DED080B86
:1020300041EC1A0B53EC102B51EC100BFEF764FA29
:1020400053EC1A2BFEF760FA41EC1A0B9FEDFE0BD6
:1020500053EC102B9DED080B51EC100BFEF754FACE
:1020600041EC1B0B9FEDFA0B51EC1A0B53EC102BB0
:10207000FEF74AFA41EC1A0B9FEDF70B53EC102BCD
:102080009DED080B51EC100BFEF73EFA53EC1A2BAA
:10209000FEF749F941EC1A0B51EC1B0B53EC1A2BD0
:1020A000FEF7A0F80690CDE906519DED060B53EC26
:1020B0001B2B51EC100BFEF736F953EC1A2BFEF7E5
:1020C00035F941EC100B00F0A1B90020B6F5801FE6
:1020D0000EDA9FEDE30B53EC102B9DED0E0B51EC44
:1020E000100BFEF711FACDE90E016FF034000E4629
:1020F00000EB2650A0F2FF37C6F31300DA4940F098
:102100007F6646F040568842D8BF002408DDD74994
:102110008142C8BF012403DC0024A6F580167F1C81
:10212000D348784400EBC4000F9690ED00CB9DEDB2
:102130000E0B53EC1C2B51EC100BFEF7F4F89DED3D
:102140000E0B41EC1B0B53EC1C2B51EC100BFEF750
:1021500049F841EC100B51EC190B53EC102BFEF726
:1021600045FA41EC1D0B51EC1B0B53EC1D2BFEF7FC
:10217000CBF941EC1A0BBF488DED10AB78441095AC
:1021800090ED000B4FF0005040EA660000EB8440F9
:102190008DED080B00F5002009909DED080B53EC28
:1021A0001C2B51EC100BFEF7BEF89DED0E1B53ECF3
:1021B000112BFEF7BBF841EC100B53EC102B9DEDEF
:1021C000100B51EC100BFEF79FF99DED080B41EC45
:1021D0001C0B53EC102B9DED100B51EC100BFEF76C
:1021E00093F953EC1B2BFEF7A1F853EC1C2BFEF7D5
:1021F0009AF853EC1D2BFEF787F941EC1C0B53ECBE
:102200001A2B51EC1A0BFEF77FF941EC1B0B9A4885
:102210000621B0EE4B0AF0EE6B0A784400F0E0FACB
:10222000B0EE401AF0EE601AB0EE41DAF0EE61DA8C
:1022300053EC1B2B51EC1B0BFEF766F953EC1D2BDB
:10224000FEF762F99DED100B41EC1B0B53EC1A2BC2
:1022500051EC100BFDF7C6FF53EC1C2BFEF754F9A5
:1022600053EC1B2BFDF7BEFF9DED100B41EC1B0B40
:1022700053EC102B51EC100BFEF746F941EC1D0B03
:102280009FED7FEB53EC1E2BFDF7ACFF53EC1B2BAC
:10229000FDF7A8FF0890CDE908519DED080B53EC20
:1022A0001E2B51EC100BFEF73EF853EC1D2BFEF7E6
:1022B0003AF853EC1B2BFEF739F89DED080B41EC77
:1022C0001D0B53EC102B9DED100B51EC100BFEF77A
:1022D0001BF941EC1B0B53EC1A2B51EC1D0BFEF7B9
:1022E00013F99DED080B41EC1A0B53EC102B51EC3C
:1022F0001C0BFEF709F953EC1A2BFDF773FF41ECA9
:102300001A0B51EC1B0B53EC1A2BFDF76BFF0C90C7
:10231000CDE90C519DED0C0B53EC1B2B51EC100B2C
:10232000FEF701F853EC1A2BFEF700F841EC1B0BFB
:102330009FED550B53EC102B9DED0C0B51EC100B3E
:10234000FEF7E2F841EC1A0B9FED510B51EC1B0B21
:1023500053EC102BFEF7D8F841EC1B0B9FED4E0B06
:1023600053EC102B9DED0C0B51EC100BFEF7CCF841
:1023700053EC1B2BFDF736FF41EC100B484878441B
:1023800000EBC40090ED001B51EC100B53EC112B33
:10239000FDF728FF41EC1B0B3846FEF7ADF9CDE900
:1023A000080153EC1B2B51EC1A0BFDF71BFF41EC02
:1023B000100B3C48784400EBC40090ED00CB51EC8E
:1023C000100B53EC1C2BFDF70DFF9DED081B53EC80
:1023D000112BFDF707FF0690CDE906519DED080B87
:1023E00053EC102B9DED060B51EC100BFDF79BFFF2
:1023F00053EC1C2BFDF797FF53EC1A2BFDF793FFC3
:1024000053EC1B2BFDF792FF41EC100B9DED261BAF
:1024100053EC102B8DED001B00959DED260B51EC20
:10242000100BFEF771F89DED000B41EC1A0B53EC0D
:10243000102B9DED260B51EC100BFDF774FF9DED5D
:10244000061B53EC112B2FE0000000604715F73FEF
:10245000FE822B654715F73F44DF5DF80BAE543E17
:1024600000000000000040438E9803007AB60B0085
:10247000CA120000F8120000021200000000000062
:102480000000000000000840000000E009C7EE3F27
:10249000FD033ADC09C7EE3FF5015B14E02F3EBEB9
:1024A0008E10000048100000FEF72EF853EC1A2B97
:1024B000FDF798FE9DED060B41EC1A0B53EC102B2B
:1024C0009DED000B51EC100BFEF71EF8CDE90C0151
:1024D0009DED0C0B51EC1A0B53EC102BFDF782FE0B
:1024E000CDE902010C46AA498C422FDB611A084350
:1024F00018D19DED0C0B53EC102B9DED020B51EC04
:10250000100BFDF710FF41EC1B0B9FEDA30B51ECE3
:102510001A0B53EC102BFDF765FE53EC1B2BFEF74B
:10252000FDF82DD2022000F03BFA00F009FA10EE7F
:10253000901A18EE900A8DED020B8DED008B61F371
:102540001E0003909DED020BFFF7BEBB944A24F0E2
:102550000041914214D39349214408437FF4EFACE6
:102560009DED0C0B53EC102B9DED020B51EC100B61
:10257000FDF7D9FE53EC1A2BFEF7D0F87FF6DFAC4F
:1025800024F000408849894A002601EB205182420C
:102590002BDA481C4FF4801121FA00F02044844AC1
:1025A000C0F30A517A44A1F2FF3192ED000B814A47
:1025B0008DED080BCA4020EA0202C0F3130040F47C
:1025C0008010C1F1140120FA01F60992002CB8BF65
:1025D00076429DED080B53EC102B9DED0C0B51EC4E
:1025E000100BFDF7A0FECDE90C019DED0C0B51EC9D
:1025F0001A0B53EC102BFDF7F5FD9FED6F0B0890B8
:10260000CDE9085153EC102B9DED080B51EC100B4C
:10261000FDF77AFF41EC1B0B9FED690B53EC102B80
:102620009DED080B51EC100BFDF76EFF9DED0C0BB3
:1026300041EC1C0B53EC102B9DED080B51EC100BD7
:10264000FDF771FE53EC1A2BFDF770FE9FED5E1B3C
:1026500053EC112BFDF758FF53EC1C2BFDF7C2FD7B
:1026600041EC1A0B51EC1B0B53EC1A2BFDF7BAFD86
:10267000CDE902019DED020B53EC1B2B51EC100B2D
:10268000FDF751FE53EC1A2BFDF750FE9DED020BAA
:1026900041EC1A0B53EC102B51EC100BFDF734FFEF
:1026A000CDE908014A489DED080B0521784400F06A
:1026B00097F89DED081B51EC100B53EC112BFDF717
:1026C00023FF9DED021B53EC112BFDF72FFECDE9EF
:1026D00006019DED020B53EC1A2B51EC100BFDF78C
:1026E00013FF53EC1A2BFDF77DFD9FED3B0B41ECE7
:1026F0001A0B53EC102B9DED060B51EC100BFDF754
:1027000012FE9DED060B41EC1B0B53EC102B9DEDC7
:10271000020B51EC100BFDF7F7FE53EC1B2BFDF7F2
:1027200065FF53EC1A2BFDF7FEFD9DED021B53ECEC
:10273000112BFDF7F8FD53EC192BFDF7F7FDCDE953
:10274000020101EB065001150029C8BF039015DCFA
:102750009DED020B324651EC100BFDF7B6FFFFF773
:10276000FFF9042808BF00F0FBF832469DED020B8C
:1027700051EC100BFDF7A9FFCDE902019DED020B15
:1027800051EC180B53EC102BFDF7BEFEFFF73ABBD4
:102790000000904000000000FE822B654715973C2A
:1027A00000CC904000346F3F01FCFFFF0000E03F91
:1027B000D00E0000FFFF0F0000000000432EE63F98
:1027C000396CA80C615C20BEEF39FAFE422EE63F60
:1027D000A00D00000000000000000000000000400C
:1027E00070B504462DED028B4D1E00EBC500B0EE1A
:1027F000408AF0EE608A90ED000B35F0060017D0AD
:1028000053EC182B51EC100BFDF77EFE41EC100B36
:102810006D1E04EBC50090ED001B51EC100B53EC4A
:10282000112BFDF7DFFC41EC100B35F00600E7D172
:10283000022D36D0042D1CD0062D1CBFBDEC028B02
:1028400070BD53EC182B51EC100BFDF75DFE94EDB1
:102850000A1B53EC112BFDF7C5FC53EC182BFDF7AD
:1028600053FE94ED081B53EC112BFDF7BBFC41EC20
:10287000100B53EC182B51EC100BFDF745FE94EDAB
:10288000061B53EC112BFDF7ADFC53EC182BFDF799
:102890003BFE94ED040B53EC102BFDF7A3FC41EC35
:1028A000100B53EC182B51EC100BFDF72DFE94ED93
:1028B000021B53EC112BFDF795FC53EC182BFDF785
:1028C00023FE94ED001B53EC112BFDF78BFCBDECAC
:1028D000028B41EC100B70BD9FED070B10B553EC54
:1028E000102B9FED070B51EC100BFDF77FFE41EC19
:1028F000100B10BD000000000000000000000000F0
:10290000000000000000F03F10B553EC112B51EC1B
:10291000100BFDF767FC41EC100B10BD0000000030
:102920009FED050B10B553EC102B51EC100BFDF780
:102930005DFE41EC100B10BD000000000000000027
:102940009FED050B10B553EC102B51EC100BFDF760
:10295000DBFD41EC100B10BD00000000000000701A
:102960009FED050B10B553EC102B51EC100BFDF740
:10297000CBFD41EC100B10BD00000000000000106A
:1029800002E008C8121F08C1002AFAD17047704738
:10299000002001E001C1121F002AFBD17047000096
:1029A0000149086070470000780000202DE9FF4FC2
:1029B0008DB09B460F460446002606E025280BD026
:1029C0005A460F999047641C761C20780028F5D150
:1029D00011B03046BDE8F08F0025A8460122984985
:1029E00000E0054314F8013F203B02FA03F00842DF
:1029F000F7D120782E2817D114F8010F45F00405DF
:102A00002A280ED06FF02F022078A0F1300109297A
:102A10000AD808EB880102EB410100EB0108641CB5
:102A2000F2E757F8048B641C20786C280DD004DC86
:102A30004C2812D06A2811D104E074280DD07A28CD
:102A40000CD10AE045F4001507E0617845F48015E3
:102A5000814202D1641C05F58015641C2278692A24
:102A600045D008DC002AB3D0582A69D0632A10D098
:102A7000642A08D13BE0702A67D0732A13D0752AE4
:102A80005CD0782A5CD010465A460F999047761C45
:102A9000D3E017F8040B8DF8000000208DF801003A
:102AA000E946012003E057F8049B4FF0FF30690727
:102AB0004FF0000501D40AE06D1C45450DDA854252
:102AC000FADB19F805100029F6D106E06D1C8542E5
:102AD000FCDB19F805100029F8D12E4404E019F8A0
:102AE000010B5A460F9990476D1EF8D2A5E00A20B7
:102AF0000021CDE90801C5F3025002280DD001CF15
:102B0000C117031E71F100030DDA4FF0000CD0EB7A
:102B10000C006CEB01012D2308E0FF1D27F00707D7
:102B2000F7E80201EDE72B0504D52B238DF82830BB
:102B300001233BE0EB0739D02023F7E70A2000E030
:102B400010200021CDE9080107E01020002145F008
:102B50000405CDE908014FF00808C5F3025002282A
:102B60000FD001CF00214FF0000A2B071FD5702A8C
:102B70000DD0DDE908C38CF0100C5CEA030C0CD01E
:102B800015E0FF1D27F00707F7E80201EBE74022F9
:102B90008DF828204FF0010A0BE050EA010306D01F
:102BA00030238DF828308DF8292002239A46582AA0
:102BB00004D024A20DF120090B9209E026A2F9E726
:102BC000DDE90823FDF7E1FB0B9B9B5C09F8013D68
:102BD00050EA0102F4D1ADEB0900203008906807FB
:102BE00001D44FF001080899884502DDA8EB0100E7
:102BF00000E000208046002506E00AA85A46405D15
:102C00000F9990476D1C761C5545F6DB04E030208B
:102C10005A460F999047761CB8F10001A8F10108B7
:102C2000F5DC05E019F8010B5A460F999047761C20
:102C30000899481E08900029F4DC641CC5E60000D1
:102C40000928010030313233343536373839616282
:102C50006364656600000000303132333435363746
:102C600038394142434445460000000010B5294828
:102C7000006801281ED128480068FDF7CAFD2748D2
:102C8000FDF7B7FF04462648036826482146026838
:102C90002548FEF755FFC822B321C720FEF714FCD4
:102CA0006422B321C720FEF7D1FC01211F48FEF7A3
:102CB0004FFD2AE01E480078012805D11649096811
:102CC000481EFDF7A6FD03E013480068FDF7A1FDCF
:102CD000C822B321C720FEF7F7FB6422B321C72027
:102CE000FEF7B4FC00200F49086001210F48FEF7F1
:102CF0002FFD0A48FDF77DFF04460948036809488F
:102D0000214602680B48FEF71BFF002001490860BE
:102D100010BD00003000002054000020106402406C
:102D20004C0000203C000020D0340008000001408E
:102D30006000002080340008002003E03021044AB5
:102D40001154401C034909688842F7DB70470000B2
:102D50007C000020340000202DE9F0410546884623
:102D600000242878303816490860641C00E0641C90
:102D7000285D6128FBD1601E00F072FA0646002033
:102D80003070012405E0285D3038C1B2601E315436
:102D9000641C285D6128F6D1601E88F800000027B9
:102DA00004E0F15D07A0FEF7CBFE7F1C601EB84279
:102DB000F7DC05A0FEF7C4FE3046BDE8F081000058
:102DC00024000020256420000D0A00002DE9F34FA7
:102DD0002DED068B83B00D462846FDF7AAFA41EC8F
:102DE0001A0BB0EE4A1AF0EE6A1A9FED430BFEF78B
:102DF000CFFEB0EE409AF0EE609A9FED410B53EC9F
:102E0000102B51EC190BFDF78EFA41EC180BFDF766
:102E10009DFA8146484600F023FA064616B93AA0C4
:102E2000FEF78EFE284600F01BFA0446002700201D
:102E30000290002121703070012121700122691E51
:102E4000625400BF03E00999095C0F44401CA8428A
:102E5000F9DB384600F004FA8046002188F80010BB
:102E60008A46002008E00999095C012903D108F885
:102E70000A000AF1010A401CA842F4DB002001907C
:102E800000211EE0681E205C705420780190002014
:102E900006E018F80020A25C029B5A400292401CF7
:102EA000B842F6DB0298207000200290681E03E012
:102EB000421EA25C2254401E0128F9DC0198607079
:102EC000491C4945DEDB17A0FEF73AFE4FF0000B28
:102ED00006E016F80B101AA0FEF732FE0BF1010BFC
:102EE000CB45F6DB15A0FEF72BFE304603B0BDEC5C
:102EF000068BBDE8FC8F00000000000000000040D1
:102F0000000000000000F03F73657175656E636539
:102F1000206D616C6C6F63206661696C7572650D04
:102F20000A00000063726561746553657175656EB2
:102F300063652066756E6374696F6E3A0D0A0000F2
:102F40002564200082B0CDE9000121F0004001900D
:102F50009DED000B02B051EC100B704770B50446AC
:102F60000D46E1B20548FEF7E7FD00BF80210348AA
:102F7000FEF71CFD0028F9D0204670BD001001406E
:102F800010B52DED068B324801683248FFF7E4FE9C
:102F900031490860314802683148017831A0FEF7B4
:102FA000CFFD00F0C7F92E4801782B480068FFF7E5
:102FB0000DFF354908602A480078FDF7BAF941EC61
:102FC0001A0BB0EE4A1AF0EE6A1A9FED300BFEF7BC
:102FD000DFFDB0EE409AF0EE609A9FED2E0B53ECC1
:102FE000102B51EC190BFDF79EF941EC180BFDF776
:102FF000ADF92A4908602A480078012803D108461B
:103000000068C01C02E025480068801C2549086053
:103010002248016824A0FEF793FD2248016827A0FA
:10302000FEF78EFD1F490968491D480000F018F998
:10303000264908600846006810B925A0FEF780FD03
:103040002248006800210180BDEC068B10BD000005
:10305000480000207C0000205800002024000020B0
:1030600044000020636F65664C656E6774683A259E
:1030700064206F76657253616D706C696E67A3BA78
:1030800025640D0A000000005C0000200000000024
:1030900000000040000000000000F03F4C00002055
:1030A000600000205400002073657175656E6365D3
:1030B0004C656E6774683A25640D0A006275666631
:1030C00073697A653A25640D0A00000064000020E7
:1030D000616463206D616C6C6F63206661696C75FF
:1030E00072650D0A00000000FEF786F9FDF776FE16
:1030F000FDF700FE6BE036480068012802D0022888
:1031000064D130E00A203249086000F0F9F8314813
:10311000007873280ED100F0D9F8FFF7A7FD2E48EC
:1031200001682EA0FEF70CFDFFF706FE00203349D4
:10313000086017E032480078401C31490870FFF7FA
:103140001FFF00202F49086000F0C0F82E480268D9
:10315000214801682DA0FEF7F3FCFFF7EDFD0020EC
:103160002649086032E00A20194908603248FDF714
:1031700040FD044631480368314821460268314821
:10318000FEF7DEFC1F48006801280FDD1C480078B0
:1031900001280BD11C480068411E2B480068FDF730
:1031A000B3FC2748016829A0FEF7CAFC1448007840
:1031B00001280ADD1448016823480068FDF7A4FCD3
:1031C0001F48016821A0FEF7BBFC00BF00BF92E7CB
:1031D000380000207C0000205C00002073657175C1
:1031E000656E636550726F647563742061646472A8
:1031F0006573733A25700D0A00000000340000204A
:1032000060000020400000205400002073657175AC
:10321000656E636550726F64756374206164647277
:103220006573733A25702C6275666673697A653AC0
:1032300025640D0A00000000106402404C000020CC
:103240003C0000202435000864000020736571757F
:10325000656E6365436F756E743A25640D0A0000F0
:10326000F0B50B30154D20F007010024144A0FE093
:1032700003688B420BD38B4205D95E1A431847680B
:10328000C3E9006700E04368136002C004E0021D68
:1032900010680028ECD12046002802D1286808B127
:1032A0000020F0BD064A07481060074A121A22F0B3
:1032B0000702C0E9002401202860D7E7740000203D
:1032C000700000209400002090E0022010B500243F
:1032D00006E007480068015D06A0FEF731FC641CAB
:1032E000054800688442F4DB04A0FEF729FC10BD09
:1032F0005C000020256420004C0000200D0A000026
:1033000010B5002405E00748015D07A0FEF718FC92
:10331000641C064800688442F5DB05A0FEF710FC3B
:1033200010BD00007C000020256300003400002058
:103330000D0A000010B50AA0FEF702FC002406E00A
:103340000A480068015D0AA0FEF7FAFB641C094800
:1033500000788442F4DB08A0FEF7F2FB10BD000009
:1033600073686F775F636F65660D0A005800002011
:1033700025642000440000200D0A000000B52DED5A
:10338000048B83B041EC190BFDF7F2F941EC180BFB
:1033900018EE100A18EE901A8DED008B002818BF59
:1033A0000120084320F00040C0F17F6000F1E040C0
:1033B000C00F14D019EE101A19EE900A8DED009B73
:1033C000002918BF0121084320F00040C0F17F60B0
:1033D00000F1E040C00F04BF0120FFF7E1FA51EC1B
:1033E000180B03B0BDEC048B00BD00000000000012
:1033F000000000000000F03F000000000000F83F67
:1034000000000000000000000000004003B8E23FA0
:10341000000000000000000006D0CF43EBFD4C3E52
:10342000033333333333E33FFFAB6FDBB66DDB3F47
:103430004D268F515555D53F01411DA96074D13F8F
:1034400065DBC9934A86CD3FEF4E454A287ECA3F89
:103450003E5555555555C53F93BDBE166CC166BF0B
:103460002CDE25AF6A56113FF16BD2C541BDBBBE04
:10347000D0A4BE726937663E000000000000000064
:103480006265666F72652053616D706C6520444D96
:10349000415F4765744375727244617461436F752F
:1034A0006E7465723A25642073657175656E636527
:1034B000436F756E74203A25642073657175656E6F
:1034C00063654C656E677468203A25640D0A0000D8
:1034D0006265666F726520666972737453616D70A0
:1034E0006C6520444D415F47657443757272446159
:1034F0007461436F756E7465723A256420736571EB
:1035000075656E6365436F756E74203A256420732C
:10351000657175656E63654C656E677468203A25E4
:10352000640D0A00616674657220444D415F476511
:10353000744375727244617461436F756E74657221
:103540003A25642073657175656E6365436F756EAA
:1035500074203A25642073657175656E63654C65EA
:103560006E677468203A25640D0A00008C350008E7
:10357000000000207C0000008029000808360008B8
:103580007C00002014E40200902900080095BA0A8B
:103590000000000000000000010203040607080903
:1035A00000000000010203040102030406070809E9
:1035B00001000000C8000000000000000100000041
:1035C00000000000000000000000000000000000FB
:1035D0000000000044000020000000004C0000201B
:1035E00000000000000000000000000000000000DB
:1035F00000000000000000000000000000000000CB
:083600000000000000000000C2
:04000005080001AD41
:00000001FF
